:100000000C947D010C94A5010C94A5010C94A50100
:100010000C94A5010C94A5010C94A5010C94A501C8
:100020000C94A5010C94A5010C94A5010C94A501B8
:100030000C94A5010C94A5010C94A5010C94A501A8
:100040000C94BF050C94A5010C942F060C94090682
:100050000C94A5010C94A5010C94A5010C94A50188
:100060000C9461060C94A501636F6D6D616E642044
:10007000307831313D464F52574152442C20307830
:1000800031323D524556455253455F484F4D453BF1
:10009000206E6F20552D7475726E00345744207099
:1000A000726F78793A204D312F4D33204C454654AC
:1000B0002C204D322F4D3420524947485400505285
:1000C0004F544F434F4C5F53594E433D3720746854
:1000D000656E20484F4D455F53594E433D36207263
:1000E00065717569726564004D6F746F72556E6FDE
:1000F0002070726F78792072656164793A2061644A
:1001000064726573733D30783038005B43414C490D
:1001100042524154494F4E5D20484F4D455F53591F
:100120004E43202D3E2063616C6962726174656488
:10013000202F204F5554424F554E44005B43414CB5
:100140004942524154494F4E5D20484F4D455F53FF
:10015000594E432072656A65637465643A206D6127
:10016000726B657220616273656E74005B49324325
:1001700020307830385D204F5554424F554E442042
:100180002D3E204D312F4D322F4D332F4D342046F3
:100190004F5257415244005B493243203078303847
:1001A0005D2052455455524E202D3E204D312F4D4D
:1001B000322F4D332F4D3420524556455253455F13
:1001C000484F4D45005B4D4F544F525D206469725E
:1001D000656374696F6E206368616E676564202D66
:1001E0003E20616C6C206368616E6E656C73204F9D
:1001F000464620666F72203132306D73005B43419A
:100200004C4942524154494F4E5D20636F6D6D61C0
:100210006E642072656A65637465643D005B493293
:100220004320307830385D2053544F50005B50529B
:100230004F544F434F4C5D20345744207632207347
:10024000796E6320636F6E6669726D6564005B4DE5
:100250004F544F525D20646972656374696F6E20FC
:10026000646561642D74696D6520636F6D706C6584
:100270007465005B5741544348444F475D206E6F9F
:100280002053656E736F72556E6F206B656570617C
:100290006C697665202D3E2053544F5000000000BD
:1002A00000240027002A0000000000250028002B61
:1002B00000000000002300260029000404040404B8
:1002C0000404040202020202020303030303030103
:1002D00002040810204080010204081020010204DA
:1002E00008102000000008000201000003040700BD
:1002F0000000000000000000800711241FBECFEFA7
:10030000D8E0DEBFCDBF11E0A0E0B1E0EEE9F5E15D
:1003100002C005900D92A832B107D9F722E0A8E2F9
:10032000B1E001C01D92A239B207E1F711E0CDE7BB
:10033000D1E004C02197FE010E94C70ACC37D10743
:10034000C9F70E94B9070C94CD0A0C9400008330C1
:1003500081F028F4813099F08230A9F00895873037
:10036000A9F08830C9F08430B1F4809180008F7D8D
:1003700003C0809180008F7780938000089584B5BA
:100380008F7784BD089584B58F7DFBCF8091B000B9
:100390008F778093B00008958091B0008F7DF9CF62
:1003A000CF93DF93282F30E0F901ED51FD4F849179
:1003B000F901E153FD4FD491F901E554FD4FC4918A
:1003C000CC23A1F081110E94A701EC2FF0E0EE0FE9
:1003D000FF1FEF54FD4FA591B491EC91ED2381E007
:1003E00090E009F480E0DF91CF91089580E090E003
:1003F000FACF1F93CF93DF93282F30E0F901ED510F
:10040000FD4F8491F901E153FD4FD491F901E55479
:10041000FD4FC491CC23A9F0162F81110E94A70192
:10042000EC2FF0E0EE0FFF1FE955FD4FA591B491C1
:100430008FB7F894EC91111108C0D095DE23DC93AE
:100440008FBFDF91CF911F910895DE2BF8CFCF930F
:10045000DF9390E0FC01E153FD4F249185549D4FC3
:10046000FC0184918823D1F090E0880F991FFC0152
:10047000E356FD4FA591B491FC01E955FD4FC5919F
:10048000D491623071F49FB7F8943C91822F80959B
:1004900083238C93E8812E2B28839FBFDF91CF91FC
:1004A00008958FB7F894EC912E2B2C938FBFF6CF35
:1004B0002FB7F8946091E5017091E6018091E70112
:1004C0009091E8012FBF0895E091C301F091C4011C
:1004D000309729F01092BE011092BD010994089541
:1004E000CF93DF93AC01E091C101F091C20130974D
:1004F000F1F09091C0018091BF019817C0F090E099
:10050000292F30E02617370754F4D901A75DBE4FD5
:10051000240F351FE90128812C939F5FF1CF1092A2
:10052000C0016093BF01CB01DF91CF910994DF91AE
:10053000CF910895AF92BF92CF92DF92EF92FF9248
:100540000F931F93CF93DF936C017B018B01040FFB
:10055000151FEB015E01AE18BF08C017D10759F097
:100560006991D601ED91FC910190F081E02DC601D9
:100570000995892B79F7C501DF91CF911F910F91D3
:10058000FF90EF90DF90CF90BF90AF900895FC0167
:10059000538D448D252F30E0842F90E0821B930BE8
:1005A000541710F0CF96089501970895FC01918D8E
:1005B000828D981761F0A28DAE0FBF2FB11D5D9691
:1005C0008C91928D9F5F9F73928F90E008958FEF33
:1005D0009FEF0895FC01918D828D981731F0828DE7
:1005E000E80FF11D858D90E008958FEF9FEF08953E
:1005F000FC01918D228D892F90E0805C9F4F821BA2
:1006000091098F739927089589EE91E00E94F8026D
:1006100021E0892B09F420E0822F089580E090E00A
:10062000892B29F00E94040381110C940000089585
:10063000FC01A48DA80FB92FB11DA35ABF4F2C9157
:10064000848D90E001968F739927848FA689B7894E
:100650002C93A089B1898C91837080648C93938D45
:10066000848D981306C00288F389E02D80818F7DE8
:1006700080830895EF92FF920F931F93CF93DF93A0
:10068000EC0181E0888F9B8D8C8D98131AC0E889CE
:10069000F989808185FF15C09FB7F894EE89FF899D
:1006A0006083E889F98980818370806480839FBF3B
:1006B00081E090E0DF91CF911F910F91FF90EF903B
:1006C0000895F62E0B8D10E00F5F1F4F0F7311274B
:1006D000E02E8C8D8E110CC00FB607FCFACFE88986
:1006E000F989808185FFF5CFCE010E941803F1CFF3
:1006F000EB8DEC0FFD2FF11DE35AFF4FF0829FB7FA
:10070000F8940B8FEA89FB8980818062CFCF0F93A9
:100710001F93CF93DF938C01D0E0C0E0F801EC0F82
:10072000FD1F6491662341F089EE91E00E943A0337
:10073000892B11F02196F2CFCE01DF91CF911F913D
:100740000F910895CF93DF93EC01888D8823B9F042
:10075000AA89BB89E889F9898C9185FD03C08081CC
:1007600086FD0DC00FB607FCF7CF8C9185FFF2CF49
:10077000808185FFEDCFCE010E941803E9CFDF9184
:10078000CF91089520916F01260F3327331F213217
:100790003105ECF420919301FC0190E080E02430DD
:1007A00069F082E00895A0916F012191AC01415B55
:1007B0005E4FA40FB52FB11D2C930196861798F3A9
:1007C00080916F01680F60936F0180E0089581E070
:1007D00008951092930181E0809395011092940105
:1007E00061E082E10E94F90161E083E10E94F90188
:1007F000E9EBF0E080818E7F808380818D7F808334
:1008000088E48093B80085E48093BC00089508953F
:10081000E091C0018091BF01E81730F4F0E0E75D9E
:10082000FE4F808190E008958FEF9FEF08959091A3
:10083000C0018091BF012FEF3FEF981748F4E92FD7
:10084000F0E0E75DFE4F208130E09F5F9093C001B4
:10085000C90108958091BF019091C001891B990B36
:100860000895CF93DF93CB01EA01642F0E94C20366
:10087000CE01DF91CF910895CF93DF931F92CDB733
:10088000DEB7698361E0CE0101960E94C20381E078
:1008900090E00F90DF91CF910895CF93DF9300D038
:1008A0001F92CDB7DEB78091000189838091CB0183
:1008B0008A838091CA018B8380912801E0E0833094
:1008C00010F4E0912801EC0FFD2FF11D618186E805
:1008D00092E00F900F900F90DF91CF910C943C0419
:1008E00090E080E00895882359F09FEE980F9230B1
:1008F00038F09DEF980F81E0953018F080E0089572
:1009000081E008951F93CF93DF939C01C091BF01B5
:100910009091C0012130310581F4C917E1F186E8D9
:1009200092E00E941704D82F8091C001C81709F1E6
:1009300086E892E00E941704F7CF2230310511F5C6
:100940002C2F291B330B22303105E4F086E892E08E
:100950000E941704D82F86E892E00E941704182FEF
:100960008091C001C81711F186E892E00E94170437
:10097000F7CFD05ED33078F4D0932801DF91CF91B8
:100980001F9108958091C001C81729F086E892E070
:100990000E941704F7CF8FEF8093CF018091CA0197
:1009A0008093CE0181E08093D101E8CFD53021F44E
:1009B00081E08093D001E2CFD093CF011093CE019C
:1009C000F1CF60E082E00E94F90160E083E00E94E4
:1009D000F90160E084E00E94F90160E085E00E9496
:1009E000F90160E086E00E94F90160E087E00E9482
:1009F000F90160E088E00E94F90160E08BE00E946C
:100A0000F9018091D401882361F01092D4010E94F1
:100A100058026093C5017093C6018093C7019093FB
:100A2000C8010895CF93C82F1092DF011092C90119
:100A30001092DA010E94E104C0930001CF91089561
:100A40000E94E10461E083E00E94F90161E085E039
:100A50000E94F90161E087E00E94F90161E08BE00A
:100A60000E94F90181E08093D4018093D3018093A7
:100A7000D20108950E94E10461E082E00E94F90140
:100A800061E084E00E94F90161E086E00E94F901E2
:100A900061E088E00E94F90181E08093D4018093B5
:100AA000D3011092D201089542E050E065E271E076
:100AB00089EE91E00C949A02CF93DF930E94870312
:100AC000EC010E9454058C0F9D1FDF91CF9108957A
:100AD000CF93DF9385ED8093BC0080914B01909183
:100AE0004C01A0914D01B0914E010796A11DB11D81
:100AF00023E0B695A795979587952A95D1F72091EC
:100B0000BC0024FD03C01092930136C040914B01FC
:100B100050914C0160914D0170914E01452B462B37
:100B2000472B69F30097A105B10541F02AE22A9508
:100B3000F1F700C00197A109B109E1CF80914A0105
:100B400091E0909349018823B9F0C091B800D09109
:100B5000BA008091BC008A7B8093BC0060E082E197
:100B60000E94F90160E083E10E94F9010E94E9031B
:100B7000D093BA00C093B800DF91CF9108951F922F
:100B80000F920FB60F9211242F933F938F939F9341
:100B9000AF93BF938091E5019091E601A091E701A9
:100BA000B091E8013091E40123E0230F2D3758F58F
:100BB0000196A11DB11D2093E4018093E50190935E
:100BC000E601A093E701B093E8018091E0019091E4
:100BD000E101A091E201B091E3010196A11DB11DD7
:100BE0008093E0019093E101A093E201B093E301CF
:100BF000BF91AF919F918F913F912F910F900FBE19
:100C00000F901F90189526E8230F0296A11DB11D85
:100C1000D2CF1F920F920FB60F9211242F933F93B2
:100C20004F935F936F937F938F939F93AF93BF93F4
:100C3000EF93FF9389EE91E00E941803FF91EF91EB
:100C4000BF91AF919F918F917F916F915F914F91E4
:100C50003F912F910F900FBE0F901F9018951F92EC
:100C60000F920FB60F9211242F938F939F93EF93B0
:100C7000FF93E091F901F091FA018081E091FF0189
:100C8000F091000282FD1BC09081809102028F5F73
:100C90008F7320910302821741F0E0910202F0E08D
:100CA000E751FE4F958F80930202FF91EF919F9144
:100CB0008F912F910F900FBE0F901F9018958081EC
:100CC000F4CF1F920F920FB60F9211242F933F93E0
:100CD0004F935F936F937F938F939F93AF93BF9344
:100CE000EF93FF938091B900887F803609F44AC062
:100CF000F0F5883209F4A7C018F5803109F49BC0DB
:100D0000B8F4882309F4F9C0883009F494C0FF913D
:100D1000EF91BF91AF919F918F917F916F915F9173
:100D20004F913F912F910F900FBE0F901F901895EC
:100D3000883109F488C0803251F78093920114C041
:100D4000803409F49DC040F48033B9F38833F9F658
:100D50008093920185ECB0C0803509F485C0883558
:100D600009F496C0883499F60E946805D0CF883976
:100D700009F48CC038F5883729F050F4883611F022
:100D8000803729F683E0809393011092910157C038
:100D9000883809F47BC0803919F0803809F0B7CF62
:100DA00080919101803208F071C0E091910181E061
:100DB0008E0F809391018091BB00F0E0EF58FE4FC1
:100DC00080833DC0803B39F0E0F4803A09F479C07B
:100DD000883A09F09CCF84E08093930110927001CF
:100DE00010926F01E091BB01F091BC0109958091D7
:100DF0006F0181110FC081E080936F0110924F014C
:100E000009C0803C09F4A6CF883C09F4A3CF883BF5
:100E100009F07DCFE091700181E08E0F8093700129
:100E2000F0E0E15BFE4F80818093BB009091700108
:100E300080916F0129C08091B8018093BB0085EC3F
:100E40008093BC0064CF9091B7018091B601981750
:100E500058F5E091B70181E08E0F8093B701F0E083
:100E6000EA56FE4F8081E9CFE091B70181E08E0F15
:100E70008093B7018091BB00F0E0EA56FE4F80837B
:100E80009091B7018091B6019817C8F285E8D8CF44
:100E9000E091B70181E08E0F8093B7018091BB0094
:100EA000F0E0EA56FE4F80838091950181115CCF7E
:100EB00081E08093940184EA8093BC0010929301B6
:100EC00026CF85EC8093BC00109293018091910114
:100ED000803230F4E0919101F0E0EF58FE4F108243
:100EE0006091910170E0E091B901F091BA0181E760
:100EF00091E00995109291010ACF1092920134CF9E
:100F0000E9EEF1E01382128288EE93E0A0E0B0E017
:100F100084839583A683B78325E031E031832083E2
:100F200025EC30E03587248724EC30E037872687AE
:100F300020EC30E0318B208B21EC30E0338B228BA6
:100F400022EC30E0358B248B26EC30E0378B268B7F
:100F5000118E128E138E148EE6E8F2E01382128246
:100F600084839583A683B78387E191E0918380830F
:100F70000895CF93DF93CDB7DEB7A1970FB6F8945E
:100F8000DEBF0FBECDBF789484B5826084BD84B5CA
:100F9000816084BD85B5826085BD85B5816085BD74
:100FA00080916E00816080936E001092810080912C
:100FB00081008260809381008091810081608093B4
:100FC0008100809180008160809380008091B100D9
:100FD00084608093B1008091B00081608093B00004
:100FE00080917A00846080937A0080917A00826098
:100FF00080937A0080917A00816080937A0080915A
:101000007A00806880937A001092C100E091F90123
:10101000F091FA0182E08083E091F501F091F60110
:101020001082E091F701F091F8018FEC808310922B
:101030000102E091FD01F091FE0186E08083E091E4
:10104000FB01F091FC01808180618083E091FB01D4
:10105000F091FC01808188608083E091FB01F09138
:10106000FC01808180688083E091FB01F091FC01AC
:1010700080818F7D808361E082E00E94270261E0B1
:1010800083E00E94270261E084E00E94270261E081
:1010900085E00E94270261E086E00E94270261E06D
:1010A00087E00E94270261E088E00E94270261E059
:1010B0008BE00E94270262E089E00E94270262E042
:1010C0008AE00E9427020E94E1041092CC01109253
:1010D000CD0188E00E9412051092C0011092BF015C
:1010E0001092BE011092BD010E94E90384E692E0D5
:1010F0009093BC018093BB0180E792E09093BA018A
:101100008093B90180E18093BA0082E894E09093E3
:10111000C2018093C1018DE494E09093C401809357
:10112000C3010E9458026093DB017093DC0180933D
:10113000DD019093DE0188EE90E00E945C058EEB6D
:1011400090E00E945C058BE990E00E945C0588E6D7
:1011500090E00E945C058AE0882E912CA12CB12C95
:1011600090E0C92E90E0D92E01E022E0722EF89492
:10117000F090D1018091D0011091CF01E090CE018B
:101180001092D1011092D0017894882389F00E94A6
:1011900058026093DB017093DC018093DD01909332
:1011A000DE018091CD0181111FC088E00E941205EF
:1011B000FF2009F445C05090CB01812F0E94730499
:1011C000F82E151117C08091CA01E81213C0FF2034
:1011D000B9F10E9458026093DB017093DC018093A7
:1011E000DD019093DE012CC08091CC018111E0CF14
:1011F00087E0DCCF1093CB01E092CA010E94580235
:101200006093DB017093DC018093DD019093DE013C
:1012100085E0FF2099F0173061F41092CC01009323
:10122000CD0188E00E9412058DE292E00E945C05EB
:1012300007C08091CD0181113CC088E00E94120559
:101240000E9458021B012C018091DF01882329F1A3
:10125000833019F18091DB019091DC01A091DD01D7
:10126000B091DE01A2019101281B390B4A0B5B0BE7
:10127000DA01C901813D9740A105B10508F405C116
:101280000E94E1041092DF011092DA0184E0809361
:10129000000183E792E00E945C05C114D10409F4C7
:1012A00066CF0E940403882309F461CF0E940000E6
:1012B0005ECF163029F51092CC0187E00E9412050E
:1012C0000E9458026093DB017093DC018093DD0182
:1012D0009093DE0189E00E94D001019719F08CE320
:1012E00091E0A4CF8AE00E94D0010197C1F710924B
:1012F000D5010093CC01109200018BE091E096CFD4
:101300008091CC01111109C0811101C017E0812F1A
:101310000E9412058DE192E089CF811130C087E0F3
:101320000E9412058DEF91E00E948703212F30E08B
:1013300050E040E019A27E0181E2E80EF11CCA01F2
:10134000B901A50194010E94A50A605DF7016293AD
:101350007F01211531054105510589F7309761F06D
:1013600001900020E9F73197AF014E195F09B701ED
:1013700089EE91E00E949A020E94540561CF1330D9
:1013800059F48091DF018093C9011093DF010E941D
:10139000E1047092000154CF143081F48091C901AE
:1013A000811101C081E18093DF0191E0823109F078
:1013B00090E09093D5010093000142CF662463949E
:1013C000123109F0612CE090DA01EE2031F0EE24C8
:1013D000E3948091D5018611E12CF090D301FF2098
:1013E00019F0F090D201F6248091D401811119C036
:1013F0000E9458022091C5013091C6014091C70159
:101400005091C8011B012C01221A330A440A550AC3
:10141000B201A10181E0483751056105710508F06D
:1014200080E0E1101DC0F110F82E1093DF01109341
:10143000C9016092D50100930001FF2099F00E943C
:10144000E1040093DA010E9458026093D601709380
:10145000D7018093D8019093D90185EC91E0E6CE35
:10146000F12CE3CFEE2019F00E94E104E9CE1092B6
:10147000DA01123129F40E94200587E991E0D6CEE5
:101480000E943A058CE691E0D1CE8091DA01882362
:10149000D9F00E94E1048091D6019091D701A091EA
:1014A000D801B091D901281A390A4A0A5B0A48E7DB
:1014B000241631044104510408F4EFCE1092DA01ED
:1014C0008EE492E00E945C0589E00E94D0017C01DC
:1014D0008AE00E94D0011091D501EF2849F5892BAF
:1014E000F9F00E94E10461E0112371F083E00E94B1
:1014F000F90161E087E00E94F9010093D4010093B3
:10150000D3011093D201C9CE84E00E94F90161E0B9
:1015100088E0F1CF82E00E94F90161E086E0EBCF44
:10152000112319F00E942005B8CE0E943A05B5CECD
:10153000892BB1F70E94E10461E0112359F385E0A2
:101540000E94F90161E08BE0D6CFA1E21A2EAA1B1E
:10155000BB1BFD010DC0AA1FBB1FEE1FFF1FA21763
:10156000B307E407F50720F0A21BB30BE40BF50B60
:10157000661F771F881F991F1A9469F760957095E9
:10158000809590959B01AC01BD01CF010895EE0FB0
:0E159000FF1F0590F491E02D0994F894FFCF11
:10159E0008000000003A039A02C702A203F802D61E
:1015AE0002EA02000000003C043104700407042A21
:0815BE0004170408040D0A00E3
:00000001FF
