:100000000C9406010C942E010C942E010C942E01DC
:100010000C942E010C942E010C942E010C942E01A4
:100020000C942E010C942E010C942E010C942E0194
:100030000C942E010C942E010C942E010C942E0184
:100040000C94F8040C942E010C9468050C94420551
:100050000C942E010C942E010C942E010C942E0164
:100060000C949A050C942E01484F4D455F53594E00
:10007000433D362072657175697265643B20626F1D
:100080006F74207374617475733D372043414C491C
:1000900042524154494F4E5F524551554952454491
:1000A000004D6F746F72556E6F2070726F7879208B
:1000B00072656164793A20616464726573733D307E
:1000C000783038005B43414C4942524154494F4ECD
:1000D0005D20484F4D455F53594E43202D3E2063D0
:1000E000616C69627261746564202F204F555442BF
:1000F0004F554E44005B43414C4942524154494F95
:100100004E5D20484F4D455F53594E432072656AFE
:1001100065637465643A206D61726B65722061621B
:1001200073656E74005B49324320307830385D204F
:10013000434F4E54494E5545005B49324320307879
:1001400030385D205455524E5F41524F554E442039
:100150003730306D73005B43414C49425241544942
:100160004F4E5D20636F6D6D616E642072656A65D0
:10017000637465643D005B49324320307830385DFC
:100180002053544F50005B5741544348444F475D00
:10019000206E6F2053656E736F72556E6F206B65A6
:1001A0006570616C697665202D3E2053544F500078
:1001B00000000000240027002A00000000002500A5
:1001C00028002B0000000000230026002900040462
:1001D00004040404040402020202020203030303EF
:1001E00003030102040810204080010204081020CB
:1001F00001020408102000000008000201000003B2
:1002000004070000000000000000B90611241FBE12
:10021000CFEFD8E0DEBFCDBF11E0A0E0B1E0EAE46F
:10022000F2E102C005900D92A832B107D9F722E0A1
:10023000A8E2B1E001C01D92A938B207E1F711E0D0
:10024000C6E0D1E004C02197FE010E941D09C5301F
:10025000D107C9F70E94F2060C9423090C94000000
:10026000833081F028F4813099F08230A9F008952C
:100270008730A9F08830C9F08430B1F480918000D3
:100280008F7D03C0809180008F77809380000895D8
:1002900084B58F7784BD089584B58F7DFBCF809121
:1002A000B0008F778093B00008958091B0008F7D6B
:1002B000F9CFCF93DF93282F30E0F901EA50FE4FBA
:1002C0008491F901EE51FE4FD491F901E253FE4FB2
:1002D000C491CC23A1F081110E943001EC2FF0E0F9
:1002E000EE0FFF1FEC53FE4FA591B491EC91ED235F
:1002F00081E090E009F480E0DF91CF91089580E003
:1003000090E0FACF1F93CF93DF93282F30E0F901CD
:10031000EA50FE4F8491F901EE51FE4FD491F9015C
:10032000E253FE4FC491CC23A9F0162F81110E94F5
:100330003001EC2FF0E0EE0FFF1FE654FE4FA591C9
:10034000B4918FB7F894EC91111108C0D095DE23C9
:10035000DC938FBFDF91CF911F910895DE2BF8CFF3
:10036000CF93DF9390E0FC01EE51FE4F2491825336
:100370009E4FFC0184918823D1F090E0880F991F53
:10038000FC01E055FE4FA591B491FC01E654FE4FEF
:10039000C591D491623071F49FB7F8943C91822F4B
:1003A000809583238C93E8812E2B28839FBFDF9138
:1003B000CF9108958FB7F894EC912E2B2C938FBF8B
:1003C000F6CF2FB7F8946091DC017091DD01809138
:1003D000DE019091DF012FBF0895E091C301F091FC
:1003E000C401309729F01092BE011092BD0109940A
:1003F0000895CF93DF93AC01E091C101F091C20168
:100400003097F1F09091C0018091BF019817C0F032
:1004100090E0292F30E02617370754F4D901A75D63
:10042000BE4F240F351FE90128812C939F5FF1CF28
:100430001092C0016093BF01CB01DF91CF9109946D
:10044000DF91CF910895AF92BF92CF92DF92EF925A
:10045000FF920F931F93CF93DF936C017B018B016E
:10046000040F151FEB015E01AE18BF08C017D107BE
:1004700059F06991D601ED91FC910190F081E02D48
:10048000C6010995892B79F7C501DF91CF911F919D
:100490000F91FF90EF90DF90CF90BF90AF900895B5
:1004A000FC01538D448D252F30E0842F90E0821B7A
:1004B000930B541710F0CF96089501970895FC01FF
:1004C000918D828D981761F0A28DAE0FBF2FB11D57
:1004D0005D968C91928D9F5F9F73928F90E00895AF
:1004E0008FEF9FEF0895FC01918D828D981731F069
:1004F000828DE80FF11D858D90E008958FEF9FEFBD
:100500000895FC01918D228D892F90E0805C9F4F92
:10051000821B91098F739927089580EE91E00E94C4
:10052000810221E0892B09F420E0822F089580E0E8
:1005300090E0892B29F00E948D0281110C9400001B
:100540000895FC01A48DA80FB92FB11DA35ABF4F68
:100550002C91848D90E001968F739927848FA689C2
:10056000B7892C93A089B1898C91837080648C9316
:10057000938D848D981306C00288F389E02D8081C5
:100580008F7D80830895EF92FF920F931F93CF93F7
:10059000DF93EC0181E0888F9B8D8C8D98131AC0BE
:1005A000E889F989808185FF15C09FB7F894EE89A5
:1005B000FF896083E889F989808183708064808302
:1005C0009FBF81E090E0DF91CF911F910F91FF904D
:1005D000EF900895F62E0B8D10E00F5F1F4F0F73F5
:1005E0001127E02E8C8D8E110CC00FB607FCFACFB0
:1005F000E889F989808185FFF5CFCE010E94A102AB
:10060000F1CFEB8DEC0FFD2FF11DE35AFF4FF08280
:100610009FB7F8940B8FEA89FB8980818062CFCFE6
:100620000F931F93CF93DF938C01D0E0C0E0F801CC
:10063000EC0FFD1F6491662341F080EE91E00E9473
:10064000C302892B11F02196F2CFCE01DF91CF9119
:100650001F910F910895CF93DF93EC01888D88232C
:10066000B9F0AA89BB89E889F9898C9185FD03C015
:10067000808186FD0DC00FB607FCF7CF8C9185FFFA
:10068000F2CF808185FFEDCFCE010E94A102E9CF9C
:10069000DF91CF91089520916F01260F3327331FEB
:1006A00021323105ECF420919301FC0190E080E0CF
:1006B000243069F082E00895A0916F012191AC018E
:1006C000415B5E4FA40FB52FB11D2C930196861789
:1006D00098F380916F01680F60936F0180E0089537
:1006E00081E008951092930181E08093950110922A
:1006F000940161E082E10E94820161E083E10E9455
:100700008201E9EBF0E080818E7F808380818D7FA4
:10071000808388E48093B80085E48093BC000895CA
:100720000895E091C0018091BF01E81730F4F0E036
:10073000E75DFE4F808190E008958FEF9FEF089571
:100740009091C0018091BF012FEF3FEF981748F4BF
:10075000E92FF0E0E75DFE4F208130E09F5F90934E
:10076000C001C90108958091BF019091C001891B0A
:10077000990B0895CF93DF93CB01EA01642F0E9478
:100780004B03CE01DF91CF910895CF93DF931F925A
:10079000CDB7DEB7698361E0CE0101960E944B03BD
:1007A00081E090E00F90DF91CF910895CF93DF9398
:1007B00000D01F92CDB7DEB7809100018983809170
:1007C000C7018A838091C6018B8380912801E0E074
:1007D000833010F4E0912801EC0FFD2FF11D6181B1
:1007E0008DE792E00F900F900F90DF91CF910C94D6
:1007F000C50390E080E008951F93CF93DF939C01A1
:10080000C091BF019091C0012130310581F4C91719
:10081000E1F18DE792E00E94A003D82F8091C00102
:10082000C81709F18DE792E00E94A003F7CF2230AC
:10083000310511F52C2F291B330B22303105E4F043
:100840008DE792E00E94A003D82F8DE792E00E94EE
:10085000A003182F8091C001C81711F18DE792E015
:100860000E94A003F7CFD05ED33078F4D093280154
:10087000DF91CF911F9108958091C001C81729F091
:100880008DE792E00E94A003F7CF8FEF8093CA011B
:100890008091C6018093C90181E08093CC01E8CFAB
:1008A000D53021F481E08093CB01E2CFD093CA010F
:1008B0001093C901F1CF60E083E00E94820160E003
:1008C00085E00E94820160E086E00E94820160E093
:1008D0008BE00C948201CF93C82F1092D601109216
:1008E000C5011092D1010E945B04C0930001CF9119
:1008F00008950E945B0461E086E00E94820161E04D
:1009000085E00C9482010E945B0461E083E00E9418
:10091000820161E085E00C94820142E050E065E2F2
:1009200071E080EE91E00C942302CF93DF930E945C
:100930001003EC010E948D048C0F9D1FDF91CF915D
:100940000895CF93DF9385ED8093BC0080914B0198
:1009500090914C01A0914D01B0914E010796A11DBF
:10096000B11D23E0B695A795979587952A95D1F760
:100970002091BC0024FD03C01092930136C0409129
:100980004B0150914C0160914D0170914E01452BEE
:10099000462B472B69F30097A105B10541F02AE2E8
:1009A0002A95F1F700C00197A109B109E1CF809123
:1009B0004A0191E0909349018823B9F0C091B800B1
:1009C000D091BA008091BC008A7B8093BC0060E02B
:1009D00082E10E94820160E083E10E9482010E9424
:1009E0007203D093BA00C093B800DF91CF910895FD
:1009F0001F920F920FB60F9211242F933F938F9354
:100A00009F93AF93BF938091DC019091DD01A09102
:100A1000DE01B091DF013091DB0123E0230F2D37A0
:100A200058F50196A11DB11D2093DB018093DC01D7
:100A30009093DD01A093DE01B093DF018091D70197
:100A40009091D801A091D901B091DA010196A11D30
:100A5000B11D8093D7019093D801A093D901B09391
:100A6000DA01BF91AF919F918F913F912F910F909C
:100A70000FBE0F901F90189526E8230F0296A11D18
:100A8000B11DD2CF1F920F920FB60F9211242F9348
:100A90003F934F935F936F937F938F939F93AF9306
:100AA000BF93EF93FF9380EE91E00E94A102FF912C
:100AB000EF91BF91AF919F918F917F916F915F91D6
:100AC0004F913F912F910F900FBE0F901F9018954F
:100AD0001F920F920FB60F9211242F938F939F9313
:100AE000EF93FF93E091F001F091F1018081E091AB
:100AF000F601F091F70182FD1BC090818091F90110
:100B00008F5F8F732091FA01821741F0E091F90114
:100B1000F0E0E052FE4F958F8093F901FF91EF9145
:100B20009F918F912F910F900FBE0F901F9018954E
:100B30008081F4CF1F920F920FB60F9211242F9342
:100B40003F934F935F936F937F938F939F93AF9355
:100B5000BF93EF93FF938091B900887F803609F4AB
:100B60004AC0F0F5883209F4A7C018F5803109F4BD
:100B70009BC0B8F4882309F4F9C0883009F494C004
:100B8000FF91EF91BF91AF919F918F917F916F9165
:100B90005F914F913F912F910F900FBE0F901F903B
:100BA0001895883109F488C0803251F780939201FA
:100BB00014C0803409F49DC040F48033B9F3883305
:100BC000F9F68093920185ECB0C0803509F485C0B8
:100BD000883509F496C0883499F60E94A104D0CFD4
:100BE000883909F48CC038F5883729F050F48836F4
:100BF00011F0803729F683E08093930110929101E0
:100C000057C0883809F47BC0803919F0803809F062
:100C1000B7CF80919101803208F071C0E0919101CD
:100C200081E08E0F809391018091BB00F0E0EF583E
:100C3000FE4F80833DC0803B39F0E0F4803A09F4F8
:100C400079C0883A09F09CCF84E080939301109298
:100C5000700110926F01E091BB01F091BC01099508
:100C600080916F0181110FC081E080936F0110921C
:100C70004F0109C0803C09F4A6CF883C09F4A3CFFA
:100C8000883B09F07DCFE091700181E08E0F809369
:100C90007001F0E0E15BFE4F80818093BB0090919A
:100CA000700180916F0129C08091B8018093BB00D1
:100CB00085EC8093BC0064CF9091B7018091B60120
:100CC000981758F5E091B70181E08E0F8093B70136
:100CD000F0E0EA56FE4F8081E9CFE091B70181E074
:100CE0008E0F8093B7018091BB00F0E0EA56FE4F73
:100CF00080839091B7018091B6019817C8F285E87A
:100D0000D8CFE091B70181E08E0F8093B701809139
:100D1000BB00F0E0EA56FE4F80838091950181117F
:100D20005CCF81E08093940184EA8093BC001092B0
:100D3000930126CF85EC8093BC00109293018091A3
:100D40009101803230F4E0919101F0E0EF58FE4FD4
:100D500010826091910170E0E091B901F091BA01C7
:100D600081E791E00995109291010ACF10929201CA
:100D700034CFE0EEF1E01382128288EE93E0A0E03F
:100D8000B0E084839583A683B78325E031E0318387
:100D9000208325EC30E03587248724EC30E037874A
:100DA000268720EC30E0318B208B21EC30E0338B38
:100DB000228B22EC30E0358B248B26EC30E0378B15
:100DC000268B118E128E138E148EEDE7F2E01382B5
:100DD000128284839583A683B78387E191E0918310
:100DE00080830895CF93DF93CDB7DEB7A1970FB679
:100DF000F894DEBF0FBECDBF789484B5826084BD09
:100E000084B5816084BD85B5826085BD85B581600E
:100E100085BD80916E00816080936E00109281008C
:100E20008091810082608093810080918100816047
:100E30008093810080918000816080938000809108
:100E4000B10084608093B1008091B0008160809394
:100E5000B00080917A00846080937A0080917A005B
:100E6000826080937A0080917A00816080937A001A
:100E700080917A00806880937A001092C100E0919E
:100E8000F001F091F10182E08083E091EC01F091BA
:100E9000ED011082E091EE01F091EF018FEC808383
:100EA0001092F801E091F401F091F50186E0808361
:100EB000E091F201F091F301808180618083E09103
:100EC000F201F091F301808188608083E091F2016A
:100ED000F091F301808180688083E091F201F091CC
:100EE000F30180818F7D808361E083E00E94B00107
:100EF00061E085E00E94B00161E086E00E94B001FF
:100F000061E08BE00E94B00162E089E00E94B001E4
:100F100062E08AE00E94B0010E945B041092C80166
:100F200087E00E946B041092C0011092BF011092E2
:100F3000BE011092BD010E9472038DEE91E090936C
:100F4000BC018093BB0189EF91E09093BA0180933B
:100F5000B90180E18093BA008CEF93E09093C201D5
:100F60008093C10186ED93E09093C4018093C30107
:100F70000E94E1016093D2017093D3018093D40168
:100F80009093D50181EA90E00E94950488E690E074
:100F90000E9495047E0120E2E20EF11C80E0C82E42
:100FA00080E0D82E01E092E0B92E24E0A22EF89441
:100FB0008090CC018091CB011091CA019090C90121
:100FC0001092CC011092CB017894882389F00E9472
:100FD000E1016093D2017093D3018093D401909387
:100FE000D5018091C801811103C087E00E946B0484
:100FF000882041F18091C701181311C08091C6016A
:1010000098120DC01730F0F40E94E1016093D201F4
:101010007093D3018093D4019093D50113C01093A2
:10102000C7019092C6010E94E1016093D2017093C2
:10103000D3018093D4019093D5011730D8F185E086
:101040000E946B040E94E1012091D601222331F11C
:10105000233021F14090D2015090D3016090D4010F
:101060007090D5019B01AC01241935094609570937
:1010700029013A0131ED431637E05306610471044A
:1010800008F4A5C00E945B041092D6011092D10111
:10109000A092000186E891E00E949504C114D10459
:1010A00009F485CF0E948D02882309F480CF0E9425
:1010B00000007DCF163029F51092C80187E00E940C
:1010C0006B040E94E1016093D2017093D30180937D
:1010D000D4019093D50189E00E945901019729F02C
:1010E00085EF90E00E949504ADCF8AE00E945901FF
:1010F0000197B1F70093C8011092000184EC90E0D1
:10110000F1CF8091C801111109C0811101C017E010
:10111000812F0E946B0486E791E0E4CF81111AC011
:1011200087E00E946B0486E591E00E94100319A2FB
:10113000105D18A3F70101900020E9F73197AF0186
:101140004E195F09B70180EE91E00E9423020E94D0
:101150008D0478CF133069F48091D6018093C50156
:101160001093D6011092D1010E945B04B09200014D
:1011700069CF143061F48091C501811101C081E013
:101180008093D6011092D101009300015BCF1093A0
:10119000D6011093C50100930001123089F4009329
:1011A000D1010E94E1016093CD017093CE01809343
:1011B000CF019093D0010E94790489E391E092CF0E
:1011C0001092D1010E94830485E291E08BCF20919F
:1011D000D1012223B1F04090CD015090CE0160901A
:1011E000CF017090D00164197509860997096C3B8D
:1011F00072408105910518F40E9479044FCF109236
:10120000D10189E00E9459014C018AE00E945901F4
:10121000892861F4892B39F00E945B0461E085E044
:101220000E9482013BCF0E94830438CF892BD9F7DB
:101230000E945B0461E083E0F3CFEE0FFF1F059097
:0A124000F491E02D0994F894FFCF1B
:10124A000700000000C302230250022B0381025F41
:10125A0002730200000000C503BA03F9039003B346
:08126A0003A00391030D0A002B
:00000001FF
