:100000000C941B020C9443020C9443020C94430284
:100010000C9443020C9443020C9443020C9443024C
:100020000C9443020C9443020C9443020C9443023C
:100030000C9443020C9443020C9443020C9443022C
:100040000C94D60C0C9443020C94460D0C94200D89
:100050000C9443020C9443020C9443020C9443020C
:100060000C94780D0C9443025B4932432030783075
:10007000395D20696E76616C696420636F6D6D61B6
:100080006E64202D3E2073616665204F4646005BFE
:1000900049324320307830395D20444548554D4938
:1000A00044494659202D3E2066616E20707265736A
:1000B00074617274005B49324320307830395D20BE
:1000C00048554D4944494659202D3E204130204C49
:1000D0004544204F4E005B49324320307830395D33
:1000E0002053544F50202D3E204C454473204F4602
:1000F00046005B49324320307830395D206D616CB9
:10010000666F726D65642041352F7365712F636D65
:10011000642F435243202D3E204C454473204F46CC
:1001200046005B5441534B5D20444548554D49447E
:1001300049465920444F4E45005B5441534B5D2086
:1001400070656C74696572204F46462C2066616E3E
:1001500020636F6F6C646F776E005B5441534B5D2F
:100160002070656C74696572204F4E005B5441537A
:100170004B5D2048554D494449465920444F4E4512
:10018000004552524F522025730052455455524E4D
:1001900020257300444F4E452025730044454855A3
:1001A0004D2025730048554D494449465920257333
:1001B000004D4F56452025730049444C452025737A
:1001C000005425752E257543204825752E25752547
:1001D0002500542D25752E257543204825752E257F
:1001E000752525004C43442070726F78793A20447D
:1001F000353D5344412044343D53434C2C2050431F
:1002000046383537343D307832372C2044312F3161
:10021000304220646973706C617900444854323212
:100220002070726F78793A206C6F63616C20444162
:1002300054413D44323B204C434420666972737400
:1002400020726F772075736573206C6F63616C200B
:1002500073616D706C6500436F6E74726F6C3A20E1
:1002600041352F7365712F636D642F4352432034E2
:10027000423B20737461747573206C6F67696361AE
:100280006C203642004163747561746F72556E6FF5
:100290002070726F78792072656164793A204134F8
:1002A0002F413520736C6176653D30783039002000
:1002B0007A6F6E653D002073746174653D005B4428
:1002C0004953504C41595D206163636570746564A6
:1002D000207365713D005B444953504C41595D208A
:1002E000696E76616C69642031302D6279746520A5
:1002F0006672616D65206469736361726465643BF5
:100300002072656C61797320756E6368616E6765D4
:1003100064005B444953504C41595D205354414C57
:1003200045203E3330730025004320483D005B44A8
:10033000485432325D204163747561746F72556E3A
:100340006F20443220543D005B44485432325D20DB
:100350004163747561746F72556E6F204432207200
:10036000656164206572726F723B2072656C6179A1
:100370007320756E6368616E676564005B4C43440F
:100380005D20443520534441202F204434205343E2
:100390004C20726561647920616464726573733D99
:1003A0003078005B4C43445D2044352F443420308A
:1003B0007832372F30783346206E6F742072657331
:1003C000706F6E64696E673B2072656C6179206343
:1003D0006F6E74696E75657300000000002400275D
:1003E000002A0000000000250028002B000000006B
:1003F00008000201000003040700000000000000E4
:100400000000000000230026002900040404040466
:1004100004040402020202020203030303030301B1
:100420000204081020408001020408102001020488
:1004300008102000970E11241FBECFEFD8E0DEBFBA
:10044000CDBF11E0A0E0B1E0E8E4F1E302C0059027
:100450000D92AE36B107D9F723E0AEE6B1E001C0A8
:100460001D92A632B207E1F712E0CBE1D2E004C060
:100470002197FE010E949C18CA31D107C9F70E943A
:10048000F00E0C94A2180C940000CF92DF92EF9221
:10049000FF92CF93DF93B0911A03A0E08111AB2FAD
:1004A00080911B0390E0880F991FAC014F5F5B4F59
:1004B000C0902003D0902103E0902203F09023030A
:1004C00030E020E0FA01C591D491E881B90190E0D3
:1004D00080E0EB23EA130AC02F5F3F4F6C157D05C8
:1004E0008E059F0578F36FEF7FEFCB01DF91CF9102
:1004F000FF90EF90DF90CF900895833081F028F443
:10050000813099F08230A9F008958730A9F08830C1
:10051000C9F08430B1F4809180008F7D03C0809158
:1005200080008F7780938000089584B58F7784BD95
:10053000089584B58F7DFBCF8091B0008F77809335
:10054000B00008958091B0008F7DF9CFCF93DF93F5
:10055000282F30E0F901E351FC4F8491F901E15E6D
:10056000FB4FD491F901E55FFB4FC491CC23A1F07F
:1005700081110E947D02EC2FF0E0EE0FFF1FEF5F74
:10058000FB4FA591B491EC91ED2381E090E009F44B
:1005900080E0DF91CF91089580E090E0FACF1F9343
:1005A000CF93DF93282F30E0F901E351FC4F849182
:1005B000F901E15EFB4FD491F901E55FFB4FC49176
:1005C000CC23A9F0162F81110E947D02EC2FF0E0C0
:1005D000EE0FFF1FED51FC4FA591B4918FB7F8942A
:1005E000EC91111108C0D095DE23DC938FBFDF9111
:1005F000CF911F910895DE2BF8CFCF93DF9390E03A
:10060000FC01E15EFB4F2491855F9B4FFC018491CF
:100610008823D1F090E0880F991FFC01E752FC4F2E
:10062000A591B491FC01ED51FC4FC591D49162307C
:1006300071F49FB7F8943C91822F809583238C931B
:10064000E8812E2B28839FBFDF91CF9108958FB72C
:10065000F894EC912E2B2C938FBFF6CF3FB7F894E4
:100660008091650290916602A0916702B091680244
:1006700026B5A89B05C02F3F19F00196A11DB11DFD
:100680003FBFBA2FA92F982F8827BC01CD01620F39
:10069000711D811D911D42E0660F771F881F991FF4
:1006A0004A95D1F708958F929F92AF92BF92CF92C1
:1006B000DF92EF92FF924B015C010E942E036B01CF
:1006C0007C010E942E036C197D098E099F09683EEA
:1006D000734081059105A8F321E0821A9108A108D1
:1006E000B10888EEC80E83E0D81EE11CF11C81140D
:1006F0009104A104B10429F7FF90EF90DF90CF900F
:10070000BF90AF909F908F9008952FB7F89460910D
:1007100061027091620280916302909164022FBF26
:100720000895CF92DF92EF92FF920F931F93CF9392
:10073000DF93CDB7DEB7C054D1400FB6F894DEBF1B
:100740000FBECDBF0E94850300911C0310911D03B5
:1007500020911E0330911F036B017C01C01AD10A46
:10076000E20AF30A97018601003D17402105310591
:1007700090F480912403C05CDE4F0FB6F894DEBF86
:100780000FBECDBFDF91CF911F910F91FF90EF90E2
:10079000DF90CF90089560931C0370931D038093A6
:1007A0001E0390931F0310921703109216031092CA
:1007B0001503109214031092130362E08091180342
:1007C0000E94FD0261E070E080E090E00E9453032F
:1007D00061E0809118030E94FD0260E0809118039F
:1007E0000E94CF02809119038551823020F58BE25F
:1007F00091E10197F1F762E0809118030E94FD02F8
:100800008091250390E08230910538F0880F991F80
:10081000880F991F05970197F1F7F89480E00E94DF
:1008200045026F3F7F4F8F4F9F4F61F4109224031B
:10083000789480E0A0CF64E170E080E090E00E94D6
:100840005303D9CF81E00E9445026F3F7F4F8F4F06
:100850009F4F61F38E010F5F1F4F6E012FEBC21A86
:100860002EEFD20A780180E00E944502F7016083F2
:1008700071838283938381E00E944502F701648340
:10088000758386839783F8E0EF0EF11CEC14FD046A
:1008900051F7789430E020E0F801C080D180E28008
:1008A000F3804481558166817781FFEFCF16DF06A3
:1008B000EF06FF0631F04F3F8FEF580768077807C4
:1008C00019F410922403B5CFF90183E0F595E7956B
:1008D0008A95E1F7ED5EFC4F8081880FC416D5063E
:1008E000E606F70610F180832F5F3F4F085F1F4F2A
:1008F0002832310589F64091170320911303809126
:100900001403280F3327331F80911503280F311D3F
:1009100080911603820F932F911D9927481719066E
:1009200081F681E08093240326CF8160DCCFE091C3
:100930001602F0911702309729F0109211021092CE
:10094000100209940895CF93DF93AC01E091140253
:10095000F09115023097F1F09091130280911202FC
:100960009817C0F090E0292F30E02617370754F48D
:10097000D901A458BE4F240F351FE90128812C93BB
:100980009F5FF1CF1092130260931202CB01DF91AF
:10099000CF910994DF91CF910895AF92BF92CF92FA
:1009A000DF92EF92FF920F931F93CF93DF936C012F
:1009B0007B018B01040F151FEB015E01AE18BF0810
:1009C000C017D10759F06991D601ED91FC910190C2
:1009D000F081E02DC6010995892B79F7C501DF91DA
:1009E000CF911F910F91FF90EF90DF90CF90BF902C
:1009F000AF900895FC01538D448D252F30E0842F56
:100A000090E0821B930B541710F0CF960895019736
:100A10000895FC01918D828D981761F0A28DAE0F23
:100A2000BF2FB11D5D968C91928D9F5F9F73928FAA
:100A300090E008958FEF9FEF0895FC01918D828DD6
:100A4000981731F0828DE80FF11D858D90E00895A3
:100A50008FEF9FEF0895FC01918D228D892F90E0FB
:100A6000805C9F4F821B91098F73992708958AE6B6
:100A700092E00E942B0521E0892B09F420E0822FCF
:100A8000089580E090E0892B29F00E9437058111BC
:100A90000C9400000895FC01A48DA80FB92FB11D7E
:100AA000A35ABF4F2C91848D90E001968F739927A4
:100AB000848FA689B7892C93A089B1898C91837082
:100AC00080648C93938D848D981306C00288F3897B
:100AD000E02D80818F7D80830895EF92FF920F93A8
:100AE0001F93CF93DF93EC0181E0888F9B8D8C8DDA
:100AF00098131AC0E889F989808185FF15C09FB7CE
:100B0000F894EE89FF896083E889F9898081837090
:100B1000806480839FBF81E090E0DF91CF911F913F
:100B20000F91FF90EF900895F62E0B8D10E00F5F60
:100B30001F4F0F731127E02E8C8D8E110CC00FB636
:100B400007FCFACFE889F989808185FFF5CFCE01CE
:100B50000E944B05F1CFEB8DEC0FFD2FF11DE35AF9
:100B6000FF4FF0829FB7F8940B8FEA89FB89808151
:100B70008062CFCF0F931F93CF93DF938C01D0E090
:100B8000C0E0F801EC0FFD1F6491662341F08AE696
:100B900092E00E946D05892B11F02196F2CFCE01D3
:100BA000DF91CF911F910F910895CF93DF93EC01C7
:100BB000888D8823B9F0AA89BB89E889F9898C9145
:100BC00085FD03C0808186FD0DC00FB607FCF7CF01
:100BD0008C9185FFF2CF808185FFEDCFCE010E9401
:100BE0004B05E9CFDF91CF9108952091C201260FE7
:100BF0003327331F21323105ECF42091E601FC014B
:100C000090E080E0243069F082E00895A091C20174
:100C10002191AC014E555E4FA40FB52FB11D2C9301
:100C20000196861798F38091C201680F6093C20104
:100C300080E0089581E008951092E60181E08093BC
:100C4000E8011092E70161E082E10E94CF0261E0D9
:100C500083E10E94CF02E9EBF0E080818E7F808308
:100C600080818D7F808388E48093B80085E48093C1
:100C7000BC0008950895E091130280911202E817D4
:100C800030F4F0E0E458FE4F808190E008958FEF5B
:100C90009FEF089590911302809112022FEF3FEF82
:100CA000981748F4E92FF0E0E458FE4F208130E037
:100CB0009F5F90931302C901089580911202909151
:100CC0001302891B990B0895CF93DF93CB01EA019F
:100CD000642F0E94F505CE01DF91CF910895CF9347
:100CE000DF931F92CDB7DEB7698361E0CE01019635
:100CF0000E94F50581E090E00F90DF91CF9108957B
:100D000080916E01E0E0863010F4E0916E01F0E039
:100D1000E050FF4F608187E093E00C946F0690E015
:100D200080E0089581E08093590210925802109259
:100D30005702809308010895DB0191E1899FA0018A
:100D4000112430E020E090E07D9171110CC060E250
:100D50002031A0F4FA01E20FF31FEB5CFD4F60833A
:100D60002F5F3F4FF5CFF901E40FF51FEB5CFD4F0F
:100D700070832F5F3F4F2031310531F721E1289FEC
:100D8000F001299FF00D1124EB5CFD4F108A0895AE
:100D9000CF92DF92EF92FF920E942E036B017C01B3
:100DA00084E00E94A602892B89F40E942E036C190C
:100DB0007D098E099F09683E73408105910580F386
:100DC00080E0FF90EF90DF90CF90089581E0F9CF21
:100DD000CF93C82F60E00E94CF0261E08C2FCF91AB
:100DE0000C94FD0262E00C94FD02EF92FF920F93CF
:100DF0001F93CF93DF93E82E08E010E080E8F82EF1
:100E0000CFE0D0E08E2D8F21B1F085E00E94F20678
:100E1000CE010197F1F784E00E94F2060E94C80615
:100E200081110DC0C0E08C2FDF91CF911F910F91E8
:100E3000FF90EF90089585E00E94E806E9CFCE018B
:100E40000197F1F784E00E94E806F6940150110939
:100E5000C9F685E00E94F206CE010197F1F784E021
:100E60000E94F2060E94C8068823E1F22197F1F75A
:100E700085E00E94A602C1E0892B09F0C0E084E071
:100E80000E94E806D0CFCF93DF9385E00E94E8066A
:100E9000CFE0D0E0CE010197F1F784E00E94F206A6
:100EA0000E94C806CE010197F1F785E00E94F20684
:100EB0002197F1F7DF91CF910895DF92EF92FF92A2
:100EC0000F931F93CF93DF93062FD72EF42E880F07
:100ED0000E94F506182FE02EC02FDD2D112349F0BA
:100EE0008C2F8E198F1528F489910E94F506182FE2
:100EF000F5CF0E944307812FDF91CF911F910F9172
:100F0000FF90EF90DF9008951F93CF93DF9385E0DC
:100F10000E94F20684E00E94F2060E94C806182F82
:100F2000811106C010E0812FDF91CF911F910895AC
:100F300085E00E94A602892BA9F3CFE0D0E0CE0184
:100F40000197F1F785E00E94E8062197F1F784E028
:100F50000E94E806E8CF1F93CF93DF9300D000D024
:100F600000D0CDB7DEB7982F907F962B492F4860E1
:100F700050E1859F900111246860622B49839C6039
:100F80009A834B836C83862F84608D836E8310914C
:100F900069020E948407882339F046E0BE016F5F32
:100FA0007F4F812F0E945D0726960FB6F894DEBF13
:100FB0000FBECDBFDF91CF911F9108951F93CF93A7
:100FC000DF9300D01F92CDB7DEB7982F986099833A
:100FD0008C608A839B83109169020E948407882316
:100FE00039F043E0BE016F5F7F4F812F0E945D07A4
:100FF0000F900F900F90DF91CF911F9108950F9355
:101000001F93CF93181619060CF070C0C0911202EE
:1010100081309105A9F480911302C81799F187E0F6
:1010200093E00E944A06805F863008F463C0809196
:101030001302C81739F187E093E00E944A06F7CF00
:101040008430910531F510E000E0909113029C1777
:10105000B9F00430110559F087E093E00E944A0688
:10106000F801E159FE4F80830F5F1F4FEECF809153
:1010700013028C1751F087E093E00E944A06F7CFE5
:10108000043019F08FEF80936F0181E0809373013A
:101090002DC00A9749F0809113028C1799F387E0CD
:1010A00093E00E944A06F7CF10E000E0909113020F
:1010B0009C17B9F00A30110559F087E093E00E94BF
:1010C0004A06F801E55EFD4F80830F5F1F4FEECFAC
:1010D00080911302C81739F087E093E00E944A0616
:1010E000F7CF0A3079F681E080932502CF911F91E6
:1010F0000F91089580936E0180911302C817B1F388
:1011000087E093E00E944A06F7CF282FFC0180E099
:1011100037E09191892798E087FF09C0880F8327DE
:101120009150D1F79E2F921B961798F30895880F30
:10113000F7CFFF920F931F93CF93DF9300D000D090
:1011400000D0CDB7DEB7F82E062F142F1E821D82D9
:1011500069838A834B8380911A028C838091060174
:101160008D8365E0CE0101960E9485088E832FB79E
:10117000F894F0927A0100937B0110937501FE01BF
:10118000319690E080E03191DC01A050BF4F3C935C
:10119000019686309105B9F72FBF26960FB6F894C1
:1011A000DEBF0FBECDBFDF91CF911F910F91FF909A
:1011B00008954091750160917B0180917A010C94B2
:1011C000990880912A0290915F029111826090911A
:1011D0005A02911184609091070191118860909159
:1011E0000601981721F0809306010C94D908089500
:1011F00060E08EE00E94CF0260E08FE00E94CF02AC
:1012000060E087E00C94CF02FC0101900020E9F738
:101210003197AF01481B590BBC018AE692E00C9450
:10122000CD04CF93DF930E94BA05EC018DE291E0EB
:101230000E9404098C0F9D1FDF91CF910895CF92DA
:10124000DF92EF92FF92CF9320917B01213009F042
:10125000A6C06B017C0180917A01813029F58091D3
:10126000760190917701A0917801B0917901C81A27
:10127000D90AEA0AFB0A28E8C21623E1D206E104E9
:10128000F10408F48CC00E94F8084091750162E0F6
:1012900081E00E9499088CE691E0CF91FF90EF9059
:1012A000DF90CF900C941109C0917A01C23009F0FF
:1012B00076C080917401813039F5809176019091EA
:1012C0007701A0917801B0917901A7019B01281BBA
:1012D000390B4A0B5B0BDA01C901843F9140A10530
:1012E000B10508F45CC061E08FE00E94CF02C093BA
:1012F0007401C0927601D0927701E0927801F09269
:1013000079018AE591E0C9CF823039F58091760183
:1013100090917701A0917801B0917901A7019B018B
:10132000281B390B4A0B5B0BDA01C9018838934142
:10133000A105B105A0F160E08FE00E94CF0283E03B
:1013400080937401C0927601D0927701E092780187
:10135000F092790189E391E0A0CF833001F580918B
:10136000760190917701A0917801B0917901C81A26
:10137000D90AEA0AFB0A40EDC41647E0D406E104A4
:10138000F10468F00E94F808109274014091750110
:1013900062E082E00E94990882E291E07ECFCF91E4
:1013A000FF90EF90DF90CF9008950F931F93CF930E
:1013B000DF9300D000D0CDB7DEB79FB7F89480910F
:1013C000730120916F012983209170012A8320915C
:1013D00071012B83209172012C83109273019FBFA6
:1013E000882309F483C08981853A41F463E0CE0102
:1013F00001960E9485089C818917B1F00E94F80827
:10140000109274014091750163E080E00E94990898
:1014100082EF90E00F900F900F900F90DF91CF919F
:101420001F910F910C9411091A810B818091750104
:10143000181317C080917A01081709F457C00E9449
:10144000F808109274014091750163E080E00F90FC
:101450000F900F900F90DF91CF911F910F910C94EF
:10146000990801110CC00E94F80810927401412FD4
:1014700060E080E00E94990886ED90E0CBCF0E946A
:10148000F8080E948503609376017093770180933A
:10149000780190937901013071F461E08EE00E944F
:1014A000CF0210927401412F61E081E00E949908FF
:1014B00085EB90E0AFCF023079F461E087E00E94E5
:1014C000CF0281E080937401412F61E082E00E94AD
:1014D00099088FE890E09ECF10927401412F63E04D
:1014E00080E00E94990888E690E094CF0F900F90DA
:1014F0000F900F90DF91CF911F910F9108958F92D0
:101500009F92AF92BF920F931F93CF93DF93CDB76C
:10151000DEB7A1970FB6F894DEBF0FBECDBF19A2FC
:10152000423008F44AE08E010F5D1F4F842E912C4B
:10153000B12CA12CA50194010E947A18E62FB901C3
:10154000CA01EA30F4F4E05DD801EE938D01232B5B
:10155000242B252B79F790E080E0109719F0CD012E
:101560000E940409A1960FB6F894DEBF0FBECDBF4E
:10157000DF91CF911F910F91BF90AF909F908F906F
:101580000895E95CE1CF4F925F926F927F928F92C4
:101590009F92AF92BF92CF92DF92EF92FF920F9302
:1015A0001F93CF936B017C01742EAC019B010E94B1
:1015B0006118882399F080E391E0CF911F910F91FA
:1015C000FF90EF90DF90CF90BF90AF909F908F9063
:1015D0007F906F905F904F900C94040946015701E3
:1015E000E894B7F82FEF3FEF4FE75FE7C501B4018D
:1015F0000E94611881110DC02FEF3FEF4FE75FE7A9
:10160000C501B4010E94901618161CF484E391E001
:10161000D4CF2FEF3FEF4FE75FE4C701B6010E9441
:10162000EF1718161CF488E391E0C7CF2FEF3FEFB8
:101630004FE75FECC701B6010E94901687FDF3CF1C
:1016400020E030E0A901C701B6010E94901610E029
:1016500000E087FF0AC06DE28AE692E00E946D0515
:101660008C01F7FAF094F7F8F094C0E060E070E0D5
:1016700080E09FE37C1641F020E030E040E251E45E
:101680000E949516CF5FF6CFA70196010E942416FF
:101690002B013C010E940E174B015C014AE00E94A5
:1016A0007F0A7C01E00EF11ECC23C1F1C501B4011B
:1016B0000E943D179B01AC01C301B2010E94231699
:1016C0004B015C016EE28AE692E00E946D05E80E35
:1016D000F91EC15018F120E030E040E251E4C501AC
:1016E000B4010E94F4172B013C010E940E174B011C
:1016F000B12CA12C4AE0C501B4010E947F0AE80E7A
:10170000F91EC501B4010E943D179B01AC01C30144
:10171000B2010E9423164B015C01DBCFC701CF91C0
:101720001F910F91FF90EF90DF90CF90BF90AF90FF
:101730009F908F907F906F905F904F900895CF9380
:10174000DF9385ED8093BC0080919E0190919F0175
:10175000A091A001B091A1010796A11DB11D23E0A8
:10176000B695A795979587952A95D1F72091BC00B6
:1017700024FD03C01092E60136C040919E015091B5
:101780009F016091A0017091A101452B462B472B31
:1017900069F30097A105B10541F02AE22A95F1F716
:1017A00000C00197A109B109E1CF80919D0191E0AD
:1017B00090939C018823B9F0C091B800D091BA00F1
:1017C0008091BC008A7B8093BC0060E082E10E9433
:1017D000CF0260E083E10E94CF020E941C06D093FA
:1017E000BA00C093B800DF91CF9108954F925F92F5
:1017F0006F927F92AF92BF92CF92DF92EF92FF9261
:101800000F931F93CF93DF93CDB7DEB761970FB6DA
:10181000F894DEBF0FBECDBF809134028E010F5F02
:101820001F4F63E571E0882309F446C080912F02C1
:1018300062E671E0882309F43FC0C0902D02D09089
:101840002E020D2C000CEE08FF082601F7FE07C043
:101850004424552432014C185D086E087F0880919D
:101860002B0290912C022AE0A22EB12CB5010E94ED
:1018700066189B01482FE92FC201B5010E94661826
:10188000F7FE36C0EF934F933F932F939F938F9321
:101890007F936F9382ED91E09F938F931F9281E1ED
:1018A0008F931F930F930E943E130FB6F894DEBFE1
:1018B0000FBECDBFB80180E00E949C068091180247
:1018C000823009F1833611F1811123C089E491E05E
:1018D00020911902223009F45AC0F0F4222339F180
:1018E000213009F44FC09F938F9381E891E023C08A
:1018F000EF934F933F932F939F938F937F936F9388
:1019000081EC91E0C9CF8CE391E0E2CF82E491E0F9
:10191000DFCF8EE491E0DCCF243009F442C0E0F167
:10192000253009F79F938F938AE891E004C09F9335
:101930008F9389EB91E09F938F931F9281E18F9317
:101940001F930F930E943E130FB6F894DEBF0FBE95
:10195000CDBFB80181E00E949C0661960FB6F89455
:10196000DEBF0FBECDBFDF91CF911F910F91FF90D2
:10197000EF90DF90CF90BF90AF907F906F905F908F
:101980004F9008959F938F9381EB91E0D4CF9F93D5
:101990008F9385EA91E0CFCF9F938F938CE991E06D
:1019A000CACF9F938F9384E991E0C5CF1F920F9286
:1019B0000FB60F9211242F933F938F939F93AF9362
:1019C000BF938091610290916202A0916302B091F5
:1019D00064023091600223E0230F2D3758F5019601
:1019E000A11DB11D20936002809361029093620259
:1019F000A0936302B09364028091650290916602A5
:101A0000A0916702B09168020196A11DB11D80935B
:101A1000650290936602A0936702B0936802BF913B
:101A2000AF919F918F913F912F910F900FBE0F908B
:101A30001F90189526E8230F0296A11DB11DD2CF45
:101A40001F920F920FB60F9211242F933F934F9333
:101A50005F936F937F938F939F93AF93BF93EF9316
:101A6000FF938AE692E00E944B05FF91EF91BF91B0
:101A7000AF919F918F917F916F915F914F913F9126
:101A80002F910F900FBE0F901F9018951F920F92DD
:101A90000FB60F9211242F938F939F93EF93FF9381
:101AA000E0917A02F0917B028081E0918002F091D6
:101AB000810282FD1BC09081809183028F5F8F73B2
:101AC00020918402821741F0E0918302F0E0E65910
:101AD000FD4F958F80938302FF91EF919F918F919E
:101AE0002F910F900FBE0F901F9018958081F4CF0B
:101AF0001F920F920FB60F9211242F933F934F9383
:101B00005F936F937F938F939F93AF93BF93EF9365
:101B1000FF938091B900887F803609F44AC0F0F5C0
:101B2000883209F4A7C018F5803109F49BC0B8F4D5
:101B3000882309F4F9C0883009F494C0FF91EF912B
:101B4000BF91AF919F918F917F916F915F914F91D5
:101B50003F912F910F900FBE0F901F9018958831D5
:101B600009F488C0803251F78093E50114C08034B5
:101B700009F49DC040F48033B9F38833F9F68093BB
:101B8000E50185ECB0C0803509F485C0883509F4DD
:101B900096C0883499F60E949F0BD0CF883909F4FB
:101BA0008CC038F5883729F050F4883611F080372A
:101BB00029F683E08093E6011092E40157C088384B
:101BC00009F47BC0803919F0803809F0B7CF8091D3
:101BD000E401803208F071C0E091E40181E08E0FF1
:101BE0008093E4018091BB00F0E0EC53FE4F8083D2
:101BF0003DC0803B39F0E0F4803A09F479C0883A7E
:101C000009F09CCF84E08093E6011092C30110920A
:101C1000C201E0910E02F0910F0209958091C2017C
:101C200081110FC081E08093C2011092A20109C00E
:101C3000803C09F4A6CF883C09F4A3CF883B09F087
:101C40007DCFE091C30181E08E0F8093C301F0E06E
:101C5000EE55FE4F80818093BB009091C30180912F
:101C6000C20129C080910B028093BB0085EC809358
:101C7000BC0064CF90910A0280910902981758F530
:101C8000E0910A0281E08E0F80930A02F0E0E751B2
:101C9000FE4F8081E9CFE0910A0281E08E0F8093B0
:101CA0000A028091BB00F0E0E751FE4F80839091E3
:101CB0000A02809109029817C8F285E8D8CFE0910E
:101CC0000A0281E08E0F80930A028091BB00F0E04F
:101CD000E751FE4F80838091E80181115CCF81E064
:101CE0008093E70184EA8093BC001092E60126CF3E
:101CF00085EC8093BC001092E6018091E401803273
:101D000030F4E091E401F0E0EC53FE4F108260917A
:101D1000E40170E0E0910C02F0910D0284EC91E09E
:101D200009951092E4010ACF1092E50134CFEAE65A
:101D3000F2E01382128288EE93E0A0E0B0E08483A8
:101D40009583A683B7832DE031E03183208325EC92
:101D500030E03587248724EC30E03787268720EC75
:101D600030E0318B208B21EC30E0338B228B22EC66
:101D700030E0358B248B26EC30E0378B268B118EB0
:101D8000128E138E148EE7E0F3E0138212828483A6
:101D90009583A683B7838FE191E091838083A3E14C
:101DA000B3E082E015968C93159786E116968C9396
:101DB0001697E1E2F4E0E4911796EC931797EDE0C3
:101DC000F4E0E4911896EC93189740E85EE360E045
:101DD00070E01D964D935D936D937C93509708959D
:101DE000CF93DF93CDB7DEB72A970FB6F894DEBF57
:101DF0000FBECDBF789484B5826084BD84B5816008
:101E000084BD85B5826085BD85B5816085BD8091C5
:101E10006E00816080936E0010928100809181003D
:101E20008260809381008091810081608093810035
:101E3000809180008160809380008091B1008460F7
:101E40008093B1008091B00081608093B000809158
:101E50007A00846080937A0080917A008260809317
:101E60007A0080917A00816080937A0080917A0074
:101E7000806880937A001092C100E0917A02F0911C
:101E80007B0282E08083E0917602F09177021082FB
:101E9000E0917802F09179028FEC808310928202B7
:101EA000E0917E02F0917F0286E08083E0917C02E7
:101EB000F0917D02808180618083E0917C02F091CD
:101EC0007D02808188608083E0917C02F0917D02B8
:101ED000808180688083E0917C02F0917D02808126
:101EE0008F7D808362E0809118030E94FD020E9432
:101EF0008503605D77408109910960931C037093AD
:101F00001D0380931E0390931F0387E38093250393
:101F100061E08EE00E94FD0261E08FE00E94FD0220
:101F200061E087E00E94FD020E94F80885E00E94BF
:101F3000F20684E00E94F2060E94F60B0E949206CE
:101F400040E060E080E00E94990810921302109235
:101F5000120210921102109210020E941C0687E9D0
:101F600094E090930F0280930E0283EA94E09093A2
:101F70000D0280930C0282E18093BA008FEF97E00C
:101F8000909315028093140280E896E090931702D4
:101F90008093160285E892E00E94110987E592E09D
:101FA0000E9411098BE192E00E94110984EE91E0F8
:101FB0000E9411090FE010E07724739447E2642E29
:101FC0000E9485036B017C010E94D509C701B601FF
:101FD0000E941F09A0902502AA2091F14FB7F89402
:101FE000FE01319630E020E0CF01D901A55EBD4F62
:101FF0005C9151932F5F3F4F2A303105B1F710921A
:1020000025024FBFBC802B2D2D7F41F023E6B21659
:1020100029F0AA24A3943FEFB312A12C2981213DDA
:1020200059F469E00E9485089A85891305C08B815F
:10203000873010F4A11065C086ED92E00E9411096E
:1020400080912A02882329F180910701811121C002
:102050008091260290912702A0912802B091290236
:10206000A7019601281B390B4A0B5B0BDA01C9014A
:1020700080339547A105B10560F0709207010E9479
:10208000F60B0E9492060E94E10882E193E00E9412
:102090001109809134028823B1F08091300290912F
:1020A0003102A0913202B0913302A7019601281BA0
:1020B000390B4A0B5B0BDA01C901883B9B40A10538
:1020C000B10508F48DC1C0923002D0923102E09285
:1020D0003202F09233020E949103882359F08091DA
:1020E00019038B3038F08D3008F44FC085518230A1
:1020F00008F47CC0812C912C30ECA32E3FE7B32E4A
:1021000062C09A8190931A0280931902B0921802C9
:1021100070922A0210920701C0922602D0922702E2
:10212000E0922802F09229020E94F60B0E94920689
:102130000E94E1080E94D9088EEB92E00E94BA0545
:1021400060911A0270E090E080E04AE00E947F0A0D
:1021500086EB92E00E94BA056091190270E090E06F
:1021600080E04AE00E947F0A8FEA92E00E94BA056E
:102170006091180270E090E080E04AE00E947F0ADF
:102180008DE291E00E9404095BCF6091140370E03E
:1021900090E080E00E943F172DEC3CEC4CEC5DE3BE
:1021A0000E94F4176B017C016091130370E090E0D2
:1021B00080E00E943F179B01AC01C701B6010E945D
:1021C00024164B015C010E949103882341F0809109
:1021D00019038C3009F4D5C0D8F48B3091F1C12C9F
:1021E000D12C90ECE92E9FE7F92E55C06091130396
:1021F0007091140376276727762790E080E00E948D
:102200003D172DEC3CEC4CEC5DE30E94F417D9CF6C
:102210008551823020F750901503652D70E0762FA0
:10222000662766277F7780911603682B90E080E011
:102230000E943D172DEC3CEC4CEC5DE30E94F41742
:10224000BCC06091150370E090E080E00E943D17F3
:102250006B017C015090160357FE0AC0AC019B0134
:1022600060E070E080E89FEB0E9423166B017C0128
:10227000652D6F7070E090E080E00E943F172DECBC
:102280003CEC4CEC5DE30E94F417A70196010E9420
:1022900024166B017C0170923402A5019401C501E2
:1022A000B4010E946118811191C0A7019601C70174
:1022B000B6010E946118811189C020E030E0A901B7
:1022C000C501B4010E94EF1787FD80C020E030E017
:1022D00048EC52E4C501B4010E94901618160CF4A3
:1022E00075C070922F0220E030E040E251E4C70157
:1022F000B6010E94F4171B012C0120E030E0A90177
:10230000C701B6010E94EF1720E030E040E05FE334
:1023100087FF04C020E030E040E05FEBC201B10184
:102320000E9424160E94071770932E0260932D02BC
:1023300020E030E040E251E4C501B4010E94F4170E
:1023400020E030E040E05FE30E9424160E940E1778
:1023500070932C0260932B028EE293E00E94BA05E8
:1023600041E0C701B6010E94C30A89E293E00E94DE
:10237000BA0541E0C501B4010E94C30A87E293E0B7
:1023800029C050901503652D70E090E080E00E9418
:102390003D176B017C01609116036F7070E090E057
:1023A00080E00E943F172DEC3CEC4CEC5DE30E947A
:1023B000F417A70196010E9424166B017C0157FEB9
:1023C0006ACFF7FAF094F7F8F09465CF10922F02E5
:1023D00088E493E00E9411090E94F60B0E94920685
:1023E0000E94D5090E9485030E941F090E9485034F
:1023F0004B015C01F0905F02F110F8C080915B022C
:1024000090915C02A0915D02B0915E020097A105DF
:10241000B10569F0A5019401281B390B4A0B5B0B30
:10242000DA01C90188389341A105B105A0F1809274
:102430005B0290925C02A0925D02B0925E0285E027
:102440000E94F20684E00E94F2060E94C8068823D9
:10245000A1F089E0E82E85E00E94A602892B71F5A3
:1024600084E00E94E806C8010197F1F784E00E9429
:10247000F2060E94C80681111BC0F0925F0281E043
:102480008F2580935A020E94E108F1109DC083EAD3
:1024900093E00E94110980E090E0892B09F490CD2F
:1024A0000E943705882309F489CD0E94000086CD5B
:1024B000C8010197F1F7EA94E110CDCF0E944307DC
:1024C00085E00E94A6020197C1F684E00E94A60260
:1024D000019799F60E948407882309F463C08EE46B
:1024E0000E94F506E82E0E944307EE2009F45AC028
:1024F0006092690262E370E080E090E00E94530322
:1025000080E30E94DE07882309F4B7CF65E070E01E
:1025100080E090E00E94530380E30E94DE0788235E
:1025200009F4ABCF65E070E080E090E00E945303D7
:1025300080E30E94DE07882309F49FCF61E070E00A
:1025400080E090E00E94530380E20E94DE0788232F
:1025500009F493CF60E088E20E94AB07882309F476
:102560008CCF60E088E00E94AB07882309F485CF18
:1025700060E081E00E94AB07882309F47ECF62E02F
:1025800070E080E090E00E94530360E086E00E94EB
:10259000AB07882309F471CF60E08CE00E94AB07A1
:1025A000F82E6BCF0E948407882309F466CF8EE74C
:1025B0000E94F506E82E0E944307EE2009F45DCF45
:1025C0004FE34093690296CF8CE793E00E94BA05EF
:1025D0006091690270E090E080E040E10E947F0A33
:1025E0008DE291E00E9404090E94920680915902B6
:1025F000882309F450CFE090580280910801882385
:10260000D1F080E8E11080EC60E00E94AB0781111E
:102610000FC010925F0270925A0280925B029092F9
:102620005C02A0925D02B0925E020E94E10833CF8C
:102630001092080130CFF090570251E15E9DF001F9
:102640001124EB5CFD4FEF0DF11D61E080810E94D4
:10265000AB078823F1F281E08F0D80935702803120
:1026600008F419CFE11007C0709258021092570277
:102670007092080110CF109259020DCFAEE0B0E079
:10268000E4E4F3E10C94FA150D891E898F89988D85
:102690002EE02C831A83098397FF02C080E090E824
:1026A00001979E838D83AE01455E5F4F698D7A8D64
:1026B000CE0101960E946E134D815E8157FD0AC0C6
:1026C0002F813885421753070CF49A01020F131F0C
:1026D000F80110822E96E4E00C941616ABE0B0E000
:1026E000E4E7F3E10C94EC157C013B018A01FC0169
:1026F00017821682838181FFC8C1CE0101965C01D9
:10270000F7019381F30193FD859193FF81913F013F
:10271000882309F453C1853239F493FD859193FFE1
:1027200081913F01853229F4B70190E00E945E1546
:10273000E7CF912C212C312CFFE1F31538F08B32AF
:1027400011F190F4803209F1833229F137FC3CC059
:1027500020ED280F2A3050F536FE20C08AE0989EE2
:10276000200D1124922E06C08D3291F0803371F726
:10277000689430F8F30193FD859193FF81913F01B7
:102780008111DACF21C0689431F8689432F8F2CF21
:10279000689433F8EFCF689434F8ECCFEAE02E9EDB
:1027A000200D1124222E689435F8E4CF8E3229F4BE
:1027B00036FC04C1689436F8DDCF8C3619F4689481
:1027C00037F8D8CF8836B1F2982F9F7D9554933043
:1027D000E0F08336A1F18337C1F1833509F063C09E
:1027E0002801F2E04F0E511CF801C080D180692D04
:1027F00070E036FC02C06FEF7FEFC6010E94481503
:102800004C01689437F882010AC00C5F1F4FFFE348
:10281000F98388248394912C6501E89437F833FE7A
:102820002DC0522C8114910471F5552009F468CF04
:10283000B70180E290E00E945E155A94F6CFF8014D
:10284000808189830E5F1F4FE4CF2801F2E04F0E95
:10285000511CF801C080D180692D70E036FC02C0A7
:102860006FEF7FEFC6010E9453154C018201D5CF57
:10287000B70180E290E00E945E152A9428141904A2
:1028800009F0B0F7CECFF60137FC859137FE819184
:102890006F01B70190E00E945E1551105A94F1E06B
:1028A0008F1A9108BFCF843619F0893609F077C0A6
:1028B000F80137FE6BC060817181828193810C5F6A
:1028C0001F4FF32DFF763F2E97FF09C090958095FF
:1028D000709561957F4F8F4F9F4F689437F82AE02E
:1028E00030E0A5010E948E15C82ECA188C2C432CEE
:1028F00036FE0CC0E89440F8C91440F434FE05C01C
:1029000032FC03C0F32DFE7E4F2E892C44FE95C071
:10291000FE01EC0DF11D8081803309F087C0242D6C
:10292000297E422E842D8870582E43FC95C040FE8F
:102930008FC09C2C821418F42C0C922C981844FEF6
:1029400091C0B70180E390E00E945E1542FE09C08D
:1029500088E790E041FE02C088E590E0B7010E9460
:102960005E15C91408F48AC0CA94D12C9FEFC91A05
:10297000D90ACA0CDB1CF60182916F01B70190E005
:102980000E945E15AC14BD04B1F74FCF6081718118
:10299000072E000C880B990B0E5F1F4F92CFD32C84
:1029A000E894D4F82AE030E0853739F1232D297FE7
:1029B000D22E8F3601F148F48835A9F0F7018681CF
:1029C00097812B96E2E10C940816803749F08837FE
:1029D000A9F7D4FE02C06894D2F820E130E00DC01F
:1029E0006894D4F8F6CF34FE03C0822F8660D82EC8
:1029F00020E132E002C028E030E0F801D7FE0FC04D
:102A000060817181828193810C5F1F4FA5010E94BB
:102A10008E15C82ECA183D2CE89437F867CF608110
:102A2000718190E080E00E5F1F4FF0CF42FC02C04A
:102A3000839478CF8394839475CF842D867809F41A
:102A400071CFF6CFB70180E290E00E945E158394CB
:102A50008214C0F3512C73CF522C5818821408F4EE
:102A60006ECFF8CF842D867809F47BCF8BE241FEC0
:102A700080E247FC8DE2B70190E071CFB70180E3BF
:102A800090E00E945E159A946CCF8FEF9FEF99CFE4
:102A9000FC010590615070400110D8F78095909529
:102AA0008E0F9F1F0895FC0161507040019001102E
:102AB000D8F7809590958E0F9F1F08950F931F93C1
:102AC000CF93DF93182F092FEB018B8181FD09C074
:102AD0001FEF0FEF812F902FDF91CF911F910F915B
:102AE000089582FF14C02E813F818C819D8128171B
:102AF00039073CF4E881F981CF01019699838883F5
:102B000010838E819F8101969F838E83E3CFE8851A
:102B1000F985812F0995892BA1F3DACFFA01AA272C
:102B2000283051F1203181F1E8946F936E7F6E5F10
:102B30007F4F8F4F9F4FAF4FB1E03ED0B4E03CD0BE
:102B4000670F781F891F9A1FA11D680F791F8A1FA1
:102B5000911DA11D6A0F711D811D911DA11D20D008
:102B600009F468943F912AE0269F11243019305DC2
:102B70003193DEF6CF010895462F4770405D4193B3
:102B8000B3E00FD0C9F7F6CF462F4F70405D4A3300
:102B900018F0495D31FD4052419302D0A9F7EACFC8
:102BA000B4E0A6959795879577956795BA95C9F7F7
:102BB00000976105710508959B01AC010A2E0694EA
:102BC0005795479537952795BA95C9F7620F731FA3
:102BD000841F951FA01D08952F923F924F925F92E0
:102BE0006F927F928F929F92AF92BF92CF92DF921D
:102BF000EF92FF920F931F93CF93DF93CDB7DEB782
:102C0000CA1BDB0B0FB6F894DEBF0FBECDBF099415
:102C10002A88398848885F846E847D848C849B846C
:102C2000AA84B984C884DF80EE80FD800C811B817A
:102C3000AA81B981CE0FD11D0FB6F894DEBF0FBEA9
:102C4000CDBFED0108955058BB27AA270E943B161F
:102C50000C94B5170E94A71738F00E94AE1720F009
:102C600039F49F3F19F426F40C94A4170EF4E09560
:102C7000E7FB0C949E17E92F0E94C61758F3BA176A
:102C8000620773078407950720F079F4A6F50C9482
:102C9000E8170EF4E0950B2EBA2FA02D0B01B90109
:102CA00090010C01CA01A0011124FF27591B99F0C2
:102CB000593F50F4503E68F11A16F040A22F232FCE
:102CC000342F4427585FF3CF469537952795A7951E
:102CD000F0405395C9F77EF41F16BA0B620B730BC5
:102CE000840BBAF09150A1F0FF0FBB1F661F771F36
:102CF000881FC2F70EC0BA0F621F731F841F48F4EB
:102D0000879577956795B795F7959E3F08F0B0CF73
:102D10009395880F08F09927EE0F9795879508955A
:102D20000E947A1708F481E008950E94A9160C9475
:102D3000B5170E94AE1758F00E94A71740F029F46B
:102D40005F3F29F00C949E1751110C94E9170C94D5
:102D5000A4170E94C61768F39923B1F3552391F382
:102D6000951B550BBB27AA2762177307840738F0FA
:102D70009F5F5F4F220F331F441FAA1FA9F335D057
:102D80000E2E3AF0E0E832D091505040E695001C0B
:102D9000CAF72BD0FE2F29D0660F771F881FBB1FC5
:102DA000261737074807AB07B0E809F0BB0B802DA3
:102DB000BF01FF2793585F4F3AF09E3F510578F0CF
:102DC0000C949E170C94E9175F3FE4F3983ED4F3FC
:102DD000869577956795B795F7959F5FC9F7880FA3
:102DE000911D9695879597F90895E1E0660F771FF5
:102DF000881FBB1F621773078407BA0720F0621B86
:102E0000730B840BBA0BEE1F88F7E09508950E94B0
:102E10000E176894B1110C94E91708950E94CE170B
:102E200088F09F5798F0B92F9927B751B0F0E1F08B
:102E3000660F771F881F991F1AF0BA95C9F714C03B
:102E4000B13091F00E94E817B1E008950C94E817B2
:102E5000672F782F8827B85F39F0B93FCCF3869574
:102E600077956795B395D9F73EF4909580957095D1
:102E700061957F4F8F4F9F4F0895E89409C097FB4E
:102E80003EF490958095709561957F4F8F4F9F4F41
:102E90009923A9F0F92F96E9BB279395F695879585
:102EA00077956795B795F111F8CFFAF4BB0F11F448
:102EB00060FF1BC06F5F7F4F8F4F9F4F16C08823EF
:102EC00011F096E911C0772321F09EE8872F762F25
:102ED00005C0662371F096E8862F70E060E02AF066
:102EE0009A95660F771F881FDAF7880F9695879552
:102EF00097F90895990F0008550FAA0BE0E8FEEF27
:102F000016161706E807F907C0F012161306E407AD
:102F1000F50798F0621B730B840B950B39F40A26A6
:102F200061F0232B242B252B21F408950A2609F484
:102F3000A140A6958FEF811D811D089597F99F6788
:102F400080E870E060E008959FEF80EC0895002431
:102F50000A941616170618060906089500240A94FE
:102F600012161306140605060895092E0394000C84
:102F700011F4882352F0BB0F40F4BF2B11F460FF13
:102F800004C06F5F7F4F8F4F9F4F089557FD90583C
:102F9000440F551F59F05F3F71F04795880F97FB1D
:102FA000991F61F09F3F79F08795089512161306D7
:102FB0001406551FF2CF4695F1DF08C01616170606
:102FC0001806991FF1CF869571056105089408953B
:102FD000E894BB2766277727CB0197F908950E94CD
:102FE0007A1708F48FEF08950E9407180C94B5170C
:102FF0000E94A71738F00E94AE1720F0952311F019
:103000000C949E170C94A41711240C94E9170E9499
:10301000C61770F3959FC1F3950F50E0551F629F3F
:10302000F001729FBB27F00DB11D639FAA27F00D21
:10303000B11DAA1F649F6627B00DA11D661F829F48
:103040002227B00DA11D621F739FB00DA11D621F2D
:10305000839FA00D611D221F749F3327A00D611D4A
:10306000231F849F600D211D822F762F6A2F11242C
:103070009F5750409AF0F1F088234AF0EE0FFF1F5F
:10308000BB1F661F771F881F91505040A9F79E3FB6
:10309000510580F00C949E170C94E9175F3FE4F300
:1030A000983ED4F3869577956795B795F795E7950C
:1030B0009F5FC1F7FE2B880F911D9695879597F915
:1030C00008950E947A17880B990B0895AA1BBB1BC1
:1030D00051E107C0AA1FBB1FA617B70710F0A61B18
:1030E000B70B881F991F5A95A9F780959095BC0139
:1030F000CD010895A1E21A2EAA1BBB1BFD010DC034
:10310000AA1FBB1FEE1FFF1FA217B307E407F50797
:1031100020F0A21BB30BE40BF50B661F771F881F73
:10312000991F1A9469F760957095809590959B0109
:10313000AC01BD01CF010895EE0FFF1F0590F49182
:08314000E02D0994F894FFCF83
:10314800000000000800080101000000006D05CD26
:1031580004FA04D5052B0509051D05000000006FBC
:103168000664068F063A065D064A063B060D0A0007
:103178006E616E00696E66006F7666005A4F4E4546
:1031880032005A4F4E45393900484F4D45004E4F91
:103198004E45004448543232205354415254494E0B
:0E31A80047004448543232204552524F5200E4
:00000001FF
