:100000000C94D2010C94FA010C94FA010C94FA01AC
:100010000C94FA010C94FA010C94FA010C94FA0174
:100020000C94FA010C94FA010C94FA010C94FA0164
:100030000C94FA010C94FA010C94FA010C94FA0154
:100040000C9409090C94FA010C9479090C94530945
:100050000C94FA010C94FA010C94FA010C94FA0134
:100060000C94AB090C94FA014552524F522025735F
:100070000052455455524E20257300444F4E4520A2
:10008000257300444548554D2025730048554D497A
:1000900044494659202573004D4F5645202573008D
:1000A00049444C45202573005425752E2575432061
:1000B0004825752E2575252500542D25752E257569
:1000C00043204825752E25752525004C4344207076
:1000D000726F78793A2044353D5344412044343D91
:1000E00053434C2C20504346383537343D3078321A
:1000F000372C2044312F31304220646973706C6199
:100100007900436F6E74726F6C3A2041352F7365BE
:10011000712F636D642F4352432034423B2073742C
:1001200061747573206C6F676963616C203642007F
:100130004163747561746F72556E6F2070726F7861
:10014000792072656164793A2041342F41352073FA
:100150006C6176653D30783039005B493243203040
:100160007830395D20696E76616C696420636F6DEB
:100170006D616E64202D3E2073616665204F46469A
:10018000005B49324320307830395D204445485582
:100190004D4944494659202D3E2066616E207072BB
:1001A000657374617274005B493243203078303972
:1001B0005D2048554D4944494659202D3E20413047
:1001C000204C4544204F4E005B493243203078306C
:1001D000395D2053544F50202D3E204C4544732010
:1001E0004F4646005B49324320307830395D206D00
:1001F000616C666F726D65642041352F7365712F78
:10020000636D642F435243202D3E204C45447320A0
:100210004F4646005B5441534B5D20444548554D85
:10022000494449465920444F4E45005B5441534B85
:100230005D2070656C74696572204F46462C20669F
:10024000616E20636F6F6C646F776E005B54415317
:100250004B5D2070656C74696572204F4E005B5475
:1002600041534B5D2048554D494449465920444F20
:100270004E4500207A6F6E653D0020737461746591
:100280003D005B444953504C41595D2061636365B7
:1002900070746564207365713D005B444953504C34
:1002A00041595D20696E76616C69642031302D6240
:1002B000797465206672616D65206469736361722B
:1002C0006465643B2072656C61797320756E636848
:1002D000616E676564005B444953504C41595D2031
:1002E0005354414C45203E333073005B4C43445DD6
:1002F00020443520534441202F2044342053434C84
:1003000020726561647920616464726573733D3045
:1003100078005B4C43445D2044352F4434203078D2
:1003200032372F30783346206E6F742072657370C9
:100330006F6E64696E673B2072656C617920636FD4
:100340006E74696E7565730000000000240027005C
:100350002A0000000000250028002B0000000000FB
:1003600023002600290004040404040404040202F7
:100370000202020203030303030301020408102024
:10038000408001020408102001020408102000002F
:100390000008000201000003040700000000000044
:1003A0000000CA0A11241FBECFEFD8E0DEBFCDBFC8
:1003B00011E0A0E0B1E0E2E8F4E202C005900D92A5
:1003C000A436B107D9F723E0A4E6B1E001C01D923D
:1003D000A430B207E1F711E0C2EDD1E004C02197EB
:1003E000FE010E943912C13DD107C9F70E94030BDB
:1003F0000C943F120C940000833081F028F481307B
:1004000099F08230A9F008958730A9F08830C9F0BA
:100410008430B1F4809180008F7D03C08091800092
:100420008F7780938000089584B58F7784BD089579
:1004300084B58F7DFBCF8091B0008F778093B00023
:1004400008958091B0008F7DF9CFCF93DF93282F4F
:1004500030E0F901E257FC4F8491F901E658FC4F76
:10046000D491F901EA59FC4FC491CC23A1F0811138
:100470000E94FC01EC2FF0E0EE0FFF1FE45AFC4F4E
:10048000A591B491EC91ED2381E090E009F480E036
:10049000DF91CF91089580E090E0FACF1F93CF9342
:1004A000DF93282F30E0F901E257FC4F8491F901E6
:1004B000E658FC4FD491F901EA59FC4FC491CC2382
:1004C000A9F0162F81110E94FC01EC2FF0E0EE0F35
:1004D000FF1FEE5AFC4FA591B4918FB7F894EC91A1
:1004E000111108C0D095DE23DC938FBFDF91CF912F
:1004F0001F910895DE2BF8CFCF93DF9390E0FC019E
:10050000E658FC4F24918A599C4FFC018491882322
:10051000D1F090E0880F991FFC01E85BFC4FA5919A
:10052000B491FC01EE5AFC4FC591D491623071F444
:100530009FB7F8943C91822F809583238C93E88118
:100540002E2B28839FBFDF91CF9108958FB7F8940A
:10055000EC912E2B2C938FBFF6CF3FB7F894809160
:10056000560290915702A0915802B091590226B5B7
:10057000A89B05C02F3F19F00196A11DB11D3FBFDB
:10058000BA2FA92F982F8827BC01CD01620F711DAA
:10059000811D911D42E0660F771F881F991F4A95A4
:1005A000D1F708958F929F92AF92BF92CF92DF9230
:1005B000EF92FF924B015C010E94AD026B017C0146
:1005C0000E94AD026C197D098E099F09683E734037
:1005D00081059105A8F321E0821A9108A108B108CC
:1005E00088EEC80E83E0D81EE11CF11C8114910432
:1005F000A104B10429F7FF90EF90DF90CF90BF9056
:10060000AF909F908F900895E091FF01F0910002CC
:10061000309729F01092FA011092F9010994089587
:10062000CF93DF93AC01E091FD01F091FE01309793
:10063000F1F09091FC018091FB019817C0F090E0DF
:10064000292F30E02617370754F4D901AB59BE4F94
:10065000240F351FE90128812C939F5FF1CF109261
:10066000FC016093FB01CB01DF91CF910994DF91F5
:10067000CF910895AF92BF92CF92DF92EF92FF9207
:100680000F931F93CF93DF936C017B018B01040FBA
:10069000151FEB015E01AE18BF08C017D10759F056
:1006A0006991D601ED91FC910190F081E02DC60198
:1006B0000995892B79F7C501DF91CF911F910F9192
:1006C000FF90EF90DF90CF90BF90AF900895FC0126
:1006D000538D448D252F30E0842F90E0821B930BA7
:1006E000541710F0CF96089501970895FC01918D4D
:1006F000828D981761F0A28DAE0FBF2FB11D5D9650
:100700008C91928D9F5F9F73928F90E008958FEFF1
:100710009FEF0895FC01918D828D981731F0828DA5
:10072000E80FF11D858D90E008958FEF9FEF0895FC
:10073000FC01918D228D892F90E0805C9F4F821B60
:1007400091098F73992708958BE592E00E94980391
:1007500021E0892B09F420E0822F089580E090E0C9
:10076000892B29F00E94A40381110C9400000895A4
:10077000FC01A48DA80FB92FB11DA35ABF4F2C9116
:10078000848D90E001968F739927848FA689B7890D
:100790002C93A089B1898C91837080648C93938D04
:1007A000848D981306C00288F389E02D80818F7DA7
:1007B00080830895EF92FF920F931F93CF93DF935F
:1007C000EC0181E0888F9B8D8C8D98131AC0E8898D
:1007D000F989808185FF15C09FB7F894EE89FF895C
:1007E0006083E889F98980818370806480839FBFFA
:1007F00081E090E0DF91CF911F910F91FF90EF90FA
:100800000895F62E0B8D10E00F5F1F4F0F73112709
:10081000E02E8C8D8E110CC00FB607FCFACFE88944
:10082000F989808185FFF5CFCE010E94B803F1CF11
:10083000EB8DEC0FFD2FF11DE35AFF4FF0829FB7B8
:10084000F8940B8FEA89FB8980818062CFCF0F9368
:100850001F93CF93DF938C01D0E0C0E0F801EC0F41
:10086000FD1F6491662341F08BE592E00E94DA035C
:10087000892B11F02196F2CFCE01DF91CF911F91FC
:100880000F910895CF93DF93EC01888D8823B9F001
:10089000AA89BB89E889F9898C9185FD03C080818B
:1008A00086FD0DC00FB607FCF7CF8C9185FFF2CF08
:1008B000808185FFEDCFCE010E94B803E9CFDF91A3
:1008C000CF9108952091AB01260F3327331F21329A
:1008D0003105ECF42091CF01FC0190E080E0243060
:1008E00069F082E00895A091AB012191AC014557D8
:1008F0005E4FA40FB52FB11D2C930196861798F368
:100900008091AB01680F6093AB0180E0089581E0B6
:1009100008951092CF0181E08093D1011092D0010F
:1009200061E082E10E944E0261E083E10E944E029A
:10093000E9EBF0E080818E7F808380818D7F8083F2
:1009400088E48093B80085E48093BC0008950895FE
:10095000E091FC018091FB01E81730F4F0E0EB59E5
:10096000FE4F808190E008958FEF9FEF0895909162
:10097000FC018091FB012FEF3FEF981748F4E92F1E
:10098000F0E0EB59FE4F208130E09F5F9093FC0137
:10099000C90108958091FB019091FC01891B990B7D
:1009A0000895CF93DF93CB01EA01642F0E94620484
:1009B000CE01DF91CF910895CF93DF931F92CDB7F2
:1009C000DEB7698361E0CE0101960E94620481E096
:1009D00090E00F90DF91CF91089580916401E0E065
:1009E000863010F4E0916401F0E0E050FF4F608148
:1009F00088EF92E00C94DC0490E080E0089581E0C0
:100A000080934A0210924902109248028093080192
:100A10000895DB0191E1899FA001112430E020E0DD
:100A200090E07D9171110CC060E22031A0F4FA01D8
:100A3000E20FF31FEA5DFD4F60832F5F3F4FF5CF5D
:100A4000F901E40FF51FEA5DFD4F70832F5F3F4F03
:100A50002031310531F721E1289FF001299FF00D68
:100A60001124EA5DFD4F108A0895CF92DF92EF9234
:100A7000FF920E94AD026B017C0184E00E9425027E
:100A8000892B89F40E94AD026C197D098E099F099A
:100A9000683E73408105910580F380E0FF90EF9000
:100AA000DF90CF90089581E0F9CFCF93C82F60E019
:100AB0000E944E0261E08C2FCF910C947C0262E088
:100AC0000C947C02EF92FF920F931F93CF93DF93CE
:100AD000E82E08E010E080E8F82ECFE0D0E08E2D80
:100AE0008F21B1F085E00E945F05CE010197F1F7FB
:100AF00084E00E945F050E94350581110DC0C0E0B1
:100B00008C2FDF91CF911F910F91FF90EF9008955F
:100B100085E00E945505E9CFCE010197F1F784E009
:100B20000E945505F69401501109C9F685E00E940E
:100B30005F05CE010197F1F784E00E945F050E94F6
:100B400035058823E1F22197F1F785E00E9425021F
:100B5000C1E0892B09F0C0E084E00E945505D0CFA8
:100B6000CF93DF9385E00E945505CFE0D0E0CE0122
:100B70000197F1F784E00E945F050E943505CE01E0
:100B80000197F1F785E00E945F052197F1F7DF916A
:100B9000CF910895DF92EF92FF920F931F93CF931F
:100BA000DF93062FD72EF42E880F0E946205182F90
:100BB000E02EC02FDD2D112349F08C2F8E198F15BB
:100BC00028F489910E946205182FF5CF0E94B00584
:100BD000812FDF91CF911F910F91FF90EF90DF90C8
:100BE00008951F93CF93DF9385E00E945F0584E013
:100BF0000E945F050E943505182F811106C010E084
:100C0000812FDF91CF911F91089585E00E942502E9
:100C1000892BA9F3CFE0D0E0CE010197F1F785E071
:100C20000E9455052197F1F784E00E945505E8CF11
:100C30001F93CF93DF9300D000D000D0CDB7DEB7A5
:100C4000982F907F962B492F486050E1859F900107
:100C500011246860622B49839C609A834B836C8368
:100C6000862F84608D836E8310915A020E94F10555
:100C7000882339F046E0BE016F5F7F4F812F0E94CD
:100C8000CA0526960FB6F894DEBF0FBECDBFDF9122
:100C9000CF911F9108951F93CF93DF9300D01F92A0
:100CA000CDB7DEB7982F986099838C608A839B8339
:100CB00010915A020E94F105882339F043E0BE01E9
:100CC0006F5F7F4F812F0E94CA050F900F900F908A
:100CD000DF91CF911F9108950F931F93CF93181613
:100CE00019060CF070C0C091FB0181309105A9F488
:100CF0008091FC01C81799F188EF92E00E94B70437
:100D0000805F863008F463C08091FC01C81739F118
:100D100088EF92E00E94B704F7CF8430910531F557
:100D200010E000E09091FC019C17B9F0043011052F
:100D300059F088EF92E00E94B704F801EF5FFD4F91
:100D400080830F5F1F4FEECF8091FC018C1751F015
:100D500088EF92E00E94B704F7CF043019F08FEFCC
:100D60008093010281E0809305022DC00A9749F02B
:100D70008091FC018C1799F388EF92E00E94B704F0
:100D8000F7CF10E000E09091FC019C17B9F00A3019
:100D9000110559F088EF92E00E94B704F801EA5E6D
:100DA000FD4F80830F5F1F4FEECF8091FC01C8176E
:100DB00039F088EF92E00E94B704F7CF0A3079F655
:100DC00081E080932002CF911F910F91089580932D
:100DD00064018091FC01C817B1F388EF92E00E9492
:100DE000B704F7CF282FFC0180E037E091918927E5
:100DF00098E087FF09C0880F83279150D1F79E2F75
:100E0000921B961798F30895880FF7CFFF920F93D0
:100E10001F93CF93DF9300D000D000D0CDB7DEB7C3
:100E2000F82E062F142F1E821D8269838A834B831E
:100E3000809115028C83809106018D8365E0CE013F
:100E400001960E94F2068E832FB7F894F0920C025E
:100E500000930D0210930702FE01319690E080E0AE
:100E60003191DC01A050BF4F3C9301968630910533
:100E7000B9F72FBF26960FB6F894DEBF0FBECDBFD1
:100E8000DF91CF911F910F91FF900895409107023C
:100E900060910D0280910C020C940607809125024E
:100EA000909150029111826090914B029111846057
:100EB000909107019111886090910601981721F097
:100EC000809306010C944607089560E08EE00E942E
:100ED0004E0260E08FE00E944E0260E087E00C94DA
:100EE0004E028F929F92AF92BF920F931F93CF9318
:100EF000DF93CDB7DEB7A1970FB6F894DEBF0FBE74
:100F0000CDBF19A2423008F44AE08E010F5D1F4F99
:100F1000842E912CB12CA12CA50194010E941712B2
:100F2000E62FB901CA01EA3044F5E05DD801EE933D
:100F30008D01232B242B252B79F790E080E010974F
:100F400069F0FD0101900020E9F73197AF014A1BDC
:100F50005B0BBD018BE592E00E943A03A1960FB6B0
:100F6000F894DEBF0FBECDBFDF91CF911F910F91DF
:100F7000BF90AF909F908F900895E95CD7CF42E0EB
:100F800050E06DE271E08BE592E00C943A03CF9370
:100F9000DF930E942704EC010E94BF078C0F9D1F66
:100FA000DF91CF910895CF93DF9385ED8093BC00BF
:100FB0008091870190918801A0918901B0918A0167
:100FC0000796A11DB11D23E0B695A7959795879526
:100FD0002A95D1F72091BC0024FD03C01092CF01C7
:100FE00036C04091870150918801609189017091CC
:100FF0008A01452B462B472B69F30097A105B105C4
:1010000041F02AE22A95F1F700C00197A109B10940
:10101000E1CF8091860191E0909385018823B9F01A
:10102000C091B800D091BA008091BC008A7B8093B7
:10103000BC0060E082E10E944E0260E083E10E9419
:101040004E020E948904D093BA00C093B800DF9189
:10105000CF9108954F925F926F927F92AF92BF921D
:10106000CF92DF92EF92FF920F931F93CF93DF9374
:10107000CDB7DEB761970FB6F894DEBF0FBECDBF18
:10108000809107018E010F5F1F4F67E471E08111AE
:1010900045C080910E0267E571E0882309F43FC0E6
:1010A000C0901102D09012020D2C000CEE08FF0827
:1010B0002601F7FE07C04424552432014C185D0870
:1010C0006E087F0880910F02909110022AE0A22EF4
:1010D000B12CB5010E9403129B01482FE92FC201D8
:1010E000B5010E940312F7FE36C0EF934F933F9372
:1010F0002F939F938F937F936F9389EB90E09F93B0
:101100008F931F9281E18F931F930F930E941E0F65
:101110000FB6F894DEBF0FBECDBFB80180E00E94CD
:10112000090580911302823009F1833611F1811192
:1011300023C08DE391E020911402223009F45AC0BB
:10114000F0F4222339F1213009F44FC09F938F939B
:1011500088E690E023C0EF934F933F932F939F93A4
:101160008F937F936F9388EA90E0C9CF80E391E0FB
:10117000E2CF86E391E0DFCF82E491E0DCCF243060
:1011800009F442C0E0F1253009F79F938F9381E77E
:1011900090E004C09F938F9380EA90E09F938F9399
:1011A0001F9281E18F931F930F930E941E0F0FB622
:1011B000F894DEBF0FBECDBFB80181E00E940905E3
:1011C00061960FB6F894DEBF0FBECDBFDF91CF9111
:1011D0001F910F91FF90EF90DF90CF90BF90AF9055
:1011E0007F906F905F904F9008959F938F9388E9C1
:1011F00090E0D4CF9F938F938CE890E0CFCF9F93D4
:101200008F9383E890E0CACF9F938F938BE790E012
:10121000C5CF1F920F920FB60F9211242F933F93B9
:101220008F939F93AF93BF938091520290915302FB
:10123000A0915402B09155023091510223E0230F46
:101240002D3758F50196A11DB11D209351028093B1
:10125000520290935302A0935402B093550280918E
:10126000560290915702A0915802B09159020196EE
:10127000A11DB11D8093560290935702A09358026E
:10128000B0935902BF91AF919F918F913F912F9150
:101290000F900FBE0F901F90189526E8230F02960F
:1012A000A11DB11DD2CF1F920F920FB60F92112424
:1012B0002F933F934F935F936F937F938F939F935E
:1012C000AF93BF93EF93FF938BE592E00E94B80337
:1012D000FF91EF91BF91AF919F918F917F916F910E
:1012E0005F914F913F912F910F900FBE0F901F90E4
:1012F00018951F920F920FB60F9211242F938F9370
:101300009F93EF93FF93E0916B02F0916C028081C9
:10131000E0917102F091720282FD1BC09081809178
:1013200074028F5F8F7320917502821741F0E091F4
:101330007402F0E0E55AFD4F958F80937402FF919F
:10134000EF919F918F912F910F900FBE0F901F9053
:1013500018958081F4CF1F920F920FB60F9211242F
:101360002F933F934F935F936F937F938F939F93AD
:10137000AF93BF93EF93FF938091B900887F80363E
:1013800009F44AC0F0F5883209F4A7C018F5803195
:1013900009F49BC0B8F4882309F4F9C0883009F433
:1013A00094C0FF91EF91BF91AF919F918F917F91E9
:1013B0006F915F914F913F912F910F900FBE0F90C2
:1013C0001F901895883109F488C0803251F78093B6
:1013D000CE0114C0803409F49DC040F48033B9F3C9
:1013E0008833F9F68093CE0185ECB0C0803509F4DE
:1013F00085C0883509F496C0883499F60E94D307D1
:10140000D0CF883909F48CC038F5883729F050F4EA
:10141000883611F0803729F683E08093CF0110924F
:10142000CD0157C0883809F47BC0803919F0803865
:1014300009F0B7CF8091CD01803208F071C0E09102
:10144000CD0181E08E0F8093CD018091BB00F0E053
:10145000E355FE4F80833DC0803B39F0E0F4803A95
:1014600009F479C0883A09F09CCF84E08093CF01D9
:101470001092AC011092AB01E091F701F091F801EC
:1014800009958091AB0181110FC081E08093AB0180
:1014900010928B0109C0803C09F4A6CF883C09F466
:1014A000A3CF883B09F07DCFE091AC0181E08E0FA6
:1014B0008093AC01F0E0E557FE4F80818093BB0044
:1014C0009091AC018091AB0129C08091F40180938F
:1014D000BB0085EC8093BC0064CF9091F3018091B8
:1014E000F201981758F5E091F30181E08E0F809397
:1014F000F301F0E0EE52FE4F8081E9CFE091F3017D
:1015000081E08E0F8093F3018091BB00F0E0EE52FA
:10151000FE4F80839091F3018091F2019817C8F2F9
:1015200085E8D8CFE091F30181E08E0F8093F3013D
:101530008091BB00F0E0EE52FE4F80838091D1019C
:1015400081115CCF81E08093D00184EA8093BC005C
:101550001092CF0126CF85EC8093BC001092CF0172
:101560008091CD01803230F4E091CD01F0E0E3557F
:10157000FE4F10826091CD0170E0E091F501F09195
:10158000F6018DEA91E009951092CD010ACF1092F3
:10159000CE0134CFEBE5F2E01382128288EE93E0C5
:1015A000A0E0B0E084839583A683B7832DE031E08B
:1015B0003183208325EC30E03587248724EC30E02C
:1015C0003787268720EC30E0318B208B21EC30E010
:1015D000338B228B22EC30E0358B248B26EC30E0F1
:1015E000378B268B118E128E138E148EE8EFF2E05D
:1015F0001382128284839583A683B7838FE191E05F
:10160000918380830895CF93DF93CDB7DEB72A9778
:101610000FB6F894DEBF0FBECDBF789484B582605C
:1016200084BD84B5816084BD85B5826085BD85B586
:10163000816085BD80916E00816080936E00109204
:10164000810080918100826080938100809181007F
:101650008160809381008091800081608093800010
:101660008091B10084608093B1008091B00081606E
:101670008093B00080917A00846080937A0080919A
:101680007A00826080937A0080917A0081608093F2
:101690007A0080917A00806880937A001092C1006D
:1016A000E0916B02F0916C0282E08083E09167022E
:1016B000F09168021082E0916902F0916A028FEC69
:1016C000808310927302E0916F02F091700286E0C5
:1016D0008083E0916D02F0916E0280818061808351
:1016E000E0916D02F0916E02808188608083E091CC
:1016F0006D02F0916E02808180688083E0916D02BE
:10170000F0916E0280818F7D808361E08EE00E9487
:101710007C0261E08FE00E947C0261E087E00E9431
:101720007C020E94650785E00E945F0584E00E94BC
:101730005F050E942A080E94FF0440E060E080E00C
:101740000E9406071092FC011092FB011092FA0110
:101750001092F9010E94890484E093E09093F801CB
:101760008093F70180E193E09093F6018093F50177
:1017700082E18093BA008CE696E09093FE0180931C
:10178000FD018DEE94E0909300028093FF0180E3D1
:1017900091E00E94C70782E091E00E94C7078BECAE
:1017A00090E00E94C70791E1792E2FE0A22EB12C84
:1017B0003FE3632E47E2542E80E0882E80E0982E8F
:1017C0008FB7F894C0905202D0905302E090540228
:1017D000F09055028FBF9FB7F89480910502209139
:1017E00001022983209102022A83209103022B8384
:1017F000209104022C83109205029FBF882371F16F
:101800008981853A41F463E0CE0101960E94F20697
:101810009C81891779F00E94650710920602409119
:10182000070263E080E00E94060784EE91E00E94D8
:10183000C70714C01A810B81809107021813FAC0E0
:1018400080910C02081751F00E9465071092060261
:101850004091070263E080E00E94060780910D023C
:10186000813031F580910C02813009F031C18091D5
:10187000080290910902A0910A02B0910B02A701FF
:101880009601281B390B4A0B5B0BDA01C90188381A
:101890009341A105B10560F00E94650740910702E0
:1018A00062E081E00E9406078EE592E00E94C70791
:1018B000009120020023B9F14FB7F894FE01319650
:1018C00030E020E0CF01D901AA5EBD4F5C91519379
:1018D0002F5F3F4F2A303105B1F7109220024FBFE2
:1018E0001C81212F2D7F31F0133621F001E01F3FA5
:1018F00009F000E02981213D91F469E00E94F2069F
:101900009A8589130CC02B81273048F4002339F0C5
:101910008F819885893E43E0940708F459C18AE98C
:1019200092E00E94C70780912502882331F18091BF
:101930000701811122C08091210290912202A09181
:101940002302B0912402A7019601281B390B4A0BF0
:101950005B0BDA01C90180339547A105B10568F039
:1019600081E0809307010E942A080E94FF040E94E0
:101970004E0786ED92E00E94C707109150021111A8
:1019800015C280914C0290914D02A0914E02B091EF
:101990004F020097A105B10569F0A7019601281B28
:1019A000390B4A0B5B0BDA01C90188389341A10559
:1019B000B105A0F1C0924C02D0924D02E0924E02CD
:1019C000F0924F0285E00E945F0584E00E945F056F
:1019D0000E9435058823A1F009E085E00E942502D8
:1019E000892B09F04CC184E00E945505C50101977F
:1019F000F1F784E00E945F050E943505811139C12D
:101A00001093500281E0812780934B020E944E0781
:101A10001111BCC182E193E00E94C70781149104B7
:101A200009F4CECE0E94A403882309F4C9CE0E94F3
:101A30000000C2CE01110CC00E9465071092060280
:101A4000412F60E080E00E94060788EC91E0EFCE35
:101A50000E9465072FB7F89480915202909153022B
:101A6000A0915402B09155022FBF80930802909329
:101A70000902A0930A02B0930B02013071F461E0F5
:101A80008EE00E944E0210920602412F61E081E03A
:101A90000E94060787EA91E0CACE023079F461E03D
:101AA00087E00E944E0281E080930602412F61E0B0
:101AB00082E00E94060781E891E0B9CE109206020A
:101AC000412F63E080E00E9406078AE591E0AFCEF7
:101AD00010910C02123009F0EBCE80910602813099
:101AE00039F58091080290910902A0910A02B09103
:101AF0000B02A7019601281B390B4A0B5B0BDA017D
:101B0000C901843F9140A105B10508F4D1CE61E03F
:101B10008FE00E944E0210930602C0920802D092FB
:101B20000902E0920A02F0920B028CE492E0BECE2F
:101B3000823041F58091080290910902A0910A0239
:101B4000B0910B02A7019601281B390B4A0B5B0BC6
:101B5000DA01C90188389341A105B10508F4A8CE7E
:101B600060E08FE00E944E0283E080930602C09204
:101B70000802D0920902E0920A02F0920B028BE274
:101B800092E094CE833009F093CE80910802909138
:101B90000902A0910A02B0910B02A7019601281B2D
:101BA000390B4A0B5B0BDA01C901803D9740A10557
:101BB000B10508F47DCE0E9465071092060240919F
:101BC000070262E082E00E94060784E192E06ECEA6
:101BD0003A813093150220931402109313022D8141
:101BE0003E81309312022093110290931002809351
:101BF0000F028985817080930E0281E08093250217
:101C000010920701C0922102D0922202E092230298
:101C1000F09224020E942A080E94FF040E944E07AC
:101C20000E94460782E892E00E9427046091150214
:101C300070E090E080E04AE00E9471078AE792E05D
:101C40000E9427046091140270E090E080E04AE076
:101C50000E94710783E792E00E94270460911302BB
:101C600070E090E080E04AE00E9471070E94BF07A8
:101C70005ACEC5010197F1F7015009F0AECE0E948E
:101C8000B00585E00E942502019709F0B9CE84E0F5
:101C90000E942502019709F0B3CE0E94F105882326
:101CA00009F463C08EE40E946205082F0E94B0050B
:101CB000002309F45AC050925A0262E370E080E0B7
:101CC00090E00E94D20280E30E944B06882309F430
:101CD00097CE65E070E080E090E00E94D20280E361
:101CE0000E944B06882309F48BCE65E070E080E00B
:101CF00090E00E94D20280E30E944B06882309F400
:101D00007FCE61E070E080E090E00E94D20280E24D
:101D10000E944B06882309F473CE60E088E20E949B
:101D20001806882309F46CCE60E088E00E9418064B
:101D3000882309F465CE60E081E00E9418068823BC
:101D400009F45ECE62E070E080E090E00E94D20292
:101D500060E086E00E941806882309F451CE60E016
:101D60008CE00E941806182F4BCE0E94F1058823A4
:101D700009F446CE8EE70E946205082F0E94B00546
:101D8000002309F43DCE60925A0297CF8BEE92E089
:101D90000E94270460915A0270E090E080E040E1E8
:101DA0000E9471070E94BF070E94FF0480914A02AF
:101DB000882309F433CE00914902809108018823D9
:101DC000D9F080E8011180EC60E00E9418068111D2
:101DD00010C01092500281E080934B02C0924C02DE
:101DE000D0924D02E0924E02F0924F020E944E07B6
:101DF00015CE1092080112CE10914802709EF0018B
:101E00001124EA5DFD4FE10FF11D61E080810E9428
:101E100018068823F1F21F5F10934802103108F46E
:101E2000FDCD011108C081E0809349021092480263
:101E300080930801F3CD10924A02F0CDAEE0B0E0FD
:101E4000E4E2FFE00C94DA110D891E898F89988DE8
:101E50002EE02C831A83098397FF02C080E090E86C
:101E600001979E838D83AE01455E5F4F698D7A8DAC
:101E7000CE0101960E944E0F4D815E8157FD0AC032
:101E80002F813885421753070CF49A01020F131F54
:101E9000F80110822E96E4E00C94F611ABE0B0E06D
:101EA000E4E5FFE00C94CC117C013B018A01FC01CC
:101EB00017821682838181FFC8C1CE0101965C0121
:101EC000F7019381F30193FD859193FF81913F0188
:101ED000882309F453C1853239F493FD859193FF2A
:101EE00081913F01853229F4B70190E00E943E11B3
:101EF000E7CF912C212C312CFFE1F31538F08B32F8
:101F000011F190F4803209F1833229F137FC3CC0A1
:101F100020ED280F2A3050F536FE20C08AE0989E2A
:101F2000200D1124922E06C08D3291F0803371F76E
:101F3000689430F8F30193FD859193FF81913F01FF
:101F40008111DACF21C0689431F8689432F8F2CF69
:101F5000689433F8EFCF689434F8ECCFEAE02E9E23
:101F6000200D1124222E689435F8E4CF8E3229F406
:101F700036FC04C1689436F8DDCF8C3619F46894C9
:101F800037F8D8CF8836B1F2982F9F7D955493308B
:101F9000E0F08336A1F18337C1F1833509F063C0E6
:101FA0002801F2E04F0E511CF801C080D180692D4C
:101FB00070E036FC02C06FEF7FEFC6010E9428116F
:101FC0004C01689437F882010AC00C5F1F4FFFE391
:101FD000F98388248394912C6501E89437F833FEC3
:101FE0002DC0522C8114910471F5552009F468CF4D
:101FF000B70180E290E00E943E115A94F6CFF801BA
:10200000808189830E5F1F4FE4CF2801F2E04F0EDD
:10201000511CF801C080D180692D70E036FC02C0EF
:102020006FEF7FEFC6010E9433114C018201D5CFC3
:10203000B70180E290E00E943E112A94281419040E
:1020400009F0B0F7CECFF60137FC859137FE8191CC
:102050006F01B70190E00E943E1151105A94F1E0D7
:102060008F1A9108BFCF843619F0893609F077C0EE
:10207000F80137FE6BC060817181828193810C5FB2
:102080001F4FF32DFF763F2E97FF09C09095809547
:10209000709561957F4F8F4F9F4F689437F82AE076
:1020A00030E0A5010E946E11C82ECA188C2C432C5A
:1020B00036FE0CC0E89440F8C91440F434FE05C064
:1020C00032FC03C0F32DFE7E4F2E892C44FE95C0BA
:1020D000FE01EC0DF11D8081803309F087C0242DB5
:1020E000297E422E842D8870582E43FC95C040FED8
:1020F0008FC09C2C821418F42C0C922C981844FE3F
:1021000091C0B70180E390E00E943E1142FE09C0F9
:1021100088E790E041FE02C088E590E0B7010E94A8
:102120003E11C91408F48AC0CA94D12C9FEFC91A71
:10213000D90ACA0CDB1CF60182916F01B70190E04D
:102140000E943E11AC14BD04B1F74FCF6081718184
:10215000072E000C880B990B0E5F1F4F92CFD32CCC
:10216000E894D4F82AE030E0853739F1232D297F2F
:10217000D22E8F3601F148F48835A9F0F701868117
:1021800097812B96E2E10C94E811803749F088376B
:10219000A9F7D4FE02C06894D2F820E130E00DC067
:1021A0006894D4F8F6CF34FE03C0822F8660D82E10
:1021B00020E132E002C028E030E0F801D7FE0FC095
:1021C00060817181828193810C5F1F4FA5010E9404
:1021D0006E11C82ECA183D2CE89437F867CF60817D
:1021E000718190E080E00E5F1F4FF0CF42FC02C093
:1021F000839478CF8394839475CF842D867809F463
:1022000071CFF6CFB70180E290E00E943E11839437
:102210008214C0F3512C73CF522C5818821408F436
:102220006ECFF8CF842D867809F47BCF8BE241FE08
:1022300080E247FC8DE2B70190E071CFB70180E307
:1022400090E00E943E119A946CCF8FEF9FEF99CF50
:10225000FC010590615070400110D8F78095909571
:102260008E0F9F1F0895FC01615070400190011076
:10227000D8F7809590958E0F9F1F08950F931F9309
:10228000CF93DF93182F092FEB018B8181FD09C0BC
:102290001FEF0FEF812F902FDF91CF911F910F91A3
:1022A000089582FF14C02E813F818C819D81281763
:1022B00039073CF4E881F981CF010196998388833D
:1022C00010838E819F8101969F838E83E3CFE88563
:1022D000F985812F0995892BA1F3DACFFA01AA2775
:1022E000283051F1203181F1E8946F936E7F6E5F59
:1022F0007F4F8F4F9F4FAF4FB1E03ED0B4E03CD007
:10230000670F781F891F9A1FA11D680F791F8A1FE9
:10231000911DA11D6A0F711D811D911DA11D20D050
:1023200009F468943F912AE0269F11243019305D0A
:102330003193DEF6CF010895462F4770405D4193FB
:10234000B3E00FD0C9F7F6CF462F4F70405D4A3348
:1023500018F0495D31FD4052419302D0A9F7EACF10
:10236000B4E0A6959795879577956795BA95C9F73F
:1023700000976105710508959B01AC010A2E069432
:102380005795479537952795BA95C9F7620F731FEB
:10239000841F951FA01D08952F923F924F925F9228
:1023A0006F927F928F929F92AF92BF92CF92DF9265
:1023B000EF92FF920F931F93CF93DF93CDB7DEB7CA
:1023C000CA1BDB0B0FB6F894DEBF0FBECDBF09945E
:1023D0002A88398848885F846E847D848C849B84B5
:1023E000AA84B984C884DF80EE80FD800C811B81C3
:1023F000AA81B981CE0FD11D0FB6F894DEBF0FBEF2
:10240000CDBFED010895AA1BBB1B51E107C0AA1F58
:10241000BB1FA617B70710F0A61BB70B881F991F85
:102420005A95A9F780959095BC01CD010895A1E238
:102430001A2EAA1BBB1BFD010DC0AA1FBB1FEE1F3E
:10244000FF1FA217B307E407F50720F0A21BB30B89
:10245000E40BF50B661F771F881F991F1A9469F705
:1024600060957095809590959B01AC01BD01CF0161
:102470000895EE0FFF1F0590F491E02D0994F89454
:02248000FFCF8C
:1024820000000000080008010100000000DA033A21
:102492000367034204980376038A0300000000DC0A
:1024A20004D104FC04A704CA04B704A8040D0A005A
:1024B2005A4F4E4532005A4F4E45393900484F4D1A
:1024C20045004E4F4E450054454C454D45545259DA
:1024D200205354414C450044485432322045525214
:0424E2004F52000055
:00000001FF
