:100000000C941E040C9446040C9446040C94460470
:100010000C9446040C9446040C9446040C94460438
:100020000C9446040C9446040C9446040C94460428
:100030000C9446040C9446040C9446040C94460418
:100040000C9485110C9446040C94F5110C94CF116A
:100050000C9446040C9446040C9446040C944604F8
:100060000C9427120C944604534146455F53544F59
:10007000500052455455524E5F484F4D4500574130
:1000800049545F5345525645525F4E4F524D414C75
:10009000005441534B5F52554E4E494E47004D4F11
:1000A00056455F4F5554424F554E4400207265737C
:1000B000756C743D002073657175656E63653D00F8
:1000C0005B4932432D3E307830385D20636F6D6D73
:1000D000616E643D0020726573756C743D00206331
:1000E0006F6D6D616E643D005B4932432D3E30782B
:1000F00030395D2041352073657175656E63653DEE
:10010000005B534146452053544F505D20004D6FD6
:10011000746F72556E6F206E6F7420726573706F9E
:100120006E64696E67004163747561746F72556EB9
:100130006F206E6F7420726573706F6E64696E6786
:100140000020616374696F6E3D005B5345525645F4
:10015000522050524F58595D205441534B207461E6
:10016000726765743D005B534552564552205052AC
:100170004F58595D207461736B2069676E6F7265AB
:10018000643A20726F626F742062757379005B53FA
:1001900045525645522050524F58595D20524554B1
:1001A00055524E2069676E6F72656420756E746972
:1001B0006C206163747561746F7220444F4E45000A
:1001C0005B5345525645522050524F58595D20526C
:1001D000455455524E5F484F4D45202D3E20737477
:1001E0007261696768742072657665727365007202
:1001F000657475726E20636F6D6D616E64206661EB
:10020000696C6564005B5345525645522050524F0D
:1002100058595D20616C726561647920484F4D4585
:10022000202D3E2049444C45005B524F5554455DBE
:1002300020696E7465726D656469617465205A4FDA
:100240004E4532202D3E20636F6E74696E756520B9
:10025000746F205A4F4E453939005B524F55544503
:100260005D2074617267657420726561636865649E
:10027000202D3E206163747561746F722073746108
:100280007274006163747561746F72207461736B52
:10029000206661696C656400524649442073746F3E
:1002A000702041434B2070617468206661696C6501
:1002B0006400756E6578706563746564206F75742D
:1002C000626F756E642073746174696F6E206F72F3
:1002D000646572005B524F5554455D2072657475BC
:1002E000726E20706173736564205A4F4E453220E0
:1002F0002D3E206B65657020726576657273696E40
:100300006720484F4D4500726576657273652D68AC
:100310006F6D6520726573756D65206661696C65CA
:1003200064206174205A4F4E453200756E657870B6
:10033000656374656420726576657273652D686F98
:100340006D652073746174696F6E206F726465727D
:10035000005B524649442050524F58595D20646515
:1003600074656374656420005B43414C49425241AB
:1003700054494F4E5D20484F4D452073796E63655B
:10038000643B2068656164696E673D5A4F4E453233
:100390003B205441534B20656E61626C6564005B89
:1003A00043414C4942524154494F4E5D20464149D8
:1003B0004C45443A2072656C656173652044392F61
:1003C00044313020736F20626F7468206172652041
:1003D00048494748005B524F5554455D20484F4DB2
:1003E000452072656163686564202D3E2049444C58
:1003F0004500484F4D45206D61726B657220626506
:10040000666F7265207265766572736520706173C0
:10041000736564205A4F4E4532005B484F4D45206E
:100420004D41524B45522050524F58595D20646502
:100430007465637465640049324339204352432034
:100440002530325825303258253032582530325830
:1004500025303258253032582F253032580020723E
:100460006573756C743D002062797465733D31303D
:10047000206372633D3078005B444953504C4159CE
:100480002D3E307830395D204431207365713D0058
:1004900020666C6167733D3078005B444953504C73
:1004A00041593C2D307830395D20736571204143CE
:1004B0004B3D005B43414C4942524154494F4E5DD4
:1004C000205441534B2F52455455524E20626C6F6D
:1004D000636B65643B207072657373204431332015
:1004E0006F72206820617420484F4D45005365723B
:1004F00069616C3A20683D43414C49425241544540
:100500002F484F4D452C20322F333D5A3220482F53
:10051000442C20392F303D5A393920482F442C2083
:100520007A2F783D524649442C20723D524554550D
:10053000524E2C20613D53544F500043414C494290
:10054000524154494F4E2052455155495245443A23
:1005500020484F4D45206D61726B6572202B2068DD
:100560002F4431333B206D6F746F72207374617947
:1005700073204F4646004932433A204D6F746F72E4
:100580003D30783038204163747561746F723D304E
:100590007830392C20413520636F6E74726F6C2077
:1005A0002B20443120646973706C6179004D6F7445
:1005B0006F723A20636F6D6D616E6420313D464FFE
:1005C00052574152442C20323D73747261696768FE
:1005D0007420524556455253455F484F4D453B2088
:1005E0006E6F20552D7475726E00526F7574653A7A
:1005F00020484F4D45202D3E205A4F4E4532202D4C
:100600003E205A4F4E4539390053656E736F72550F
:100610006E6F20332D556E6F2070726F7879207257
:100620006561647900414C4C5F53544F50207072A7
:100630006F787920627574746F6E0073657269618A
:100640006C20414C4C5F53544F50002500432048D0
:100650003D00543D0052454144204552524F520006
:100660005B4341522044485432322044345D2000E0
:100670004163747561746F72556E6F20756E657825
:10068000706563746564206E6F6E2D72756E6E6931
:100690006E67207374617465005B5441534B5D2039
:1006A000444F4E45202D3E207072657373204E4F8F
:1006B000524D414C2F52455455524E2070726F7816
:1006C00079004163747561746F72556E6F20737435
:1006D000616C652F6D69736D617463686564207307
:1006E000657175656E6365004163747561746F72E1
:1006F000556E6F204552524F5200416374756174BC
:100700006F72556E6F20737461747573206D6973A9
:1007100073696E670049444C4500484F4D45005A87
:100720004F4E453939005A4F4E4532004E4F4E45D7
:1007300000444548554D49444946590048554D499E
:100740004449465900206163747561746F72436D4A
:10075000643D00206D6F746F72436D643D002061D5
:100760006374696F6E3D00207461726765743D004B
:10077000554E4B4E4F574E002063757272656E7426
:100780003D005B53544154455D206D6F64653D00F1
:100790004D6F746F72556E6F207265626F6F746506
:1007A000643A20484F4D452063616C696272617400
:1007B000696F6E207265717569726564004D6F7442
:1007C0006F72556E6F207374617475732F6B6565EE
:1007D00070616C697665206D697373696E6700007E
:1007E000000000240027002A000000000025002847
:1007F000002B0000000008000201000003040700B5
:100800000000000000000000000000230026002976
:1008100000040404040404040402020202020203A9
:1008200003030303030102040810204080010204B3
:1008300008102001020408102000461311241FBED6
:10084000CFEFD8E0DEBFCDBF11E0A0E0B1E0EEE732
:10085000FAE302C005900D92A638B107D9F723E05C
:10086000A6E8B1E001C01D92A733B207E1F714E09A
:10087000CEE1D4E004C02197FE010E942A1DCD31B3
:10088000D107C9F70E949F130C943D1D0C940000E2
:10089000CF92DF92EF92FF92CF93DF93B0912B0331
:1008A000A0E08111AB2F80912C0390E0880F991F5D
:1008B000AC01495F574FC0903103D0903203E090B4
:1008C0003303F090340330E020E0FA01C591D49175
:1008D000E881B90190E080E0EB23EA130AC02F5FC2
:1008E0003F4F6C157D058E059F0578F36FEF7FEF09
:1008F000CB01DF91CF91FF90EF90DF90CF900895E3
:10090000833081F028F4813099F08230A9F0089585
:100910008730A9F08830C9F08430B1F4809180002C
:100920008F7D03C0809180008F7780938000089531
:1009300084B58F7784BD089584B58F7DFBCF80917A
:10094000B0008F778093B00008958091B0008F7DC4
:10095000F9CF1F93CF93DF93282F30E0F901ED50AB
:10096000F84F8491F901EB5DF74FD491F901EF5EF7
:10097000F74FC491CC23A9F0162F81110E94800457
:10098000EC2FF0E0EE0FFF1FE751F84FA591B49167
:100990008FB7F894EC91111108C0D095DE23DC9349
:1009A0008FBFDF91CF911F910895DE2BF8CFCF93AA
:1009B000DF9390E0FC01EB5DF74F24918F5E974F42
:1009C000FC0184918823D1F090E0880F991FFC01ED
:1009D000E152F84FA591B491FC01E751F84FC59150
:1009E000D491623071F49FB7F8943C91822F809536
:1009F00083238C93E8812E2B28839FBFDF91CF9197
:100A000008958FB7F894EC912E2B2C938FBFF6CFCF
:100A10003FB7F8948091270290912802A091290273
:100A2000B0912A0226B5A89B05C02F3F19F0019668
:100A3000A11DB11D3FBFBA2FA92F982F8827BC0138
:100A4000CD01620F711D811D911D42E0660F771F60
:100A5000881F991F4A95D1F708958F929F92AF9260
:100A6000BF92CF92DF92EF92FF924B015C010E9406
:100A700008056B017C010E9408056C197D098E092F
:100A80009F09683E734081059105A8F321E0821A11
:100A90009108A108B10888EEC80E83E0D81EE11CB9
:100AA000F11C81149104A104B10429F7FF90EF9087
:100AB000DF90CF90BF90AF909F908F9008952FB709
:100AC000F894609123027091240280912502909104
:100AD00026022FBF0895CF92DF92EF92FF920F93DD
:100AE0001F93CF93DF93CDB7DEB7C054D1400FB67D
:100AF000F894DEBF0FBECDBF0E945F0500912D03AD
:100B000010912E0320912F03309130036B017C0153
:100B1000C01AD10AE20AF30A97018601003D174084
:100B20002105310590F480913503C05CDE4F0FB68E
:100B3000F894DEBF0FBECDBFDF91CF911F910F9113
:100B4000FF90EF90DF90CF90089560932D03709306
:100B50002E0380932F03909330031092280310925A
:100B6000270310922603109225031092240362E0BB
:100B7000809129030E94D70461E070E080E090E05A
:100B80000E942D0561E0809129030E94D70460E056
:100B9000809129030E94A90480912A038551823003
:100BA00020F58BE291E10197F1F762E08091290352
:100BB0000E94D7048091360390E08230910538F08E
:100BC000880F991F880F991F05970197F1F7F894DF
:100BD00080E00E9448046F3F7F4F8F4F9F4F61F42A
:100BE00010923503789480E0A0CF64E170E080E05B
:100BF00090E00E942D05D9CF81E00E9448046F3F0C
:100C00007F4F8F4F9F4F61F38E010F5F1F4F6E011C
:100C10002FEBC21A2EEFD20A780180E00E9448041E
:100C2000F701608371838283938381E00E9448048B
:100C3000F7016483758386839783F8E0EF0EF11CD8
:100C4000EC14FD0451F7789430E020E0F801C08006
:100C5000D180E280F3804481558166817781FFEF06
:100C6000CF16DF06EF06FF0631F04F3F8FEF580734
:100C70006807780719F410923503B5CFF90183E0BE
:100C8000F595E7958A95E1F7EC5DFC4F8081880F3B
:100C9000C416D506E606F70610F180832F5F3F4F96
:100CA000085F1F4F2832310589F6409128032091B3
:100CB000240380912503280F3327331F80912603B7
:100CC000280F311D80912703820F932F911D9927A3
:100CD0004817190681F681E08093350326CF81609D
:100CE000DCCF08950895AF92BF92CF92DF92EF923A
:100CF000FF920F931F93CF93DF936C017B018B01C6
:100D0000040F151FEB015E01AE18BF08C017D10715
:100D100059F06991D601ED91FC910190F081E02D9F
:100D2000C6010995892B79F7C501DF91CF911F91F4
:100D30000F91FF90EF90DF90CF90BF90AF9008950C
:100D4000FC01538D448D252F30E0842F90E0821BD1
:100D5000930B541710F0CF96089501970895FC0156
:100D6000918D828D981761F0A28DAE0FBF2FB11DAE
:100D70005D968C91928D9F5F9F73928F90E0089506
:100D80008FEF9FEF0895FC01918D828D981731F0C0
:100D9000828DE80FF11D858D90E008958FEF9FEF14
:100DA0000895FC01918D228D892F90E0805C9F4FEA
:100DB000821B91098F73992708958BE792E00E9417
:100DC000D10621E0892B09F420E0822F089580E0EC
:100DD00090E0892B29F00E94DD0681110C9400001F
:100DE0000895FC01A48DA80FB92FB11DA35ABF4FC0
:100DF0002C91848D90E001968F739927848FA6891A
:100E0000B7892C93A089B1898C91837080648C936D
:100E1000938D848D981306C00288F389E02D80811C
:100E20008F7D80830895EF92FF920F931F93CF934E
:100E3000DF93EC0181E0888F9B8D8C8D98131AC015
:100E4000E889F989808185FF15C09FB7F894EE89FC
:100E5000FF896083E889F989808183708064808359
:100E60009FBF81E090E0DF91CF911F910F91FF90A4
:100E7000EF900895F62E0B8D10E00F5F1F4F0F734C
:100E80001127E02E8C8D8E110CC00FB607FCFACF07
:100E9000E889F989808185FFF5CFCE010E94F106AE
:100EA000F1CFEB8DEC0FFD2FF11DE35AFF4FF082D8
:100EB0009FB7F8940B8FEA89FB8980818062CFCF3E
:100EC0000F931F93CF93DF938C01D0E0C0E0F80124
:100ED000EC0FFD1F6491662341F08BE792E00E94C6
:100EE0001307892B11F02196F2CFCE01DF91CF911C
:100EF0001F910F910895CF93DF93EC01888D882384
:100F0000B9F0AA89BB89E889F9898C9185FD03C06C
:100F1000808186FD0DC00FB607FCF7CF8C9185FF51
:100F2000F2CF808185FFEDCFCE010E94F106E9CF9F
:100F3000DF91CF9108952091D801260F3327331FD9
:100F400021323105ECF420915102FC0190E080E067
:100F5000243069F082E00895A091D8012191AC017C
:100F600048545E4FA40FB52FB11D2C9301968617E0
:100F700098F38091D801680F6093D80180E00895BC
:100F800081E008951092510281E080935002109206
:100F90002B0261E082E10E94A90461E083E10E94EA
:100FA000A904E9EBF0E080818E7F808380818D7FD2
:100FB000808388E48093B80085E48093BC00089522
:100FC000CF93DF9391E0909301028823B9F0C09111
:100FD000B800D091BA008091BC008A7B8093BC009D
:100FE00060E082E10E94A90460E083E10E94A9041C
:100FF0000E94C207D093BA00C093B800DF91CF918E
:1010000008958F929F92AF92BF92CF92DF92EF920C
:10101000FF920F931F93CF93DF93D0917A02D13237
:1010200008F0D7C0182FC09179020E9408056B0103
:101030007C018091510281116BC082E0809351024A
:10104000109350028FEF80934F0210924E02D09374
:101050004D02A9E5B2E0EDE2F2E080E0D81391C0E4
:1010600010922C0280912C02CC0FC82BC0932C0222
:1010700080912B02813009F088C010922B020E94CF
:1010800008056B017C0180912C028093BB0080914C
:10109000530290915402A0915502B0915602892BAF
:1010A0008A2B8B2BA1F00E9408050091530210910E
:1010B000540220915502309156026C197D098E0917
:1010C0009F09061717072807390708F442C08091BF
:1010D000BC0083FDD8CF85EC8093BC000E9408053E
:1010E0006B017C0180915102823009F450C08091E3
:1010F0004F028F3F09F46FC080914F02803209F494
:101100006CC080914F02803309F469C084E026C02E
:101110008091530290915402A0915502B0915602D1
:10112000892B8A2B8B2B09F484CF0E940805809091
:10113000530290905402A0905502B09056026C1940
:101140007D098E099F0986169706A806B90608F03C
:1011500070CF809152020E94E00785E01092580201
:1011600010927A0210925702DF91CF911F910F9146
:10117000FF90EF90DF90CF90BF90AF909F908F90B7
:1011800008959D9191938F5F69CF85EEA5CF809152
:10119000530290915402A0915502B0915602892BAE
:1011A0008A2B8B2B09F49ECF0E94080500915302D5
:1011B0001091540220915502309156026C197D090C
:1011C0008E099F09061717072807390708F08ACFE5
:1011D000C0CF81E0C3CF80E0C1CF82E0BFCF83E04A
:1011E000BDCF0895E09100028091FF01E81730F42F
:1011F000F0E0E856FE4F808190E008958FEF9FEF7A
:101200000895909100028091FF012FEF3FEF981712
:1012100048F4E92FF0E0E856FE4F208130E09F5F70
:1012200090930002C90108958091FF0190910002FE
:10123000891B990B0895CF92DF92EF92FF920F9343
:101240001F93CF93DF937C01CB018A01209157023A
:10125000222389F0EB016B01C40ED51ECC15DD05F0
:1012600069F06991D701ED91FC910190F081E02D39
:10127000C7010995F3CF642F0E949B07C801DF9136
:10128000CF911F910F91FF90EF90DF90CF90089535
:10129000CF93DF931F92CDB7DEB7698320915702BA
:1012A0002223F9F020917A02203258F021E030E038
:1012B000FC013383228390E080E00F90DF91CF9197
:1012C000089580915802E82FF0E0E75AFD4F998188
:1012D00090838F5F8093580280937A0281E090E040
:1012E000ECCF61E0CE0101960E949B07F7CF90E022
:1012F00080E0089580910102882369F080910102C5
:10130000109201028091B9008C7F81608093B900B6
:1013100086EC8093B8000895282FFC0180E037E028
:101320009191892798E087FF09C0880F8327915002
:10133000D1F79E2F921B961798F30895880FF7CF39
:10134000FC0101900020E9F73197AF01481B590BD0
:10135000BC018BE792E00C947306CF93DF930E945D
:101360006007EC0186E791E00E94A0098C0F9D1FA9
:10137000DF91CF9108958F929F92AF92BF920F937A
:101380001F93CF93DF93CDB7DEB7A1970FB6F89435
:10139000DEBF0FBECDBF19A2423008F44AE08E0175
:1013A0000F5D1F4F842E912CB12CA12CA50194010F
:1013B0000E94081DE62FB901CA01EA30F4F4E05D8D
:1013C000D801EE938D01232B242B252B79F790E068
:1013D00080E0109719F0CD010E94A009A1960FB6E8
:1013E000F894DEBF0FBECDBFDF91CF911F910F915B
:1013F000BF90AF909F908F900895E95CE1CF462F0A
:10140000682F70E090E080E00C94BB09CF93DF93ED
:101410000E94FF09EC0186E791E00E94A0098C0F71
:101420009D1FDF91CF9108954F925F926F927F92AF
:101430008F929F92AF92BF92CF92DF92EF92FF92E4
:101440000F931F93CF936B017C01742EAC019B0112
:101450000E94031D882399F089E791E0CF911F91A5
:101460000F91FF90EF90DF90CF90BF90AF909F9043
:101470008F907F906F905F904F900C94A0094601E1
:101480005701E894B7F82FEF3FEF4FE75FE7C5014B
:10149000B4010E94031D81110DC02FEF3FEF4FE7F4
:1014A0005FE7C501B4010E94321B18161CF48DE7DA
:1014B00091E0D4CF2FEF3FEF4FE75FE4C701B601D4
:1014C0000E94911C18161CF481E891E0C7CF2FEF01
:1014D0003FEF4FE75FECC701B6010E94321B87FD6B
:1014E000F3CF20E030E0A901C701B6010E94321B12
:1014F00010E000E087FF0AC06DE28BE792E00E94F7
:1015000013078C01F7FAF094F7F8F094C0E060E06C
:1015100070E080E09FE37C1641F020E030E040E2A4
:1015200051E40E94371BCF5FF6CFA70196010E94BE
:10153000C61A2B013C010E94B01B4B015C014AE022
:101540000E94BB097C01E00EF11ECC23C1F1C50154
:10155000B4010E94DF1B9B01AC01C301B2010E94D8
:10156000C51A4B015C016EE28BE792E00E94130703
:10157000E80EF91EC15018F120E030E040E251E4DD
:10158000C501B4010E94961C2B013C010E94B01BB6
:101590004B01B12CA12C4AE0C501B4010E94BB094A
:1015A000E80EF91EC501B4010E94DF1B9B01AC01CE
:1015B000C301B2010E94C51A4B015C01DBCFC70118
:1015C000CF911F910F91FF90EF90DF90CF90BF9040
:1015D000AF909F908F907F906F905F904F90089505
:1015E0004F925F926F927F92AF92BF92CF92DF92B3
:1015F000EF92FF920F931F93CF93DF93F82EC62F96
:10160000E82EEE0C8901A42EA60ED1E0DD24DA949A
:1016100085EEC82E95ECB92ED0935702F092790240
:101620001092580210927A026C2F88E193E00E9487
:10163000480981E00E940108782E0E947A09711001
:10164000E8C062E070E080E090E00E942D050E941A
:1016500008052B013C0180915102811162C0D09399
:101660005102D0935002D0924F0210924E0210922B
:101670004D02D0932C0280912C028E2980932C0253
:1016800080912B02813009F08BC010922B020E94B6
:1016900008052B013C0180912C028093BB008091B6
:1016A000530290915402A0915502B0915602892B99
:1016B0008A2B8B2BA1F00E940805209153023091B8
:1016C00054024091550250915602641975098609D9
:1016D0009709261737074807590708F443C0809130
:1016E000BC0083FDD8CFB092BC000E9408052B013E
:1016F0003C0180915102813009F455C080914E0225
:1017000077247394811102C070904E02ADE2B2E072
:10171000E8E9F1E080E0871551F19D9191938F5FA9
:10172000FACF8091530290915402A0915502B0914A
:101730005602892B8A2B8B2B09F48DCF0E9408052A
:10174000209153023091540240915502509156021B
:101750006419750986099709261737074807590735
:1017600008F079CF809152020E94E007712C10920C
:1017700000027092FF010E947A0981E0781235C060
:1017800088E193E00E940109F80181938F01809123
:101790000002813099F188E193E00E940109F7CFBE
:1017A000C092BC00A2CF8091530290915402A091AC
:1017B0005502B0915602892B8A2B8B2B09F499CFB5
:1017C0000E94080520915302309154024091550225
:1017D000509156026419750986099709261737072B
:1017E0004807590708F085CFBDCF809100027816D1
:1017F00081F088E193E00E940109F7CF61E070E099
:1018000080E090E00E942D05CF5FCA1105CF81E0F6
:1018100001C080E0DF91CF911F910F91FF90EF9079
:10182000DF90CF90BF90AF907F906F905F904F9080
:101830000895CF92DF92EF92FF920F931F93CF9371
:10184000DF9300D01F92CDB7DEB7182F009186012D
:101850000F5F0093860181E08093570288E08093B8
:1018600079021092580210927A02612F88E193E077
:101870000E944809602F88E193E00E94480981E0B6
:101880000E940108F82E0E947A0980EC90E00E94E4
:1018900060076AE070E0812F0E94FF0985EB90E00D
:1018A0000E9460076AE070E0802F0E94FF098CEAC6
:1018B00090E00E9460076AE070E08F2D0E94060AA7
:1018C000FF2011F080E01FC0153049F563E070E0A3
:1018D00080E090E00E942D059E012F5F3F4F43E086
:1018E00060EE88E00E94F00A882369F0898199EF10
:1018F000980F923018F410921D02E4CF9CEF980FCD
:1019000081E09230F8F20F900F900F90DF91CF911D
:101910001F910F91FF90EF90DF90CF9008950E945C
:101920005F056B017C010E945F056C197D098E09C2
:101930009F09643F71408105910520F69E012F5F4C
:101940003F4F43E060EE88E00E94F00A882371F088
:1019500099813A812B81131309C0021307C01730F4
:1019600061F49830C1F410931102CDCF65E070E0BE
:1019700080E090E00E942D05D6CF111107C029EF1D
:10198000992389F3290F223030F4EDCF2FEF163051
:10199000C9F7992341F39750923008F093CFABCF1A
:1019A00085ED8093BC008091530290915402A091E8
:1019B0005502B09156020796A11DB11D23E0B695C0
:1019C000A795979587952A95D1F72091BC0024FD7E
:1019D00003C0109251020895409153025091540255
:1019E0006091550270915602452B462B472B69F3A7
:1019F0000097A105B10541F02AE22A95F1F700C050
:101A00000197A109B109E1CF809152020C94E0073E
:101A1000AF92BF92CF92DF92EF92FF920F931F93FC
:101A2000CF93DF93CDB7DEB7AE970FB6F894DEBF96
:101A30000FBECDBF5C016B017A019E01275D3F4F58
:101A400046E060EF89E00E94F00A182F811113C070
:101A500010E0812FAE960FB6F894DEBF0FBECDBF5B
:101A6000DF91CF911F910F91FF90EF90DF90CF907A
:101A7000BF90AF90089565E0CE0189960E948C09D1
:101A8000082F8EA5081709F455C00E945F05C09065
:101A90008801D0908901E0908A01F0908B01C114F7
:101AA000D104E104F10479F09B01AC012C193D094A
:101AB0004E095F0969017A0138EEC31633E0D30697
:101AC000E104F10428F26093880170938901809306
:101AD0008A0190938B011F920F938EA51F928F9373
:101AE0008DA51F928F938CA51F928F938BA51F920C
:101AF0008F938AA51F928F9389A51F928F9387E357
:101B000094E09F938F931F9288E28F938E010F5FD3
:101B10001F4F1F930F930E94E017C8010E94A00956
:101B200086E791E00E94A0090FB6F894DEBF0FBED1
:101B3000CDBF8ECF89A5F50180838AA5F60180836C
:101B40008BA5F70180838CA580938D019DA5909333
:101B50008C0190FF7ECF90918F0189137ACF1092E4
:101B60008E0177CF3F924F925F926F927F928F92CA
:101B70009F92AF92BF92CF92DF92EF92FF920F931C
:101B80001F93CF93DF93CDB7DEB763970FB6F8946B
:101B9000DEBF0FBECDBF6B017C011091470184E019
:101BA000133079F040F481E0113059F0123009F42B
:101BB00045C180E006C085E0143019F086E015309C
:101BC000C1F78B8780911D02882309F43FC1809162
:101BD0001302813009F43CC1823009F03BC183E635
:101BE0008C8730900A02332009F436C180903F017F
:101BF00090904001A0904101B090420120E030E07F
:101C000040E251E4C501B4010E94961C2B013C0145
:101C100020E030E0A901C501B4010E94911C20E040
:101C200030E040E05FE387FF04C020E030E040E0C8
:101C30005FEBC301B2010E94C61A0E94A91BB62E17
:101C4000072F20E030E040E251E4609143017091C1
:101C5000440180914501909146010E94961C20E02C
:101C600030E040E05FE30E94C61A0E94B01BBD86D0
:101C70000E876F87788B82E0311083E09FEF910FA2
:101C8000943008F0EEC08460898B8091970188239E
:101C900051F047E050E060E971E0CE010B960E9400
:101CA000301D892B09F187E0FE013B96A0E9B1E0E8
:101CB00001900D928A95E1F791E0909397018091C0
:101CC0008F018F5F80938F0190938E01D701C601A2
:101CD000845F9140A109B1098093060290930702A5
:101CE000A0930802B093090280910202909103022E
:101CF000A0910402B091050297018601081B190BFF
:101D00002A0B3B0BD901C80120918E01222309F433
:101D1000ADC0409106025091070260910802709197
:101D2000090297018601041B150B260B370BB9011D
:101D3000A801443F11E051076105710508F49DC0F9
:101D400081ED898380918F018A8387E0E0E9F1E06A
:101D5000DE01139601900D928A95E1F769E0CE01BC
:101D600001960E948C098A8781E08093570289E05E
:101D7000809379021092580210927A024AE050E061
:101D8000BE016F5F7F4F88E193E00E941B0981E0F5
:101D90000E940108182F0E947A09C0920602D09270
:101DA0000702E0920802F0920902C0920202D09269
:101DB0000302E0920402F092050288E794E00E9498
:101DC00060076AE070E080918F010E94FF0987E65A
:101DD00094E00E9460078A85803128F460E38BE7F5
:101DE00092E00E94130760E170E08A850E94FF097B
:101DF0008EE594E00E9460076AE070E0812F0E9407
:101E0000060A111103C081E080938E0163960FB61C
:101E1000F894DEBF0FBECDBFDF91CF911F910F9120
:101E2000FF90EF90DF90CF90BF90AF909F908F90FA
:101E30007F906F905F904F903F9008958091120235
:101E4000813011F482E0BDCE83E0BBCE8FEFC8CEEF
:101E500082E0C6CE80E0C4CE60E070E0B12C00E04D
:101E600006CF153009F010CF88600ECF803D974027
:101E7000A105B10508F064CFC9CF803D9740A10509
:101E8000B10508F05DCF483251056105710508F4D0
:101E9000BDCFAE014D5E5F4FBE016E5E7F4FCE0186
:101EA00001960E94080D882309F4B0CF80918E011D
:101EB0008111ACCF8AE994E00E9460076AE070E08B
:101EC00080918D010E94FF0980E994E00E946007E3
:101ED00060E170E080918C010E94060A97CFCF925A
:101EE000DF92EF92FF920F931F93CF93DF9300D077
:101EF00000D000D01F92CDB7DEB7082F1091870118
:101F00001F5F109387011C821B8285EA89831A83D5
:101F10000B8363E0CE0101960E948C098C8381E0E3
:101F20008093570289E080937902109258021092B0
:101F30007A0244E050E0BE016F5F7F4F88E193E09A
:101F40000E941B0981E00E940108F82E0E947A0974
:101F500088EE90E00E9460076AE070E0812F0E94A6
:101F6000FF098EED90E00E9460076AE070E0802F2C
:101F70000E94FF0985ED90E00E9460076AE070E032
:101F80008F2D0E94060AFF2011F080E02EC00E94D3
:101F90005F056B017C010E945F056C197D098E094C
:101FA0009F09643F71408105910578F7AE01495F53
:101FB0005F4FBE016A5F7F4FCE0105960E94080DFC
:101FC000882311F19F8119131FC02D812330E9F25D
:101FD00091E0011101C090E02913D7CF9E819013A9
:101FE000D4CF0093100210930F0227960FB6F894E7
:101FF000DEBF0FBECDBFDF91CF911F910F91FF903C
:10200000EF90DF90CF90089565E070E080E090E081
:102010000E942D05C0CF80E00E94190C80E00E9434
:102020006F0F85E08093470183EB94E00E94AD0938
:1020300080E00895CF93DF93EC0180E00E94190CBB
:1020400080E00E946F0F109213021092120285E03E
:102050008093470181E091E00E946007CE01DF910B
:10206000CF910C94AD09CF93DF938AE194E00E9465
:10207000AD0980911D02811134C085E08093470134
:10208000109213021092120287E00E94190CD82FAE
:1020900080E00E94190CC82F80E00E946F0FDD23A2
:1020A000D1F0CC23C1F08823B1F086E00E94190C56
:1020B000882389F081E080931D021092140210920F
:1020C0001302109212021092470188E693E0DF910A
:1020D000CF910C94AD0980E00E94190C8FE993E038
:1020E000F6CF80914701843021F480911402813031
:1020F00031F082EF93E0DF91CF910C941A1080E0E1
:102100000E94190C80E00E946F0F1092140210922E
:102110001302109212021092470185ED93E0D7CF7F
:10212000CF93C82F81E593E00E94600786E297E095
:10213000C13011F08FE197E00E94AD098091470115
:10214000813091F5809114028C1720F48091130254
:102150008C1728F482EB92E0CF910C941A1080E057
:102160000E94190C811103C088E992E0F5CFC09359
:10217000140280911302C81311C0809112020E94B0
:102180006F0F811103C083E892E0E6CF82E0809375
:1021900047018AE592E0CF910C94AD0981E10E945C
:1021A000190C89E292E0F7CF8430C9F4C13021F4F0
:1021B00080911402823019F08BE293E0CDCF80E061
:1021C0000E94190CC093140282E10E94190C811123
:1021D00003C087E093E0C0CF84ED92E0DCCFCF91E5
:1021E000089580911D028823A1F08091140281112D
:1021F00015C080E00E94190C80E00E946F0F1092C1
:102200001302109212021092470185E092E00C94A2
:10221000AD090E940B108111E8CF0895809147010C
:10222000823019F48EE891E0F2CF80E00E946F0FC7
:10223000109213021092120282E10E94190C811175
:1022400004C08FEE91E00C941A1084E08093470153
:1022500080EC91E0DCCFCF93DF93D82FC62F809115
:102260001D02882399F180914701811136C0D093D6
:102270001302C09312028AE491E00E9460078FE18A
:1022800097E0D13011F486E297E00E94600781E484
:1022900091E00E94600781E397E0C13011F48CE384
:1022A00097E00E94AD099091140280911302981357
:1022B00022C080E00E94190C809112020E946F0FD0
:1022C000882399F082E08093470104C00E940B109C
:1022D0008111C9CFDF91CF910895833041F286E615
:1022E00091E0DF91CF910C94AD0986E291E0DF910E
:1022F000CF910C941A1081E10E94190C811103C036
:102300008EE091E0F4CF81E0DECF1F920F920FB606
:102310000F9211242F933F938F939F93AF93BF936B
:102320008091230290912402A0912502B09126026F
:102330003091220223E0230F2D3758F50196A11D7D
:10234000B11D209322028093230290932402A09334
:102350002502B09326028091270290912802A09135
:102360002902B0912A020196A11DB11D8093270276
:1023700090932802A0932902B0932A02BF91AF91B3
:102380009F918F913F912F910F900FBE0F901F90B3
:10239000189526E8230F0296A11DB11DD2CF1F92DA
:1023A0000F920FB60F9211242F933F934F935F9389
:1023B0006F937F938F939F93AF93BF93EF93FF930D
:1023C0008BE792E00E94F106FF91EF91BF91AF91F0
:1023D0009F918F917F916F915F914F913F912F913D
:1023E0000F900FBE0F901F9018951F920F920FB66F
:1023F0000F9211242F938F939F93EF93FF93E0916C
:102400008B02F0918C028081E0919102F091920216
:1024100082FD1BC09081809194028F5F8F73209109
:102420009502821741F0E0919402F0E0E558FD4FEB
:10243000958F80939402FF91EF919F918F912F91AF
:102440000F900FBE0F901F9018958081F4CF1F92B0
:102450000F920FB60F9211242F933F934F935F93D8
:102460006F937F938F939F93AF93BF93EF93FF935C
:102470008091B900887F803609F44AC0F0F588322F
:1024800009F4A7C018F5803109F49BC0B8F488237B
:1024900009F4F9C0883009F494C0FF91EF91BF911D
:1024A000AF919F918F917F916F915F914F913F91EC
:1024B0002F910F900FBE0F901F901895883109F43F
:1024C00088C0803251F780934F0214C0803409F4E1
:1024D0009DC040F48033B9F38833F9F680934F02FE
:1024E00085ECB0C0803509F485C0883509F496C004
:1024F000883499F60E94D00CD0CF883909F48CC06A
:1025000038F5883729F050F4883611F0803729F6ED
:1025100083E0809351021092FA0157C0883809F481
:102520007BC0803919F0803809F0B7CF8091FA016B
:10253000803208F071C0E091FA0181E08E0F809343
:10254000FA018091BB00F0E0E652FE4F80833DC06F
:10255000803B39F0E0F4803A09F479C0883A09F018
:102560009CCF84E0809351021092D9011092D8013F
:10257000E091FD01F091FE0109958091D801811152
:102580000FC081E08093D8011092B80109C0803C4F
:1025900009F4A6CF883C09F4A3CF883B09F07DCF8E
:1025A000E091D90181E08E0F8093D901F0E0E854E9
:1025B000FE4F80818093BB009091D9018091D8011A
:1025C00029C080912C028093BB0085EC8093BC00D5
:1025D00064CF90914E0280914D02981758F5E0918A
:1025E0004E0281E08E0F80934E02F0E0E35DFD4FDE
:1025F0008081E9CFE0914E0281E08E0F80934E0200
:102600008091BB00F0E0E35DFD4F808390914E022E
:1026100080914D029817C8F285E8D8CFE0914E021C
:1026200081E08E0F80934E028091BB00F0E0E35D6D
:10263000FD4F80838091500281115CCF81E08093B7
:102640002B0284EA8093BC001092510226CF85ECC5
:102650008093BC00109251028091FA01803230F4D4
:10266000E091FA01F0E0E652FE4F10826091FA012B
:1026700070E0E091FB01F091FC018AED91E0099599
:102680001092FA010ACF10924F0234CFEBE7F2E03A
:102690001382128288EE93E0A0E0B0E084839583F9
:1026A000A683B78326E531E03183208325EC30E033
:1026B0003587248724EC30E03787268720EC30E00C
:1026C000318B208B21EC30E0338B228B22EC30E0FD
:1026D000358B248B26EC30E0378B268B118E128EB7
:1026E000138E148EE8E1F3E01382128284839583C3
:1026F000A683B78388E691E091838083A4E2B3E068
:1027000084E015968C93159786E116968C93169710
:10271000E9E2F8E0E4911796EC931797E5E1F8E029
:10272000E4911896EC93189740E85EE360E070E05F
:102730001D964D935D936D937C9350970895CF9321
:10274000DF93CDB7DEB72C970FB6F894DEBF0FBE80
:10275000CDBF789484B5826084BD84B5816084BD2A
:1027600085B5826085BD85B5816085BD80916E002F
:10277000816080936E001092810080918100826060
:10278000809381008091810081608093810080919D
:1027900080008160809380008091B100846080938C
:1027A000B1008091B00081608093B00080917A0088
:1027B000846080937A0080917A00826080937A00AE
:1027C00080917A00816080937A0080917A0080689D
:1027D00080937A001092C100E0918B02F0918C02FC
:1027E00082E08083E0918702F09188021082E0917C
:1027F0008902F0918A0280E1808310929302E09135
:102800008F02F091900286E08083E0918D02F0913A
:102810008E02808180618083E0918D02F0918E0232
:10282000808188608083E0918D02F0918E028081AA
:1028300080688083E0918D02F0918E0280818F7D8F
:10284000808362E0809129030E94D7040E945F0583
:10285000605D77408109910960932D0370932E0389
:1028600080932F039093300387E3809336036FE3C5
:10287000E62E61E0F62E00E011E062E0F8018081D2
:102880000E94D704095F1F4FE016F106B1F71092BE
:1028900000021092FF011092580210927A020E94D8
:1028A000C20781E796E09093FE018093FD0182E7E5
:1028B00096E09093FC018093FB011092010288EA5C
:1028C00091E6A0E0B0E08093530290935402A0936D
:1028D0005502B093560281E0809352028091B90074
:1028E0008C7F81608093B90086EC8093B80064E6A9
:1028F00070E080E090E00E942D0580E00E94190CBD
:1029000080E00E946F0F0E945F056B017C01F4EF75
:10291000CF1AF1E0DF0AE108F108C0920602D09276
:102920000702E0920802F09209026B017C0120ED9F
:10293000C21A27E0D20AE108F108C0920202D0923E
:102940000302E0920402F09205020E94B20D89E0B7
:1029500096E00E94AD098AEE95E00E94AD098DEAED
:1029600095E00E94AD0986E795E00E94AD098BE3F2
:1029700095E00E94AD098DEE94E00E94AD090E94A1
:102980005F054B015C01AE014F5F5F4F7A0150E084
:10299000C52E51E0D52E7E2CFC86F601208130E03C
:1029A000F901ED50F84F8491F901EB5DF74F649018
:1029B000F901EF5EF74F54905520A1F181110E946B
:1029C0008004E52DF0E0EE0FFF1FE95FF74FA591C2
:1029D000B491EC916E2231E020E009F430E0832FD5
:1029E000922F282F2170F601228383829482A58260
:1029F000B68231812317C9F02183F1E08F278170DE
:102A0000F70181937F01F7E0CF0ED11C0C151D0556
:102A100009F0C3CF8E81882351F085E296E00E94B1
:102A20001A1035C090E080E0DCCF80E0E9CF8981EA
:102A3000882321F061E081E00E942B118A818823A4
:102A400021F062E081E00E942B118B81882321F02C
:102A500061E082E00E942B118C81882321F062E0EA
:102A600082E00E942B118D8181110E94F1108F81D3
:102A7000882319F081E00E9490108885882319F03E
:102A800082E00E949010898581110E9433108BE7AB
:102A900092E00E94D106892B71F18BE792E00E94AF
:102AA000AF0661E0823319F0833329F462E081E0FC
:102AB0000E942B11ECCF61E0893319F0803319F4B7
:102AC00062E082E0F5CF8F7D823519F40E94F1102B
:102AD000DECF813419F48BE396E0A1CF8A3521F45F
:102AE00081E00E949010D3CF883511F482E0F9CFB5
:102AF000883469F6CACF80910B0290910C02A091A4
:102B00000D02B0910E02A5019401281B390B4A0B4E
:102B10005B0BDA01C901843C9940A105B10508F4B9
:102B2000FFC080920B0290920C02A0920D02B09214
:102B30000E020E946B05882351F080912A038B308E
:102B400030F08D3058F08551823008F440C0212C8F
:102B5000312C30EC432E3FE7532E1EC060912503ED
:102B600070E090E080E00E94E11B2DEC3CEC4CEC2E
:102B70005DE30E94961C6B017C016091240370E070
:102B800090E080E00E94E11B9B01AC01C701B6010F
:102B90000E94C61A1B012C0120924301309244016D
:102BA00040924501509246010E946B05882341F0F6
:102BB00080912A038C3009F41BC1D8F48B3091F139
:102BC000C12CD12C90ECE92E9FE7F92E55C06091D5
:102BD00024037091250376276727762790E080E00D
:102BE0000E94DF1B2DEC3CEC4CEC5DE30E94961C3C
:102BF000D1CF8551823020F760902603662D70E09A
:102C0000762F662766277F7780912703682B90E0D1
:102C100080E00E94DF1B2DEC3CEC4CEC5DE30E945D
:102C2000961C02C16091260370E090E080E00E9453
:102C3000DF1B6B017C016090270367FE0AC0AC01BB
:102C40009B0160E070E080E89FEB0E94C51A6B0179
:102C50007C01662D6F7070E090E080E00E94E11BC7
:102C60002DEC3CEC4CEC5DE30E94961CA701960118
:102C70000E94C61A6B017C01C0923F01D0924001B4
:102C8000E0924101F0924201A2019101C201B10121
:102C90000E94031D81111DC0A7019601C701B60145
:102CA0000E94031D811115C020E030E0A901C2017E
:102CB000B1010E94911C87FD0CC06624639420E042
:102CC00030E048EC52E4C201B1010E94321B1816F8
:102CD0000CF4612C60920A0280E696E00E94600784
:102CE00085E596E06620D1F082E596E00E946007D7
:102CF00041E0C701B6010E94140A8DE496E00E94EB
:102D00006007609143017091440180914501909169
:102D1000460141E00E94140A8BE496E00E94AD094E
:102D2000C501B4010E94B20D80914701813011F0BC
:102D3000843059F580911E0290911F02A0912002CB
:102D4000B0912102A5019401281B390B4A0B5B0BA2
:102D5000DA01C90180399140A105B105B0F0809236
:102D60001E0290921F02A0922002B092210285E0E2
:102D70000E94190C811109C080911D02882309F459
:102D80005CC08DEB97E00E941A1080914701823061
:102D900009F078C08091190290911A02A0911B024B
:102DA000B0911C02A5019401281B390B4A0B5B0B47
:102DB000DA01C90184369105A105B10508F462C0A4
:102DC0008092190290921A02A0921B02B0921C02E9
:102DD000472D5C85BE01665F7F4FCE010B960E943A
:102DE000080D81112DC08AEF96E00E941A104AC08A
:102DF00060902603662D70E090E080E00E94DF1B6B
:102E00006B017C01609127036F7070E090E080E0BF
:102E10000E94E11B2DEC3CEC4CEC5DE30E94961C07
:102E2000A70196010E94C61A6B017C0167FE24CFA0
:102E3000F7FAF094F7F8F0941FCF80E997E0A3CF6A
:102E40008B85833019F488EE96E0CFCF298190915D
:102E50000F02291305C02A8590911202291719F033
:102E600082EC96E0C2CF813069F0823009F090C0E8
:102E700080E00E946F0F83E08093470189E996E02C
:102E80000E94AD098091150290911602A09117023F
:102E9000B0911802A5019401281B390B4A0B5B0B5A
:102EA000DA01C901883E9340A105B10508F463C069
:102EB0008092150290921602A0921702B092180208
:102EC00082E897E00E946007E0914701E15085E1C8
:102ED00097E0E53038F4F0E0EE0FFF1FE85BFE4FBF
:102EE000808191810E94600788E797E00E946007D7
:102EF00080911D02882309F454C08091140281300E
:102F000009F449C0823009F049C08FE197E00E947E
:102F1000600787E697E00E94600780911302813086
:102F200009F442C0823009F042C08FE197E00E946C
:102F300060078EE597E00E94600780911202813061
:102F4000C9F18230D1F581E397E00E94600783E503
:102F500097E00E9460076AE070E0809111020E9491
:102F6000FF0985E497E00E9460076AE070E08091C5
:102F700010020E94060A80E090E0892B09F4FFCC41
:102F80000E94DD06882309F4FACC0E940000F7CCE9
:102F900080E796E02ACF86E297E0B9CF8AE197E012
:102FA000B6CF80E797E0B3CF86E297E0C0CF8AE163
:102FB00097E0BDCF8CE397E0C8CF8CE297E0C5CF18
:102FC000AEE0B0E0E6EEF7E10C949C1A0D891E89A4
:102FD0008F89988D2EE02C831A83098397FF02C076
:102FE00080E090E801979E838D83AE01455E5F4F40
:102FF000698D7A8DCE0101960E9410184D815E81F7
:1030000057FD0AC02F813885421753070CF49A01E7
:10301000020F131FF80110822E96E4E00C94B81AE8
:10302000ABE0B0E0E6E1F8E10C948E1A7C013B01E4
:103030008A01FC0117821682838181FFC8C1CE01FB
:1030400001965C01F7019381F30193FD859193FF54
:1030500081913F01882309F453C1853239F493FDEE
:10306000859193FF81913F01853229F4B70190E06A
:103070000E94001AE7CF912C212C312CFFE1F3158F
:1030800038F08B3211F190F4803209F1833229F15A
:1030900037FC3CC020ED280F2A3050F536FE20C00A
:1030A0008AE0989E200D1124922E06C08D3291F058
:1030B000803371F7689430F8F30193FD859193FFA5
:1030C00081913F018111DACF21C0689431F8689471
:1030D00032F8F2CF689433F8EFCF689434F8ECCF3D
:1030E000EAE02E9E200D1124222E689435F8E4CFBC
:1030F0008E3229F436FC04C1689436F8DDCF8C3664
:1031000019F4689437F8D8CF8836B1F2982F9F7D9C
:1031100095549330E0F08336A1F18337C1F18335C4
:1031200009F063C02801F2E04F0E511CF801C08085
:10313000D180692D70E036FC02C06FEF7FEFC601D1
:103140000E94EA194C01689437F882010AC00C5FAA
:103150001F4FFFE3F98388248394912C6501E89441
:1031600037F833FE2DC0522C8114910471F555208F
:1031700009F468CFB70180E290E00E94001A5A94E7
:10318000F6CFF801808189830E5F1F4FE4CF2801BD
:10319000F2E04F0E511CF801C080D180692D70E023
:1031A00036FC02C06FEF7FEFC6010E94F5194C019B
:1031B0008201D5CFB70180E290E00E94001A2A94E4
:1031C0002814190409F0B0F7CECFF60137FC859129
:1031D00037FE81916F01B70190E00E94001A5110F3
:1031E0005A94F1E08F1A9108BFCF843619F08936CE
:1031F00009F077C0F80137FE6BC060817181828170
:1032000093810C5F1F4FF32DFF763F2E97FF09C070
:1032100090958095709561957F4F8F4F9F4F6894E3
:1032200037F82AE030E0A5010E94301AC82ECA18EB
:103230008C2C432C36FE0CC0E89440F8C91440F4A2
:1032400034FE05C032FC03C0F32DFE7E4F2E892CC8
:1032500044FE95C0FE01EC0DF11D8081803309F024
:1032600087C0242D297E422E842D8870582E43FC41
:1032700095C040FE8FC09C2C821418F42C0C922C0C
:10328000981844FE91C0B70180E390E00E94001AB4
:1032900042FE09C088E790E041FE02C088E590E068
:1032A000B7010E94001AC91408F48AC0CA94D12C2C
:1032B0009FEFC91AD90ACA0CDB1CF60182916F0173
:1032C000B70190E00E94001AAC14BD04B1F74FCFD3
:1032D00060817181072E000C880B990B0E5F1F4FC8
:1032E00092CFD32CE894D4F82AE030E0853739F136
:1032F000232D297FD22E8F3601F148F48835A9F08D
:10330000F701868197812B96E2E10C94AA1A803707
:1033100049F08837A9F7D4FE02C06894D2F820E1BA
:1033200030E00DC06894D4F8F6CF34FE03C0822F8D
:103330008660D82E20E132E002C028E030E0F801BB
:10334000D7FE0FC060817181828193810C5F1F4F16
:10335000A5010E94301AC82ECA183D2CE89437F8EF
:1033600067CF6081718190E080E00E5F1F4FF0CFEA
:1033700042FC02C0839478CF8394839475CF842DCC
:10338000867809F471CFF6CFB70180E290E00E9411
:10339000001A83948214C0F3512C73CF522C581806
:1033A000821408F46ECFF8CF842D867809F47BCF91
:1033B0008BE241FE80E247FC8DE2B70190E071CFE5
:1033C000B70180E390E00E94001A9A946CCF8FEFCF
:1033D0009FEF99CFFC010590615070400110D8F724
:1033E000809590958E0F9F1F0895FC01615070404D
:1033F00001900110D8F7809590958E0F9F1F08952A
:103400000F931F93CF93DF93182F092FEB018B811D
:1034100081FD09C01FEF0FEF812F902FDF91CF911A
:103420001F910F91089582FF14C02E813F818C81DE
:103430009D81281739073CF4E881F981CF01019675
:103440009983888310838E819F8101969F838E83C9
:10345000E3CFE885F985812F0995892BA1F3DACF90
:10346000FA01AA27283051F1203181F1E8946F93B5
:103470006E7F6E5F7F4F8F4F9F4FAF4FB1E03ED05B
:10348000B4E03CD0670F781F891F9A1FA11D680FF9
:10349000791F8A1F911DA11D6A0F711D811D911D2C
:1034A000A11D20D009F468943F912AE0269F1124A1
:1034B0003019305D3193DEF6CF010895462F477005
:1034C000405D4193B3E00FD0C9F7F6CF462F4F7060
:1034D000405D4A3318F0495D31FD4052419302D0BE
:1034E000A9F7EACFB4E0A695979587957795679564
:1034F000BA95C9F700976105710508959B01AC0164
:103500000A2E06945795479537952795BA95C9F78A
:10351000620F731F841F951FA01D08952F923F9265
:103520004F925F926F927F928F929F92AF92BF92D3
:10353000CF92DF92EF92FF920F931F93CF93DF937F
:10354000CDB7DEB7CA1BDB0B0FB6F894DEBF0FBEDC
:10355000CDBF09942A88398848885F846E847D8429
:103560008C849B84AA84B984C884DF80EE80FD802B
:103570000C811B81AA81B981CE0FD11D0FB6F894A1
:10358000DEBF0FBECDBFED0108955058BB27AA275F
:103590000E94DD1A0C94571C0E94491C38F00E94AE
:1035A000501C20F039F49F3F19F426F40C94461C6B
:1035B0000EF4E095E7FB0C94401CE92F0E94681C78
:1035C00058F3BA17620773078407950720F079F458
:1035D000A6F50C948A1C0EF4E0950B2EBA2FA02DA4
:1035E0000B01B90190010C01CA01A0011124FF27B0
:1035F000591B99F0593F50F4503E68F11A16F040AB
:10360000A22F232F342F4427585FF3CF46953795A9
:103610002795A795F0405395C9F77EF41F16BA0B6E
:10362000620B730B840BBAF09150A1F0FF0FBB1F1C
:10363000661F771F881FC2F70EC0BA0F621F731F65
:10364000841F48F4879577956795B795F7959E3FC2
:1036500008F0B0CF9395880F08F09927EE0F979553
:10366000879508950E941C1C08F481E008950E942B
:103670004B1B0C94571C0E94501C58F00E94491C74
:1036800040F029F45F3F29F00C94401C51110C9438
:103690008B1C0C94461C0E94681C68F39923B1F3A0
:1036A000552391F3951B550BBB27AA276217730768
:1036B000840738F09F5F5F4F220F331F441FAA1FFC
:1036C000A9F335D00E2E3AF0E0E832D091505040B8
:1036D000E695001CCAF72BD0FE2F29D0660F771F66
:1036E000881FBB1F261737074807AB07B0E809F04C
:1036F000BB0B802DBF01FF2793585F4F3AF09E3FD1
:10370000510578F00C94401C0C948B1C5F3FE4F343
:10371000983ED4F3869577956795B795F7959F5F13
:10372000C9F7880F911D9695879597F90895E1E05F
:10373000660F771F881FBB1F621773078407BA07BE
:1037400020F0621B730B840BBA0BEE1F88F7E09519
:1037500008950E94B01B6894B1110C948B1C0895BD
:103760000E94701C88F09F5798F0B92F9927B75185
:10377000B0F0E1F0660F771F881F991F1AF0BA9515
:10378000C9F714C0B13091F00E948A1CB1E00895CD
:103790000C948A1C672F782F8827B85F39F0B93FBF
:1037A000CCF3869577956795B395D9F73EF49095C8
:1037B0008095709561957F4F8F4F9F4F0895E89446
:1037C00009C097FB3EF490958095709561957F4F69
:1037D0008F4F9F4F9923A9F0F92F96E9BB27939517
:1037E000F695879577956795B795F111F8CFFAF427
:1037F000BB0F11F460FF1BC06F5F7F4F8F4F9F4F58
:1038000016C0882311F096E911C0772321F09EE8B5
:10381000872F762F05C0662371F096E8862F70E01B
:1038200060E02AF09A95660F771F881FDAF7880FF5
:103830009695879597F90895990F0008550FAA0B4B
:10384000E0E8FEEF16161706E807F907C0F01216B3
:103850001306E407F50798F0621B730B840B950BB6
:1038600039F40A2661F0232B242B252B21F408950B
:103870000A2609F4A140A6958FEF811D811D0895A8
:1038800097F99F6780E870E060E008959FEF80EC13
:10389000089500240A9416161706180609060895B6
:1038A00000240A9412161306140605060895092E1C
:1038B0000394000C11F4882352F0BB0F40F4BF2B8B
:1038C00011F460FF04C06F5F7F4F8F4F9F4F0895CB
:1038D00057FD9058440F551F59F05F3F71F04795C1
:1038E000880F97FB991F61F09F3F79F087950895A6
:1038F000121613061406551FF2CF4695F1DF08C0C5
:10390000161617061806991FF1CF869571056105E1
:1039100008940895E894BB2766277727CB0197F989
:1039200008950E941C1C08F48FEF08950E94A91CA2
:103930000C94571C0E94491C38F00E94501C20F027
:10394000952311F00C94401C0C94461C11240C94EB
:103950008B1C0E94681C70F3959FC1F3950F50E07B
:10396000551F629FF001729FBB27F00DB11D639F31
:10397000AA27F00DB11DAA1F649F6627B00DA11DD7
:10398000661F829F2227B00DA11D621F739FB00D7D
:10399000A11D621F839FA00D611D221F749F3327ED
:1039A000A00D611D231F849F600D211D822F762F86
:1039B0006A2F11249F5750409AF0F1F088234AF063
:1039C000EE0FFF1FBB1F661F771F881F91505040CF
:1039D000A9F79E3F510580F00C94401C0C948B1C61
:1039E0005F3FE4F3983ED4F3869577956795B79556
:1039F000F795E7959F5FC1F7FE2B880F911D969570
:103A0000879597F908950E941C1C880B990B0895BF
:103A1000A1E21A2EAA1BBB1BFD010DC0AA1FBB1FD2
:103A2000EE1FFF1FA217B307E407F50720F0A21B44
:103A3000B30BE40BF50B661F771F881F991F1A94B1
:103A400069F760957095809590959B01AC01BD01DB
:103A5000CF010895EE0FFF1F0590F491E02D09941A
:103A6000FB01DC0104C08D910190801921F44150CB
:0E3A70005040C8F7881B990B0895F894FFCFBB
:103A7E000E0101000000000F010100000000100106
:103A8E00010000000011010100000000050101000D
:103A9E000000000601010000000008010100000006
:103AAE00000C0101000000000D01010000000000EB
:103ABE0000C07F0000C07F059E0091007E00720056
:103ACE0068000000000013077306A0067B07D106EE
:103ADE00AF06C3060000000048091B097709F1086C
:103AEE0014090109F2080D0A006E616E00696E6616
:063AFE00006F7666000077
:00000001FF
