:100000000C9425040C944D040C944D040C944D0454
:100010000C944D040C944D040C944D040C944D041C
:100020000C944D040C944D040C944D040C944D040C
:100030000C944D040C944D040C944D040C944D04FC
:100040000C94DC0E0C944D040C944C0F0C94260F65
:100050000C944D040C944D040C944D040C944D04DC
:100060000C947E0F0C944D04534146455F53544FFE
:10007000500052455455524E5F484F4D4500574130
:1000800049545F5345525645525F4E4F524D414C75
:10009000005441534B5F52554E4E494E47004D4F11
:1000A00056455F4F5554424F554E4400207265737C
:1000B000756C743D002073657175656E63653D00F8
:1000C0005B4932432D3E307830385D20636F6D6D73
:1000D000616E643D0020726573756C743D00206331
:1000E0006F6D6D616E643D005B4932432D3E30782B
:1000F00030395D2041352073657175656E63653DEE
:10010000005B534146452053544F505D20004D6FD6
:10011000746F72556E6F206E6F7420726573706F9E
:100120006E64696E67004163747561746F72556EB9
:100130006F206E6F7420726573706F6E64696E6786
:100140000020616374696F6E3D005B5345525645F4
:10015000522050524F58595D205441534B207461E6
:10016000726765743D005B534552564552205052AC
:100170004F58595D207461736B2069676E6F7265AB
:10018000643A20726F626F742062757379005B53FA
:1001900045525645522050524F58595D20524554B1
:1001A00055524E2069676E6F72656420756E746972
:1001B0006C206163747561746F7220444F4E45000A
:1001C0005B5345525645522050524F58595D20526C
:1001D000455455524E5F484F4D45202D3E20737477
:1001E0007261696768742072657665727365007202
:1001F000657475726E20636F6D6D616E64206661EB
:10020000696C6564005B5345525645522050524F0D
:1002100058595D20616C726561647920484F4D4585
:10022000202D3E2049444C45005B524F5554455DBE
:1002300020696E7465726D656469617465205A4FDA
:100240004E4532202D3E20636F6E74696E756520B9
:10025000746F205A4F4E453939005B524F55544503
:100260005D2074617267657420726561636865649E
:10027000202D3E206163747561746F722073746108
:100280007274006163747561746F72207461736B52
:10029000206661696C656400524649442073746F3E
:1002A000702041434B2070617468206661696C6501
:1002B0006400756E6578706563746564206F75742D
:1002C000626F756E642073746174696F6E206F72F3
:1002D000646572005B524F5554455D2072657475BC
:1002E000726E20706173736564205A4F4E453220E0
:1002F0002D3E206B65657020726576657273696E40
:100300006720484F4D4500726576657273652D68AC
:100310006F6D6520726573756D65206661696C65CA
:1003200064206174205A4F4E453200756E657870B6
:10033000656374656420726576657273652D686F98
:100340006D652073746174696F6E206F726465727D
:10035000005B524649442050524F58595D20646515
:1003600074656374656420005B43414C49425241AB
:1003700054494F4E5D20484F4D452073796E63655B
:10038000643B2068656164696E673D5A4F4E453233
:100390003B205441534B20656E61626C6564005B89
:1003A00043414C4942524154494F4E5D20464149D8
:1003B0004C45443A2072656C656173652044392F61
:1003C00044313020736F20626F7468206172652041
:1003D00048494748005B524F5554455D20484F4DB2
:1003E000452072656163686564202D3E2049444C58
:1003F0004500484F4D45206D61726B657220626506
:10040000666F7265207265766572736520706173C0
:10041000736564205A4F4E4532005B484F4D45206E
:100420004D41524B45522050524F58595D20646502
:100430007465637465640049324339204352432034
:100440002530325825303258253032582530325830
:1004500025303258253032582F253032580020723E
:100460006573756C743D002062797465733D31303D
:10047000206372633D3078005B444953504C4159CE
:100480002D3E307830395D204431207365713D0058
:1004900020666C6167733D3078005B444953504C73
:1004A00041593C2D307830395D20736571204143CE
:1004B0004B3D005B43414C4942524154494F4E5DD4
:1004C000205441534B2F52455455524E20626C6F6D
:1004D000636B65643B207072657373204431332015
:1004E0006F72206820617420484F4D450000000065
:1004F00000240027002A0053657269616C3A206865
:100500003D43414C4942524154452F484F4D452CA3
:1005100020322F333D5A3220482F442C20392F309F
:100520003D5A393920482F442C207A2F783D5246A5
:1005300049442C20723D52455455524E2C20613D69
:1005400053544F500043414C4942524154494F4E3D
:100550002052455155495245443A20484F4D452077
:100560006D61726B6572202B20682F4431333B2004
:100570006D6F746F72207374617973204F464600FB
:1005800053656E736F72733A2044485432323D4162
:1005900063747561746F72556E6F2044322C2048FD
:1005A000432D535230343D4D6F746F72556E6F2032
:1005B0006C6F63616C004932433A204D6F746F7207
:1005C0003D30783038204163747561746F723D300E
:1005D0007830392C20413520636F6E74726F6C2037
:1005E0002B20443120646973706C6179004D6F7405
:1005F0006F723A20636F6D6D616E642030783131B7
:100600003D464F52574152442C20307831323D52B2
:100610004556455253455F484F4D453B206E6F2030
:10062000552D7475726E00526F7574653A20484F7F
:100630004D45202D3E205A4F4E4532202D3E205A0A
:100640004F4E4539390053656E736F72556E6F208A
:10065000332D556E6F2070726F78792072656164EA
:10066000790000000000230026002900414C4C5F67
:1006700053544F502070726F787920627574746F84
:100680006E0073657269616C20414C4C5F53544F2E
:1006900050004163747561746F72556E6F20756E92
:1006A0006578706563746564206E6F6E2D72756E0B
:1006B0006E696E67207374617465005B5441534BBF
:1006C0005D20444F4E45202D3E207072657373208F
:1006D0004E4F524D414C2F52455455524E20707240
:1006E0006F7879004163747561746F72556E6F2015
:1006F0007374616C652F6D69736D61746368656493
:100700002073657175656E6365004163747561740E
:100710006F72556E6F204552524F5200416374758F
:1007200061746F72556E6F20737461747573206D90
:10073000697373696E670049444C4500484F4D45E5
:10074000005A4F4E453939005A4F4E4532004E4FF0
:100750004E4500444548554D494449465900485581
:100760004D494449465900206163747561746F7244
:10077000436D643D00206D6F746F72436D643D0086
:1007800020616374696F6E3D0020746172676574E7
:100790003D00554E4B4E4F574E00206375727265AB
:1007A0006E743D005B53544154455D206D6F64652C
:1007B0003D004D6F746F72556E6F207265626F6F82
:1007C0007465643A20484F4D452063616C696272DC
:1007D0006174696F6E207265717569726564004D30
:1007E0006F746F72556E6F207374617475732F6BB5
:1007F000656570616C697665206D697373696E6794
:100800000000000000250028002B0004040404045C
:1008100004040402020202020203030303030301AD
:100820000204081020408001020408102001020484
:100830000810200000000800020100000304070067
:1008400000000000000000009D1011241FBECFEF2B
:10085000D8E0DEBFCDBF11E0A0E0B1E0EEEFFDE2F9
:1008600002C005900D92A237B107D9F723E0A2E7A5
:10087000B1E001C01D92AB30B207E1F714E0C5E270
:10088000D4E004C02197FE010E94EA16C432D107C9
:10089000C9F70E94D6100C94FD160C94000083300A
:1008A00081F028F4813099F08230A9F008958730E2
:1008B000A9F08830C9F08430B1F4809180008F7D38
:1008C00003C0809180008F7780938000089584B565
:1008D0008F7784BD089584B58F7DFBCF8091B00064
:1008E0008F778093B00008958091B0008F7DF9CF0D
:1008F0001F93CF93DF93282F30E0F901ED5CF74F82
:100900008491F901E15EF74FD491F901E55FF74F6A
:10091000C491CC23A9F0162F81110E944F04EC2F13
:10092000F0E0EE0FFF1FEF5FF74FA591B4918FB787
:10093000F894EC91111108C0D095DE23DC938FBFA1
:10094000DF91CF911F910895DE2BF8CF3FB7F89438
:1009500080910E0290910F02A0911002B0911102AD
:1009600026B5A89B05C02F3F19F00196A11DB11D0A
:100970003FBFBA2FA92F982F8827BC01CD01620F46
:10098000711D811D911D42E0660F771F881F991F01
:100990004A95D1F708958F929F92AF92BF92CF92CE
:1009A000DF92EF92FF924B015C010E94A6046B0163
:1009B0007C010E94A6046C197D098E099F09683E7E
:1009C000734081059105A8F321E0821A9108A108DE
:1009D000B10888EEC80E83E0D81EE11CF11C81141A
:1009E0009104A104B10429F7FF90EF90DF90CF901C
:1009F000BF90AF909F908F9008952FB7F89460911B
:100A00000A0270910B0280910C0290910D022FBF8F
:100A1000089508950895AF92BF92CF92DF92EF921A
:100A2000FF920F931F93CF93DF936C017B018B0198
:100A3000040F151FEB015E01AE18BF08C017D107E8
:100A400059F06991D601ED91FC910190F081E02D72
:100A5000C6010995892B79F7C501DF91CF911F91C7
:100A60000F91FF90EF90DF90CF90BF90AF900895DF
:100A7000FC01538D448D252F30E0842F90E0821BA4
:100A8000930B541710F0CF96089501970895FC0129
:100A9000918D828D981761F0A28DAE0FBF2FB11D81
:100AA0005D968C91928D9F5F9F73928F90E00895D9
:100AB0008FEF9FEF0895FC01918D828D981731F093
:100AC000828DE80FF11D858D90E008958FEF9FEFE7
:100AD0000895FC01918D228D892F90E0805C9F4FBD
:100AE000821B91098F739927089582E692E00E94F4
:100AF000690521E0892B09F420E0822F089580E028
:100B000090E0892B29F00E94750581110C9400005A
:100B10000895FC01A48DA80FB92FB11DA35ABF4F92
:100B20002C91848D90E001968F739927848FA689EC
:100B3000B7892C93A089B1898C91837080648C9340
:100B4000938D848D981306C00288F389E02D8081EF
:100B50008F7D80830895EF92FF920F931F93CF9321
:100B6000DF93EC0181E0888F9B8D8C8D98131AC0E8
:100B7000E889F989808185FF15C09FB7F894EE89CF
:100B8000FF896083E889F98980818370806480832C
:100B90009FBF81E090E0DF91CF911F910F91FF9077
:100BA000EF900895F62E0B8D10E00F5F1F4F0F731F
:100BB0001127E02E8C8D8E110CC00FB607FCFACFDA
:100BC000E889F989808185FFF5CFCE010E948905EA
:100BD000F1CFEB8DEC0FFD2FF11DE35AFF4FF082AB
:100BE0009FB7F8940B8FEA89FB8980818062CFCF11
:100BF0000F931F93CF93DF938C01D0E0C0E0F801F7
:100C0000EC0FFD1F6491662341F082E692E00E94A2
:100C1000AB05892B11F02196F2CFCE01DF91CF9158
:100C20001F910F910895CF93DF93EC01888D882356
:100C3000B9F0AA89BB89E889F9898C9185FD03C03F
:100C4000808186FD0DC00FB607FCF7CF8C9185FF24
:100C5000F2CF808185FFEDCFCE010E948905E9CFDB
:100C6000DF91CF9108952091C401260F3327331FC0
:100C700021323105ECF420913802FC0190E080E053
:100C8000243069F082E00895A091C4012191AC0163
:100C90004C555E4FA40FB52FB11D2C9301968617AE
:100CA00098F38091C401680F6093C40180E00895B7
:100CB00081E008951092380281E08093370210920B
:100CC000120261E082E10E94780461E083E10E9407
:100CD0007804E9EBF0E080818E7F808380818D7FD6
:100CE000808388E48093B80085E48093BC000895F5
:100CF000CF93DF9391E09093ED018823B9F0C091F9
:100D0000B800D091BA008091BC008A7B8093BC006F
:100D100060E082E10E94780460E083E10E94780450
:100D20000E945A06D093BA00C093B800DF91CF91C9
:100D300008958F929F92AF92BF92CF92DF92EF92DF
:100D4000FF920F931F93CF93DF93D0916102D13223
:100D500008F0D7C0182FC09160020E94A6046B0152
:100D60007C018091380281116BC082E0809338024F
:100D7000109337028FEF8093360210923502D09392
:100D80003402A0E4B2E0E4E1F2E080E0D81391C0E4
:100D90001092130280911302CC0FC82BC093130240
:100DA00080911202813009F088C0109212020E94D4
:100DB000A6046B017C01809113028093BB0080919B
:100DC0003A0290913B02A0913C02B0913D02892BE6
:100DD0008A2B8B2BA1F00E94A60400913A0210915D
:100DE0003B0220913C0230913D026C197D098E0935
:100DF0009F09061717072807390708F442C0809192
:100E0000BC0083FDD8CF85EC8093BC000E94A60473
:100E10006B017C0180913802823009F450C08091CE
:100E200036028F3F09F46FC080913602803209F498
:100E30006CC080913602803309F469C084E026C01A
:100E400080913A0290913B02A0913C02B0913D0208
:100E5000892B8A2B8B2B09F484CF0E94A6048090C7
:100E60003A0290903B02A0903C02B0903D026C1977
:100E70007D098E099F0986169706A806B90608F00F
:100E800070CF809139020E94780685E010923F026F
:100E90001092610210923E02DF91CF911F910F914B
:100EA000FF90EF90DF90CF90BF90AF909F908F908A
:100EB00008959D9191938F5F69CF85EEA5CF809125
:100EC0003A0290913B02A0913C02B0913D02892BE5
:100ED0008A2B8B2B09F49ECF0E94A60400913A0224
:100EE00010913B0220913C0230913D026C197D092A
:100EF0008E099F09061717072807390708F08ACFB8
:100F0000C0CF81E0C3CF80E0C1CF82E0BFCF83E01C
:100F1000BDCF0895E091EC018091EB01E81730F42A
:100F2000F0E0EC57FE4F808190E008958FEF9FEF47
:100F300008959091EC018091EB012FEF3FEF98170E
:100F400048F4E92FF0E0EC57FE4F208130E09F5F3E
:100F50009093EC01C90108958091EB019091EC010F
:100F6000891B990B0895CF92DF92EF92FF920F9316
:100F70001F93CF93DF937C01CB018A0120913E0226
:100F8000222389F0EB016B01C40ED51ECC15DD05C3
:100F900069F06991D701ED91FC910190F081E02D0C
:100FA000C7010995F3CF642F0E943306C801DF9172
:100FB000CF911F910F91FF90EF90DF90CF90089508
:100FC000CF93DF931F92CDB7DEB7698320913E02A6
:100FD0002223F9F020916102203258F021E030E024
:100FE000FC013383228390E080E00F90DF91CF916A
:100FF000089580913F02E82FF0E0E05CFD4F998179
:1010000090838F5F80933F028093610281E090E044
:10101000ECCF61E0CE0101960E943306F7CF90E05D
:1010200080E008958091ED01882369F08091ED01C1
:101030001092ED018091B9008C7F81608093B9009E
:1010400086EC8093B8000895282FFC0180E037E0FB
:101050009191892798E087FF09C0880F83279150D5
:10106000D1F79E2F921B961798F30895880FF7CF0C
:10107000FC0101900020E9F73197AF01481B590BA3
:10108000BC0182E692E00C940B05CF93DF930E94A3
:10109000F805EC018EE691E00E9438088C0F9D1F48
:1010A000DF91CF910895CF92DF92EF92FF920F934D
:1010B0001F93CF93DF93CDB7DEB7A1970FB6F89408
:1010C000DEBF0FBECDBF6B01682F70E090E080E007
:1010D00019A28E010F5D1F4F0D2C000CEE08FF08AA
:1010E000A70196010E94C816E62FCA01B901EA308D
:1010F000F4F4E05DD801EE938D01232B242B252BF6
:1011000079F790E080E0109719F0CD010E9438083F
:10111000A1960FB6F894DEBF0FBECDBFDF91CF9181
:101120001F910F91FF90EF90DF90CF900895E95CB1
:10113000E1CFCF93DF930E945308EC018EE691E05C
:101140000E9438088C0F9D1FDF91CF91089585ED87
:101150008093BC0080913A0290913B02A0913C02A6
:10116000B0913D020796A11DB11D23E0B695A7954C
:10117000979587952A95D1F72091BC0024FD03C04F
:1011800010923802089540913A0250913B026091CA
:101190003C0270913D02452B462B472B69F300978B
:1011A000A105B10541F02AE22A95F1F700C00197A7
:1011B000A109B109E1CF809139020C9478064F92D0
:1011C0005F926F927F92AF92BF92CF92DF92EF9237
:1011D000FF920F931F93CF93DF93F82EC62FE82E25
:1011E000EE0C8901A42EA60ED1E0DD24DA9485EE62
:1011F000C82E95ECB92ED0933E02F0926002109268
:101200003F02109261026C2F8FEF92E00E94E00784
:1012100081E00E949906782E0E9412087110E8C0A1
:1012200062E070E080E090E00E94CB040E94A6049F
:101230002B013C0180913802811162C0D0933802A9
:10124000D0933702D09236021092350210923402B7
:10125000D0931302809113028E2980931302809100
:101260001202813009F08BC0109212020E94A60473
:101270002B013C01809113028093BB0080913A02C4
:1012800090913B02A0913C02B0913D02892B8A2BA8
:101290008B2BA1F00E94A60420913A0230913B02D0
:1012A00040913C0250913D026419750986099709E5
:1012B000261737074807590708F443C08091BC0038
:1012C00083FDD8CFB092BC000E94A6042B013C0144
:1012D00080913802813009F455C08091350277241D
:1012E0007394811102C070903502A4E1B2E0E4E889
:1012F000F1E080E0871551F19D9191938F5FFACFD6
:1013000080913A0290913B02A0913C02B0913D0243
:10131000892B8A2B8B2B09F48DCF0E94A604209158
:101320003A0230913B0240913C0250913D026419D7
:10133000750986099709261737074807590708F0DE
:1013400079CF809139020E947806712C1092EC01BD
:101350007092EB010E94120881E0781235C08FEF85
:1013600092E00E949907F80181938F018091EC012E
:10137000813099F18FEF92E00E949907F7CFC092E8
:10138000BC00A2CF80913A0290913B02A0913C0216
:10139000B0913D02892B8A2B8B2B09F499CF0E94A7
:1013A000A60420913A0230913B0240913C025091B8
:1013B0003D026419750986099709261737074807FA
:1013C000590708F085CFBDCF8091EC01781681F0E8
:1013D0008FEF92E00E949907F7CF61E070E080E024
:1013E00090E00E94CB04CF5FCA1105CF81E001C01D
:1013F00080E0DF91CF911F910F91FF90EF90DF90F0
:10140000CF90BF90AF907F906F905F904F90089576
:10141000AF92BF92CF92DF92EF92FF920F931F9302
:10142000CF93DF93CDB7DEB7AE970FB6F894DEBF9C
:101430000FBECDBF5C016B017A019E01275D3F4F5E
:1014400046E060EF89E00E94DF08182F811113C089
:1014500010E0812FAE960FB6F894DEBF0FBECDBF61
:10146000DF91CF911F910F91FF90EF90DF90CF9080
:10147000BF90AF90089565E0CE0189960E94240840
:10148000082F8EA5081709F455C00E94FD04C090CE
:101490007401D0907501E0907601F0907701C1144D
:1014A000D104E104F10479F09B01AC012C193D0950
:1014B0004E095F0969017A0138EEC31633E0D3069D
:1014C000E104F10428F26093740170937501809334
:1014D0007601909377011F920F938EA51F928F93A1
:1014E0008DA51F928F938CA51F928F938BA51F9212
:1014F0008F938AA51F928F9389A51F928F9387E35D
:1015000094E09F938F931F9288E28F938E010F5FD9
:101510001F4F1F930F930E94E313C8010E943808C6
:101520008EE691E00E9438080FB6F894DEBF0FBE39
:10153000CDBF8ECF89A5F50180838AA5F601808372
:101540008BA5F70180838CA5809379019DA590934D
:10155000780190FF7ECF90917B0189137ACF109212
:101560007A0177CFCF92DF92EF92FF920F931F9382
:10157000CF93DF93CDB7DEB763970FB6F894DEBF96
:101580000FBECDBF6B017C0180913F0194E08330A1
:1015900079F040F491E0813059F0823009F4F6C0DE
:1015A00090E006C095E0843019F096E08530C1F7F0
:1015B0009B8790910402992309F4F0C09091FA015D
:1015C000913009F4EDC0923009F0ECC093E69C87AD
:1015D0001D861E861F86188A9FEF980F943008F488
:1015E000E3C0853009F4E2C082E0898B80918301F9
:1015F000882351F047E050E06CE771E0CE010B9694
:101600000E94F016892B09F187E0FE013B96ACE7BA
:10161000B1E001900D928A95E1F791E090938301FA
:1016200080917B018F5F80937B0190937A01D7013A
:10163000C601845F9140A109B1098093F2019093A2
:10164000F301A093F401B093F5018091EE01909124
:10165000EF01A091F001B091F10197018601081B03
:10166000190B2A0B3B0BD901C80120917A012223C7
:1016700009F49EC04091F2015091F3016091F40190
:101680007091F50197018601041B150B260B370B92
:10169000B901A801443F11E051076105710508F443
:1016A0008EC081ED898380917B018A8387E0ECE79E
:1016B000F1E0DE01139601900D928A95E1F769E061
:1016C000CE0101960E9424088A8781E080933E0221
:1016D00089E08093600210923F02109261024AE01A
:1016E00050E0BE016F5F7F4F8FEF92E00E94B30723
:1016F00081E00E949906182F0E941208C092F20100
:10170000D092F301E092F401F092F501C092EE0163
:10171000D092EF01E092F001F092F10188E794E0BD
:101720000E94F8056AE070E080917B010E945308F6
:1017300087E694E00E94F8058A85803128F460E30A
:1017400082E692E00E94AB0560E170E08A850E942B
:1017500053088EE594E00E94F8056AE070E0812F5E
:101760000E949908111103C081E080937A01639669
:101770000FB6F894DEBF0FBECDBFDF91CF911F91A2
:101780000F91FF90EF90DF90CF9008959091F90125
:10179000913011F492E00CCF93E00ACF9FEF17CF76
:1017A00092E015CF90E013CF86E01FCF8AE01DCFE7
:1017B000803D9740A105B10508F073CFD8CF803D9B
:1017C0009740A105B10508F06CCF4832510561057D
:1017D000710568F2AE014D5E5F4FBE016E5E7F4FD8
:1017E000CE0101960E94080A882309F280917A01AD
:1017F0008111BDCF8AE994E00E94F8056AE070E0AB
:10180000809179010E94530880E994E00E94F805D4
:1018100060E170E0809178010E949908A8CFCF9292
:10182000DF92EF92FF920F931F93CF93DF9300D03D
:1018300000D000D01F92CDB7DEB7082F10917301F2
:101840001F5F109373011C821B8285EA89831A83B0
:101850000B8363E0CE0101960E9424088C8381E013
:1018600080933E0289E08093600210923F021092C2
:10187000610244E050E0BE016F5F7F4F8FEF92E066
:101880000E94B30781E00E949906F82E0E94120878
:1018900088EE90E00E94F8056AE070E0812F0E94D7
:1018A00053088EED90E00E94F8056AE070E0802F0A
:1018B0000E94530885ED90E00E94F8056AE070E010
:1018C0008F2D0E949908FF2011F080E02EC00E9409
:1018D000FD046B017C010E94FD046C197D098E09D9
:1018E0009F09643F71408105910578F7AE01495F1A
:1018F0005F4FBE016A5F7F4FCE0105960E94080AC6
:10190000882311F19F8119131FC02D812330E9F223
:1019100091E0011101C090E02913D7CF9E8190136F
:10192000D4CF0093F7011093F60127960FB6F894E1
:10193000DEBF0FBECDBFDF91CF911F910F91FF9002
:10194000EF90DF90CF90089565E070E080E090E048
:101950000E94CB04C0CFCF92DF92EF92FF920F9301
:101960001F93CF93DF9300D01F92CDB7DEB7182F10
:10197000009172010F5F0093720181E080933E023B
:1019800088E08093600210923F0210926102612F02
:101990008FEF92E00E94E007602F8FEF92E00E94AD
:1019A000E00781E00E949906F82E0E94120880EC60
:1019B00090E00E94F8056AE070E0812F0E945308D1
:1019C00085EB90E00E94F8056AE070E0802F0E94AD
:1019D00053088CEA90E00E94F8056AE070E08F2DD1
:1019E0000E949908FF2011F080E01FC0153049F5D2
:1019F00063E070E080E090E00E94CB049E012F5FE6
:101A00003F4F43E060EE88E00E94DF08882369F0E2
:101A1000898199EF980F923018F410920402E4CF64
:101A20009CEF980F81E09230F8F20F900F900F909A
:101A3000DF91CF911F910F91FF90EF90DF90CF90AA
:101A400008950E94FD046B017C010E94FD046C1945
:101A50007D098E099F09643F71408105910520F63B
:101A60009E012F5F3F4F43E060EE88E00E94DF0859
:101A7000882371F099813A812B81131309C00213D5
:101A800007C0173061F49830C1F41093F801CDCF3E
:101A900065E070E080E090E00E94CB04D6CF1111A9
:101AA00007C029EF992389F3290F223030F4EDCFB5
:101AB0002FEF1630C9F7992341F39750923008F071
:101AC00093CFABCF80E00E94AB0C80E00E940F0C64
:101AD00085E080933F0183EB94E00E94450880E01D
:101AE0000895CF93DF93EC0180E00E94AB0C80E07F
:101AF0000E940F0C1092FA011092F90185E0809378
:101B00003F0181E091E00E94F805CE01DF91CF9185
:101B10000C944508CF93DF938AE194E00E94450836
:101B200080910402811134C085E080933F011092BE
:101B3000FA011092F90187E00E94AB0CD82F80E0E7
:101B40000E94AB0CC82F80E00E940F0CDD23D1F067
:101B5000CC23C1F08823B1F086E00E94AB0C88232F
:101B600089F081E0809304021092FB011092FA0147
:101B70001092F90110923F0188E693E0DF91CF9136
:101B80000C94450880E00E94AB0C8FE993E0F6CFFF
:101B900080913F01843021F48091FB01813031F04C
:101BA00082EF93E0DF91CF910C94710D80E00E9461
:101BB000AB0C80E00E940F0C1092FB011092FA0116
:101BC0001092F90110923F0185ED93E0D7CFCF93AA
:101BD000C82F81E593E00E94F80588E497E0C130C2
:101BE00011F081E497E00E94450880913F01813027
:101BF00091F58091FB018C1720F48091FA018C17EC
:101C000028F482EB92E0CF910C94710D80E00E9459
:101C1000AB0C811103C088E992E0F5CFC093FB01C2
:101C20008091FA01C81311C08091F9010E940F0C34
:101C3000811103C083E892E0E6CF82E080933F0108
:101C40008AE592E0CF910C94450881E10E94AB0CAB
:101C500089E292E0F7CF8430C9F4C13021F4809159
:101C6000FB01823019F08BE293E0CDCF80E00E943F
:101C7000AB0CC093FB0182E10E94AB0C811103C04D
:101C800087E093E0C0CF84ED92E0DCCFCF91089560
:101C9000809104028823A1F08091FB01811115C07D
:101CA00080E00E94AB0C80E00E940F0C1092FA01C1
:101CB0001092F90110923F0185E092E00C944508E2
:101CC0000E94620D8111E8CF089580913F0182301A
:101CD00019F48EE891E0F2CF80E00E940F0C109290
:101CE000FA011092F90182E10E94AB0C811104C04B
:101CF0008FEE91E00C94710D84E080933F0180ECB5
:101D000091E0DCCFCF93DF93D82FC62F80910402D0
:101D1000882399F180913F01811136C0D093FA0157
:101D2000C093F9018AE491E00E94F80581E497E00C
:101D3000D13011F488E497E00E94F80581E491E045
:101D40000E94F80583E597E0C13011F48EE597E035
:101D50000E9445089091FB018091FA01981322C0DE
:101D600080E00E94AB0C8091F9010E940F0C882347
:101D700099F082E080933F0104C00E94620D8111BE
:101D8000C9CFDF91CF910895833041F286E691E08B
:101D9000DF91CF910C94450886E291E0DF91CF91DD
:101DA0000C94710D81E10E94AB0C811103C08EE097
:101DB00091E0F4CF81E0DECF1F920F920FB60F9229
:101DC00011242F933F938F939F93AF93BF93809151
:101DD0000A0290910B02A0910C02B0910D02309179
:101DE000090223E0230F2D3758F50196A11DB11DDF
:101DF0002093090280930A0290930B02A0930C0295
:101E0000B0930D0280910E0290910F02A0911002EA
:101E1000B09111020196A11DB11D80930E02909305
:101E20000F02A0931002B0931102BF91AF919F9146
:101E30008F913F912F910F900FBE0F901F9018958B
:101E400026E8230F0296A11DB11DD2CF1F920F923B
:101E50000FB60F9211242F933F934F935F936F937D
:101E60007F938F939F93AF93BF93EF93FF9382E6FC
:101E700092E00E948905FF91EF91BF91AF919F91F0
:101E80008F917F916F915F914F913F912F910F9023
:101E90000FBE0F901F9018951F920F920FB60F92C2
:101EA00011242F938F939F93EF93FF93E0917202EE
:101EB000F09173028081E0917802F091790282FDC5
:101EC0001BC0908180917B028F5F8F7320917C0279
:101ED000821741F0E0917B02F0E0EE59FD4F958FC3
:101EE00080937B02FF91EF919F918F912F910F90A3
:101EF0000FBE0F901F9018958081F4CF1F920F9204
:101F00000FB60F9211242F933F934F935F936F93CC
:101F10007F938F939F93AF93BF93EF93FF938091A2
:101F2000B900887F803609F44AC0F0F5883209F498
:101F3000A7C018F5803109F49BC0B8F4882309F4D0
:101F4000F9C0883009F494C0FF91EF91BF91AF912F
:101F50009F918F917F916F915F914F913F912F91C1
:101F60000F900FBE0F901F901895883109F488C00C
:101F7000803251F78093360214C0803409F49DC03A
:101F800040F48033B9F38833F9F68093360285EC58
:101F9000B0C0803509F485C0883509F496C088340E
:101FA00099F60E94A708D0CF883909F48CC038F57B
:101FB000883729F050F4883611F0803729F683E00D
:101FC000809338021092E60157C0883809F47BC02C
:101FD000803919F0803809F0B7CF8091E60180325E
:101FE00008F071C0E091E60181E08E0F8093E60178
:101FF0008091BB00F0E0EA53FE4F80833DC0803B00
:1020000039F0E0F4803A09F479C0883A09F09CCFBD
:1020100084E0809338021092C5011092C401E091CF
:10202000E901F091EA0109958091C40181110FC085
:1020300081E08093C4011092A40109C0803C09F49E
:10204000A6CF883C09F4A3CF883B09F07DCFE0916F
:10205000C50181E08E0F8093C501F0E0EC55FE4F85
:1020600080818093BB009091C5018091C40129C0FB
:10207000809113028093BB0085EC8093BC0064CFF9
:102080009091350280913402981758F5E09135020D
:1020900081E08E0F80933502F0E0EC5EFD4F808191
:1020A000E9CFE091350281E08E0F80933502809177
:1020B000BB00F0E0EC5EFD4F808390913502809193
:1020C00034029817C8F285E8D8CFE091350281E054
:1020D0008E0F809335028091BB00F0E0EC5EFD4FE7
:1020E00080838091370281115CCF81E0809312025E
:1020F00084EA8093BC001092380226CF85EC80934E
:10210000BC00109238028091E601803230F4E091F8
:10211000E601F0E0EA53FE4F10826091E60170E0C4
:10212000E091E701F091E80186EC91E009951092C9
:10213000E6010ACF1092360234CFE2E6F2E01382D3
:10214000128288EE93E0A0E0B0E084839583A683BA
:10215000B7832EE431E03183208325EC30E03587EE
:10216000248724EC30E03787268720EC30E0318B61
:10217000208B21EC30E0338B228B22EC30E0358B4E
:10218000248B26EC30E0378B268B118E128E138E2B
:10219000148EEFEFF2E01382128284839583A6837C
:1021A000B78380E691E0918380830895CF93DF9396
:1021B000CDB7DEB72B970FB6F894DEBF0FBECDBFFD
:1021C000789484B5826084BD84B5816084BD85B512
:1021D000826085BD85B5816085BD80916E0081601E
:1021E00080936E00109281008091810082608093C4
:1021F00081008091810081608093810080918000C6
:102200008160809380008091B10084608093B100F0
:102210008091B00081608093B00080917A008460EA
:1022200080937A0080917A00826080937A00809116
:102230007A00816080937A0080917A008068809330
:102240007A001092C100E0917202F091730282E074
:102250008083E0916E02F0916F021082E091700233
:10226000F091710280E1808310927A02E09176020F
:10227000F091770286E08083E0917402F09175021C
:10228000808180618083E0917402F0917502808189
:1022900088608083E0917402F0917502808180688B
:1022A0008083E0917402F091750280818F7D80833C
:1022B0002FE331E060E0E62E61E0F62ED7018C914D
:1022C00090E0FC01E15EF74F4491855F974FFC0180
:1022D00084918823C9F090E0880F991FFC01E35195
:1022E000FB4FA591B491FC01EF5FF74F659174919D
:1022F0009FB7F8945C91842F809585238C93DB01A4
:10230000EC914E2B4C939FBFB7E0EB0EF11C2E15BA
:102310003F05A1F61092EC011092EB0110923F02E2
:10232000109261020E945A0689E095E09093EA01BA
:102330008093E9018AE095E09093E8018093E701BA
:102340001092ED0188EA91E6A0E0B0E080933A02B5
:1023500090933B02A0933C02B0933D0281E08093B6
:1023600039028091B9008C7F81608093B90086EC3E
:102370008093B80064E670E080E090E00E94CB04B7
:1023800080E00E94AB0C80E00E940F0C0E94FD04D4
:102390008B019C01045F1140210931090093F20176
:1023A0001093F3012093F4013093F5018B019C010C
:1023B000005D1740210931090093EE011093EF01F0
:1023C0002093F0013093F1010E94B20A86E496E076
:1023D0000E94450887E296E00E9445088DEE95E050
:1023E0000E94450886EB95E00E94450880E895E04C
:1023F0000E94450885E495E00E94450887EF94E037
:102400000E9445080E94FD044B015C01FE013196CB
:102410006F0100E011E05E2E6D2CD8012C9130E0B0
:10242000F901ED5CF74F8491F901E15EF74F74908B
:10243000F901E55FF74F4490442099F181110E9422
:102440004F04E42DF0E0EE0FFF1FEE59F94FA59178
:10245000B491EC917E2231E020E009F430E0832F4A
:10246000922F282F2170F801228383829482A582E3
:10247000B68231812317C1F02183B1E08B278170AF
:10248000F60181936F01095F1F4FE016F10609F015
:10249000C4CF8E81882351F08CE696E00E94710DA6
:1024A00035C090E080E0DDCF80E0EACF89818823ED
:1024B00021F061E081E00E94820E8A81882321F070
:1024C00062E081E00E94820E8B81882321F061E02E
:1024D00082E00E94820E8C81882321F062E082E0FB
:1024E0000E94820E8D8181110E94480E8F81882367
:1024F00019F081E00E94E70D8885882319F082E0B9
:102500000E94E70D898581110E948A0D82E692E082
:102510000E946905892B71F182E692E00E944705CD
:1025200061E0823319F0833329F462E081E00E9494
:10253000820EECCF61E0893319F0803319F462E048
:1025400082E0F5CF8F7D823519F40E94480EDECFF0
:10255000813419F482E896E0A1CF8A3521F481E034
:102560000E94E70DD3CF883511F482E0F9CF88348B
:1025700069F6CACFC501B4010E94B20A80913F0139
:10258000813011F0843051F580910502909106025E
:10259000A0910702B0910802A5019401281B390BF4
:1025A0004A0B5B0BDA01C90180399140A105B105E5
:1025B000A8F08092050290920602A0920702B092C3
:1025C000080285E00E94AB0C811108C080910402D2
:1025D0008823B1F18FED97E00E94710D80913F014A
:1025E000823009F052C08091000290910102A091C6
:1025F0000202B0910302A5019401281B390B4A0B7A
:102600005B0BDA01C90184369105A105B105E8F13A
:102610008092000290920102A0920202B092030204
:10262000452D562DBE01665F7F4FCE010B960E9451
:10263000080A811108C08CE197E00E94710D25C045
:1026400082EB97E0C9CF8B85833019F48AE097E05D
:10265000F4CF29819091F601291305C02A85909124
:10266000F901291719F084EE96E0E7CF813069F07F
:10267000823009F090C080E00E940F0C83E08093CC
:102680003F018BEB96E00E9445088091FC01909100
:10269000FD01A091FE01B091FF01A5019401281B4D
:1026A000390B4A0B5B0BDA01C901883E9340A10547
:1026B000B10508F463C08092FC019092FD01A092E4
:1026C000FE01B092FF0184EA97E00E94F805E091D4
:1026D0003F01E15087E397E0E53038F4F0E0EE0F9A
:1026E000FF1FE05CFE4F808191810E94F8058AE91E
:1026F00097E00E94F80580910402882309F454C0F1
:102700008091FB01813009F449C0823009F049C051
:1027100081E497E00E94F80589E897E00E94F805B7
:102720008091FA01813009F442C0823009F042C040
:1027300081E497E00E94F80580E897E00E94F805A0
:102740008091F9018130C9F18230D1F583E597E0BC
:102750000E94F80585E797E00E94F8056AE070E0BE
:102760008091F8010E94530887E697E00E94F805DF
:102770006AE070E08091F7010E94990880E090E0A3
:10278000892B09F43FCE0E947505882309F43ACEBF
:102790000E94000037CE82E996E04FCF88E497E0B0
:1027A000B9CF8CE397E0B6CF82E997E0B3CF88E466
:1027B00097E0C0CF8CE397E0BDCF8EE597E0C8CF20
:1027C0008EE497E0C5CFAEE0B0E0E9EEF3E10C9423
:1027D0009F160D891E898F89988D2EE02C831A8370
:1027E000098397FF02C080E090E801979E838D8364
:1027F000AE01455E5F4F698D7A8DCE0101960E94D4
:1028000013144D815E8157FD0AC02F813885421710
:1028100053070CF49A01020F131FF80110822E9631
:10282000E4E00C94BB16ABE0B0E0E9E1F4E10C9419
:1028300091167C013B018A01FC011782168283817B
:1028400081FFC8C1CE0101965C01F7019381F301BC
:1028500093FD859193FF81913F01882309F453C132
:10286000853239F493FD859193FF81913F01853243
:1028700029F4B70190E00E940316E7CF912C212C98
:10288000312CFFE1F31538F08B3211F190F48032E6
:1028900009F1833229F137FC3CC020ED280F2A30A2
:1028A00050F536FE20C08AE0989E200D1124922E0D
:1028B00006C08D3291F0803371F7689430F8F301DF
:1028C00093FD859193FF81913F018111DACF21C062
:1028D000689431F8689432F8F2CF689433F8EFCF07
:1028E000689434F8ECCFEAE02E9E200D1124222EBD
:1028F000689435F8E4CF8E3229F436FC04C168942C
:1029000036F8DDCF8C3619F4689437F8D8CF88368E
:10291000B1F2982F9F7D95549330E0F08336A1F16A
:102920008337C1F1833509F063C02801F2E04F0E0F
:10293000511CF801C080D180692D70E036FC02C0C6
:102940006FEF7FEFC6010E94ED154C01689437F8D8
:1029500082010AC00C5F1F4FFFE3F9838824839430
:10296000912C6501E89437F833FE2DC0522C811468
:10297000910471F5552009F468CFB70180E290E029
:102980000E9403165A94F6CFF801808189830E5F66
:102990001F4FE4CF2801F2E04F0E511CF801C08018
:1029A000D180692D70E036FC02C06FEF7FEFC60169
:1029B0000E94F8154C018201D5CFB70180E290E06A
:1029C0000E9403162A942814190409F0B0F7CECFF8
:1029D000F60137FC859137FE81916F01B70190E0D8
:1029E0000E94031651105A94F1E08F1A9108BFCF3C
:1029F000843619F0893609F077C0F80137FE6BC0CC
:102A000060817181828193810C5F1F4FF32DFF766E
:102A10003F2E97FF09C090958095709561957F4FE7
:102A20008F4F9F4F689437F82AE030E0A5010E944D
:102A30003316C82ECA188C2C432C36FE0CC0E894D2
:102A400040F8C91440F434FE05C032FC03C0F32D35
:102A5000FE7E4F2E892C44FE95C0FE01EC0DF11D2B
:102A60008081803309F087C0242D297E422E842D59
:102A70008870582E43FC95C040FE8FC09C2C821459
:102A800018F42C0C922C981844FE91C0B70180E3E6
:102A900090E00E94031642FE09C088E790E041FEE4
:102AA00002C088E590E0B7010E940316C91408F43B
:102AB0008AC0CA94D12C9FEFC91AD90ACA0CDB1C50
:102AC000F60182916F01B70190E00E940316AC14E9
:102AD000BD04B1F74FCF60817181072E000C880BC8
:102AE000990B0E5F1F4F92CFD32CE894D4F82AE0B5
:102AF00030E0853739F1232D297FD22E8F3601F131
:102B000048F48835A9F0F701868197812B96E2E198
:102B10000C94AD16803749F08837A9F7D4FE02C06F
:102B20006894D2F820E130E00DC06894D4F8F6CF74
:102B300034FE03C0822F8660D82E20E132E002C02E
:102B400028E030E0F801D7FE0FC0608171818281FA
:102B500093810C5F1F4FA5010E943316C82ECA181F
:102B60003D2CE89437F867CF6081718190E080E078
:102B70000E5F1F4FF0CF42FC02C0839478CF839446
:102B8000839475CF842D867809F471CFF6CFB70181
:102B900080E290E00E94031683948214C0F3512CCB
:102BA00073CF522C5818821408F46ECFF8CF842DAE
:102BB000867809F47BCF8BE241FE80E247FC8DE210
:102BC000B70190E071CFB70180E390E00E94031657
:102BD0009A946CCF8FEF9FEF99CFFC0105906150D5
:102BE00070400110D8F7809590958E0F9F1F089523
:102BF000FC016150704001900110D8F780959095CC
:102C00008E0F9F1F08950F931F93CF93DF93182F5D
:102C1000092FEB018B8181FD09C01FEF0FEF812F81
:102C2000902FDF91CF911F910F91089582FF14C0D3
:102C30002E813F818C819D81281739073CF4E881E2
:102C4000F981CF0101969983888310838E819F81BA
:102C500001969F838E83E3CFE885F985812F0995BF
:102C6000892BA1F3DACFFA01AA27283051F12031BC
:102C700081F1E8946F936E7F6E5F7F4F8F4F9F4F10
:102C8000AF4FB1E03ED0B4E03CD0670F781F891F52
:102C90009A1FA11D680F791F8A1F911DA11D6A0F20
:102CA000711D811D911DA11D20D009F468943F91D3
:102CB0002AE0269F11243019305D3193DEF6CF01D2
:102CC0000895462F4770405D4193B3E00FD0C9F798
:102CD000F6CF462F4F70405D4A3318F0495D31FD05
:102CE0004052419302D0A9F7EACFB4E0A695979558
:102CF000879577956795BA95C9F70097610571052E
:102D000008959B01AC010A2E069457954795379577
:102D10002795BA95C9F7620F731F841F951FA01DD1
:102D200008952F923F924F925F926F927F928F926F
:102D30009F92AF92BF92CF92DF92EF92FF920F934A
:102D40001F93CF93DF93CDB7DEB7CA1BDB0B0FB654
:102D5000F894DEBF0FBECDBF09942A883988488811
:102D60005F846E847D848C849B84AA84B984C884A7
:102D7000DF80EE80FD800C811B81AA81B981CE0F9E
:102D8000D11D0FB6F894DEBF0FBECDBFED01089583
:102D9000A1E21A2EAA1BBB1BFD010DC0AA1FBB1F5F
:102DA000EE1FFF1FA217B307E407F50720F0A21BD1
:102DB000B30BE40BF50B661F771F881F991F1A943E
:102DC00069F760957095809590959B01AC01BD0168
:102DD000CF010895EE0FFF1F0590F491E02D0994A7
:102DE000FB01DC0104C08D910190801921F4415058
:0E2DF0005040C8F7881B990B0895F894FFCF48
:102DFE000E0101000000000F010100000000100193
:102E0E000100000000110101000000000501010099
:102E1E000000000601010000000008010100000092
:102E2E00000C0101000000000D0101000000000572
:102E3E009E0091007E007200680000000000AB054D
:102E4E000B0538051306690547055B0500000000F4
:102E5E00E007B3070F088907AC0799078A070D0A21
:022E6E00000062
:00000001FF
