:100000000C9464000C948C000C948C000C948C0068
:100010000C948C000C948C000C948C000C94650D4A
:100020000C948C000C948C000C948C000C948C0020
:100030000C948C000C948C000C948C000C948C0010
:100040000C94C10D0C948C000C9478080C94AA08A4
:100050000C948C000C948C000C948C000C948C00F0
:100060000C948C000C948C0002000000080002012B
:10007000000003040700000000000000000102046B
:10008000081020408001020408102001020408101A
:100090002004040404040404040202020202020311
:1000A00003030303030000000023002600290000CF
:1000B000000000250028002B00000000002400277D
:1000C000002A0000F804DA0811241FBECFEFD8E0A0
:1000D000DEBFCDBF11E0A0E0B1E0EEE7F4E202C088
:1000E00005900D92AC3BB107D9F722E0ACEBB1E043
:1000F00001C01D92A83BB207E1F710E0C4E6D0E0D2
:1001000004C02197FE010E94EC0FC236D107C9F747
:100110000E9408090C943D120C940000CF92DF92CB
:10012000EF92FF920F931F93E82FF92F05C0015014
:1001300011092109310961F1908196239417B9F3CE
:1001400005C0015011092109310911F1908196234F
:100150009413F7CFC12CD12CE12CF12C0AC08FEFD6
:10016000C81AD80AE80AF80A0C151D052E053F051D
:1001700079F080818623841791F36C2D7D2D8E2D4F
:100180009F2D1F910F91FF90EF90DF90CF900895DA
:1001900060E070E080E090E01F910F91FF90EF90A1
:1001A000DF90CF900895813029F0823031F085E1E1
:1001B00091E0089589E091E008958FE091E008953D
:1001C0008150853048F4E82FF0E0EE0FFF1FEF5626
:1001D000FE4F8081918108958AE191E0089560E069
:1001E00083E00E94200F60E084E00E94200F60E026
:1001F00085E00E94200F60E086E00C94200F61E013
:1002000083E00E94200F60E084E00E94200F61E004
:1002100085E00E94200F60E086E00C94200F60E0F3
:1002200083E00E94200F60E084E00E94200F61E0E4
:1002300085E00E94200F60E086E00C94200F61E0D2
:1002400083E00E94200F60E084E00E94200F60E0C5
:1002500085E00E94200F60E086E00C94200F60E0B3
:1002600081E10E94200F60E082E10C94200FCF9288
:10027000DF92EF92FF92CF9394E0899FF0011124D7
:10028000E050FF4FC080D180E280F380A70196014B
:10029000C701B6010E943812811115C020E030E07C
:1002A00040E252E4C701B6010E946E10C1E087FD32
:1002B0000BC020E030E040E752E4C701B6010E94E5
:1002C000C61118160CF0C0E08C2FCF91FF90EF9064
:1002D000DF90CF9008958F929F92AF92BF92CF926E
:1002E000DF92EF92FF92CF93DF93C82F6A017B01D9
:1002F0000E943701882309F454C024E0C29FE00122
:100300001124FE01E050FF4F80809180A280B380D5
:1003100020E030E040E252E4C501B4010E946E10DA
:1003200087FF38C0A501940160E070E080E292E4AC
:100330000E9401104B015C01C453DE4F88819981FA
:10034000AA81BB8120E030E0A9010097A105B10599
:1003500091F0A7019601281B390B4A0B5B0BCA01D0
:10036000B9010E94141120E030E44CE156E40E94EF
:1003700073109B01AC01C501B4010E940210DF9112
:10038000CF91FF90EF90DF90CF90BF90AF909F9074
:100390008F90089520E030E040E752E4C501B401B9
:1003A000C7CF60E070E0CB01EACF8F929F92AF920F
:1003B000BF92CF92DF92EF92FF924B015C01BC01A2
:1003C000A40180E00E946B016B017C01B501A401D6
:1003D00081E00E946B014B015C0120E030E0A9014B
:1003E000C701B6010E946E10811114C020E030E0F8
:1003F000A901C501B4010E946E1081110BC01092B9
:10040000D501FF90EF90DF90CF90BF90AF909F907D
:100410008F900895A5019401C701B6010E94C611ED
:1004200087FF04C082E08093D501EBCF81E0FBCF52
:100430008EE00E944E0F892B11F41092D6018FE0AE
:100440000E944E0F892B19F481E08093D60180E140
:100450000E944E0F892B19F482E08093D6010895F3
:100460004F925F926F927F928F929F92AF92BF92C4
:10047000CF92DF92EF92FF92C090C801D090C90155
:10048000E090CA01F090CB019B01AC012C193D0911
:100490004E095F0969017A0134ECC31639E0D306CD
:1004A000E104F10408F4D4C06B017C01C092C801DE
:1004B000D092C901E092CA01F092CB0160E08AEECD
:1004C00091E00E94F3062B013C0160E087ED91E092
:1004D0000E94F3064B015C01A3019201C301B2012A
:1004E0000E943812811108C040920001509201010F
:1004F0006092020170920301A5019401C501B4014B
:100500000E943812811108C0809204019092050166
:10051000A0920601B092070180E00E94370181118C
:1005200078C01092CC011092CD011092CE011092A1
:10053000CF0181E00E943701882309F480C08091B7
:10054000D0019091D101A091D201B091D301892B1A
:100550008A2B8B2B41F4C092D001D092D101E09232
:10056000D201F092D301C701B6010E94D5016FE11B
:1005700071E08DEF91E00E9453094091000150918C
:100580000101609102017091030121E030E08DEFE3
:1005900091E00E94C00A63E271E08DEF91E00E9459
:1005A0005309409104015091050160910601709139
:1005B000070121E030E08DEF91E00E94C00A68E27F
:1005C00071E08DEF91E00E9453098091D5010E9466
:1005D000D300BC018DEF91E00E94530961E371E00B
:1005E0008DEF91E00E9453098091D6010E94D300C3
:1005F000BC018DEF91E0FF90EF90DF90CF90BF9026
:10060000AF909F908F907F906F905F904F900C94E1
:1006100066098091CC019091CD01A091CE01B0915D
:10062000CF01892B8A2B8B2B09F083CFC092CC0171
:10063000D092CD01E092CE01F092CF017ACF10920C
:10064000D0011092D1011092D2011092D3018BCF20
:10065000FF90EF90DF90CF90BF90AF909F908F90E2
:100660007F906F905F904F90089560E087E00E94C8
:10067000200F82E090E00E94750E61E087E00E940A
:10068000200F8AE090E00E94750E60E087E00E94F3
:10069000200F28EA31E640E050E061E088E00E9467
:1006A000770F27EE33E040E050E0611571058105DA
:1006B000910531F02AE330E040E050E00E94A00FC5
:1006C000CA01B9010895CF92DF92EF92FF920F9382
:1006D0001F930091C4011091C5012091C601309172
:1006E000C7016B017C01C01AD10AE20AF30A970123
:1006F00086010E3511402105310580F06093C4015B
:100700007093C5018093C6019093C7010E94350381
:1007100021E06F307105810591050CF020E0822FFA
:100720001F910F91FF90EF90DF90CF900895CF939E
:10073000DF938AE00E944E0FEC018BE00E944E0F87
:100740008CE00E944E0FCD2B51F4892B21F0DF91CC
:10075000CF910C940F01DF91CF910C94FF00892B66
:10076000D1F7DF91CF910C941F01CF92DF92EF92DE
:10077000FF926B017C010E942F019091D501809125
:10078000D601911155C0811111C01092D4010E945F
:10079000EF001092C0011092C1011092C20110929C
:1007A000C301FF90EF90DF90CF9008958091C0013A
:1007B0009091C101A091C201B091C301892B8A2BF4
:1007C0008B2B41F4C092C001D092C101E092C201D2
:1007D000F092C3018091C0019091C101A091C2012A
:1007E000B091C301C81AD90AEA0AFB0A80E7C81601
:1007F00087E1D806E104F10490F01092D60110923E
:10080000C0011092C1011092C2011092C301109256
:10081000D401FF90EF90DF90CF900C94EF0084E034
:100820008093D401FF90EF90DF90CF900C949703CA
:10083000981709F44EC08091C0019091C101A09118
:10084000C201B091C301892B8A2B8B2B41F4C0923A
:10085000C001D092C101E092C201F092C301C70170
:10086000B6010E946303882391F085E08093D40150
:100870000E94EF0028E730E040E050E068E077E0D9
:100880008DE0FF90EF90DF90CF900C94C20A8091A2
:10089000C0019091C101A091C201B091C301C81AD9
:1008A000D90AEA0AFB0A80E7C81687E1D806E104FC
:1008B000F10468F08091D5018093D6011092C001B7
:1008C0001092C1011092C2011092C301A2CF81E027
:1008D000A7CF1092C0011092C1011092C2011092D4
:1008E000C3010E94EF0081E090E02091D50121300A
:1008F00011F490E080E0880F991F880F991FFC0188
:10090000E050FF4F20E030E040E252E4608171812E
:10091000828193810E946E1087FF0BC082E08093DA
:10092000D40161E081E1FF90EF90DF90CF900C94D3
:10093000200F83E08093D40161E082E1F4CF26E0D0
:1009400040E855E260E070E08DEF91E00E9416080B
:1009500067E38AEE91E00E94A10567E387ED91E0ED
:100960000E94A10561E083E00E94E40E61E084E062
:100970000E94E40E61E085E00E94E40E61E086E002
:100980000E94E40E61E087E00E94E40E60E088E0EF
:100990000E94E40E61E081E10E94E40E61E082E1E8
:1009A0000E94E40E61E08DE00E94E40E62E08AE0C5
:1009B0000E94E40E62E08BE00E94E40E62E08CE0B4
:1009C0000E94E40E62E08EE00E94E40E62E08FE09E
:1009D0000E94E40E62E080E10E94E40E0E94EF00BB
:1009E0000E942F016BE371E08DEF91E00C9466099A
:1009F00026E046E162E08AEE91E00E94800526E072
:100A000046E169E087ED91E00C948005CF93DF9398
:100A1000D1E0C2E08DEF91E00E943C071816190664
:100A2000A4F48DEF91E00E945607982F9F7D983493
:100A300039F41092D601823369F7C093D601EACF18
:100A40008133C9F7D093D601E5CFDF91CF910895D7
:100A5000CF92DF92EF92FF920E940B0E6B017C010E
:100A60000E9418020E940605C701B6010E943002CA
:100A7000C701B6010E94B5038091BC019091BD01F0
:100A8000A091BE01B091BF01A7019601281B390BAF
:100A90004A0B5B0BDA01C901893E9340A105B10500
:100AA00050F1C092BC01D092BD01E092BE01F09223
:100AB000BF016CE671E08DEF91E00E9453098091D7
:100AC000D4010E94E000BC018DEF91E00E94530927
:100AD00068E271E08DEF91E00E9453098091D501A9
:100AE0000E94D300BC018DEF91E0FF90EF90DF906A
:100AF000CF900C946609FF90EF90DF90CF9008950F
:100B0000DC0115966C93159716964C93169770E02A
:100B1000FB01E358FF4FE4911796EC9317976F563C
:100B20007F4FFB01649118966C93189740E85EE341
:100B300060E070E01D964D935D936D937C935097AC
:100B400008951F93CF93DF93EC01162F62E08D8100
:100B50000E94E40E0E940B0E605D774081099109AE
:100B600069877A878B879C871A8BDF91CF911F913A
:100B70000895CF92DF92EF92FF92CF93DF93DC0143
:100B80001796CC911797D0E06111DC2F18962C9115
:100B9000189730E0220F331F2B553F4F50E040E0B5
:100BA000F90185919491FC01F080BA0190E080E018
:100BB000EF2DEC23ED1310C04F5F5F4F1D96CD90CE
:100BC000DD90ED90FC9050976C157D058E059F058E
:100BD00038F36FEF7FEFCB01DF91CF91FF90EF9074
:100BE000DF90CF9008958F929F92AF92BF92CF9255
:100BF000DF92EF92FF920F931F93CF93DF93CDB7C6
:100C0000DEB7C054D1400FB6F894DEBF0FBECDBFE3
:100C10008C01F62E0E940B0EF11029C0F801C18440
:100C2000D284E384F4849B01AC012C193D094E0964
:100C30005F0969017A0130EDC31637E0D306E1049C
:100C4000F104A8F48189C05CDE4F0FB6F894DEBFD2
:100C50000FBECDBFDF91CF911F910F91FF90EF900D
:100C6000DF90CF90BF90AF909F908F900895F80144
:100C7000618772878387948714821382128211821C
:100C8000108262E085810E94E40E61E070E080E005
:100C900090E00E943C0E61E0F80185810E94E40E24
:100CA00060E0F80185810E94200FF801868185515E
:100CB0008230E8F48CE494E00E94750E62E0F80162
:100CC00085810E94E40EF801828990E00E94750EF1
:100CD000F89460E0C8010E94B9056F3F7F4F8F4FC5
:100CE0009F4F61F4F801118A789480E0ACCF64E101
:100CF00070E080E090E00E943C0EE0CF61E0C8012F
:100D00000E94B9056F3F7F4F8F4F9F4F59F39E0150
:100D10002F5F3F4F79015E013FEBA31A3EEFB30A0D
:100D2000670160E0C8010E94B905F6016083718324
:100D30008283938361E0C8010E94B905F601648350
:100D4000758386839783F8E0CF0ED11CCA14DB0429
:100D500041F7789430E020E0F70180809180A28014
:100D6000B3804481558166817781FFEF8F169F069E
:100D7000AF06BF0631F04F3F8FEF5807680778077F
:100D800019F4F801118AB1CFF90183E0F595E795DF
:100D90008A95E1F7E00FF11F8081880F8416950690
:100DA000A606B706F0F080832F5F3F4FF8E0EF0E06
:100DB000F11C2832310581F6F801448120818181BE
:100DC000280F3327331F8281280F311D8381820F23
:100DD000932F911D99274817190699F681E0818B69
:100DE00032CF8160E0CFCF92DF92EF92FF92CF932C
:100DF000DF93EC010E94F305882341F08E818B3054
:100E000028F08D3040F08551823030F160E070E0A4
:100E100080EC9FE71AC0698170E090E080E00E945A
:100E200016112DEC3CEC4CEC5DE30E94CB116B01F8
:100E30007C01688170E090E080E00E9416119B01C7
:100E4000AC01C701B6010E940210DF91CF91FF9063
:100E5000EF90DF90CF90089568817981762767279A
:100E6000762790E080E00E9414112DEC3CEC4CECD5
:100E70005DE30E94CB11E9CFFC01918D228D892F7A
:100E800090E0805C9F4F821B91098F739927089592
:100E9000FC01918D828D981731F0828DE80FF11D44
:100EA000858D90E008958FEF9FEF0895FC01918D5F
:100EB000828D981761F0A28DAE0FBF2FB11D5D9688
:100EC0008C91928D9F5F9F73928F90E008958FEF2A
:100ED0009FEF0895FC01538D448D252F30E0842F22
:100EE00090E0821B930B541710F0CF960895019752
:100EF000089580ED98E0892B49F080E090E0892BFF
:100F000029F00E94D00881110C9400000895FC0182
:100F1000A48DA80FB92FB11DA35ABF4F2C91848D5A
:100F200090E001968F739927848FA689B7892C93B7
:100F3000A089B1898C91837080648C93938D848D0A
:100F4000981306C00288F389E02D80818F7D80830D
:100F50000895CF93DF93EC01888D8823B9F0AA8997
:100F6000BB89E889F9898C9185FD03C0808186FD64
:100F70000DC00FB607FCF7CF8C9185FFF2CF8081B3
:100F800085FFEDCFCE010E948707E9CFDF91CF919A
:100F90000895EF92FF920F931F93CF93DF93EC018D
:100FA00081E0888F9B8D8C8D98131AC0E889F98910
:100FB000808185FF15C09FB7F894EE89FF89608313
:100FC000E889F98980818370806480839FBF81E094
:100FD00090E0DF91CF911F910F91FF90EF900895D6
:100FE000F62E0B8D10E00F5F1F4F0F731127E02EB1
:100FF0008C8D8E110CC00FB607FCFACFE889F989E9
:10100000808185FFF5CFCE010E948707F1CFEB8D60
:10101000EC0FFD2FF11DE35AFF4FF0829FB7F894BC
:101020000B8FEA89FB8980818062CFCFCF92DF92DC
:10103000EF92FF921F93CF93DF93EC016A017B0144
:10104000122FE889F98982E08083C11481EED806E5
:10105000E104F104A1F060E079E08DE390E0A70104
:1010600096010E94A00F215031094109510956955E
:10107000479537952795211580E1380798F0E8893D
:10108000F989108260E874E88EE190E0A70196018A
:101090000E94A00F215031094109510956954795E9
:1010A00037952795EC85FD853083EE85FF85208378
:1010B000188EEC89FD891083EA89FB898081806123
:1010C0008083EA89FB89808188608083EA89FB8943
:1010D000808180688083EA89FB8980818F7D80831D
:1010E000DF91CF911F91FF90EF90DF90CF90089507
:1010F0001F920F920FB60F9211242F938F939F93ED
:10110000EF93FF93E0910D02F0910E028081E09148
:101110001302F091140282FD1BC09081809116028F
:101120008F5F8F7320911702821741F0E0911602B2
:10113000F0E0E350FE4F958F80931602FF91EF9100
:101140009F918F912F910F900FBE0F901F90189528
:101150008081F4CF1F920F920FB60F9211242F931C
:101160003F934F935F936F937F938F939F93AF932F
:10117000BF93EF93FF938DEF91E00E948707FF915C
:10118000EF91BF91AF919F918F917F916F915F91FF
:101190004F913F912F910F900FBE0F901F90189578
:1011A0008DEF91E00E943C0721E0892B09F420E0BB
:1011B000822F0895EDEFF1E01382128288EE93E022
:1011C000A0E0B0E084839583A683B7838FE991E0A4
:1011D0009183808385EC90E09587848784EC90E010
:1011E0009787868780EC90E0918B808B81EC90E0F4
:1011F000938B828B82EC90E0958B848B86EC90E0D5
:10120000978B868B118E128E138E148E08950895EF
:101210000E94800E0E9407090E949F04C9E7D7E040
:101220000E9428052097E1F30E947907F9CFAF9239
:10123000BF92CF92DF92EF92FF920F931F93CF93C3
:10124000DF936C017B018B01040F151FEB015E0125
:10125000AE18BF08C017D10759F06991D601ED91BA
:10126000FC910190F081E02DC6010995892B79F759
:10127000C501DF91CF911F910F91FF90EF90DF900B
:10128000CF90BF90AF900895FB0101900020E9F747
:101290003197AF01461B570BDC01ED91FC910280A9
:1012A000F381E02D09946115710511F00C94440946
:1012B00090E080E00895DC01ED91FC910190F081D7
:1012C000E02D09946DEA71E00C9444090F931F938B
:1012D000CF93DF938C01D0E0C0E06115710519F068
:1012E0000E944409EC01C8010E9462098C0F9D1FF5
:1012F000DF91CF911F910F9108958F929F92AF929E
:10130000BF92EF92FF920F931F93CF93DF93CDB7CE
:10131000DEB7A1970FB6F894DEBF0FBECDBF7C013C
:10132000FA01CB0119A2223008F42AE08E010F5DE8
:101330001F4F822E912CB12CA12CBF01A50194012D
:101340000E94A00FF901CA016A300CF5605DD80156
:101350006E938D01232B242B252B79F790E080E0D1
:10136000109721F0BD01C7010E944409A1960FB654
:10137000F894DEBF0FBECDBFDF91CF911F910F91CB
:10138000FF90EF90BF90AF909F908F900895695C11
:10139000DECF2115310541F4DC01ED91FC91019086
:1013A000F081E02D642F09940C947D099A01AB0122
:1013B00070E060E00C94C9092F923F924F925F92C7
:1013C0006F927F928F929F92AF92BF92CF92DF9255
:1013D000EF92FF921F93CF93DF93EC016A017B01A1
:1013E000722EAB019601CB01B6010E94381260EB60
:1013F00071E0811126C046015701E894B7F82FEF3C
:101400003FEF4FE75FE7C501B4010E943812811139
:101410000CC02FEF3FEF4FE75FE7C501B4010E941B
:101420006E1064EB71E0181664F02FEF3FEF4FE79A
:101430005FE4C701B6010E94C6111816B4F468EB48
:1014400071E0CE01DF91CF911F91FF90EF90DF907F
:10145000CF90BF90AF909F908F907F906F905F9054
:101460004F903F902F900C9444092FEF3FEF4FE7A0
:101470005FECC701B6010E946E1087FDE0CF20E04F
:1014800030E0A901C701B6010E946E10312C212C59
:1014900087FF09C06DE2CE010E945B091C01F7FACB
:1014A000F094F7F8F09410E060E070E080E09FE3E3
:1014B000711641F020E030E040E251E40E947310E8
:1014C0001F5FF6CFA70196010E9402102B013C017D
:1014D0000E94E5104B015C012AE0BC01A401CE0191
:1014E0000E947D097C01E20CF31C1123B1F1C501BE
:1014F000B4010E9414119B01AC01C301B2010E940E
:1015000001104B015C016EE2CE010E945B09E80E06
:10151000F91E115010F120E030E040E251E4C50125
:10152000B4010E94CB112B013C010E94E5104B013C
:101530004AE050E0CE010E94D609E80EF91EB4013F
:1015400090E080E00E9414119B01AC01C301B20144
:101550000E9401104B015C01DCCFC701DF91CF91EC
:101560001F91FF90EF90DF90CF90BF90AF909F9032
:101570008F907F906F905F904F903F902F90089545
:101580000C94DC094F925F926F927F928F929F92A0
:10159000AF92BF92CF92DF92EF92FF920F931F9381
:1015A000CF93DF9300D000D01F92CDB7DEB78B0171
:1015B00029013A01909108018917C9F09F3F09F468
:1015C0007EC00F900F900F900F900F90DF91CF91F2
:1015D0001F910F91FF90EF90DF90CF90BF90AF9051
:1015E0009F908F907F906F905F904F900895E8E666
:1015F000F0E094919D8397FDE4CF61E00E94E40EBA
:101600008D81882321F09D81923009F052C14801DB
:10161000B12CA12C60E072E18AE790E0A50198016D
:101620000E94C20F29833A834B835C8369017A014C
:1016300081E0C81AD108E108F1089FEFC916D1046A
:10164000E104F10409F00CF409C160E472E48FE0F4
:1016500090E0A50198010E94C20F69017A0181E022
:10166000C81AD108E108F1089D81923009F0AAC09A
:101670008FEFC816D104E104F10409F00CF4EEC1B7
:1016800060E970ED83E090E0A50198010E94C20F2F
:1016900069017A0191E0C91AD108E108F1088FEFD8
:1016A000C816D104E104F10411F00CF087C183E005
:1016B0009091B100987F892B8093B100D7C080931F
:1016C0000801E8E6F0E094919D839F3F09F479CF0B
:1016D000913061F150F0923009F44EC09D8197FD38
:1016E00070CF61E00E94E40E8ECF14BC15BC94B59F
:1016F000926094BD95B5916095BD282F30E0F901B9
:10170000EF56FF4FE491F0E0EE0FFF1FE155FF4F62
:10171000459154915093AA024093A902F901E358CC
:10172000FF4FE491E093A8021D8267CF10928000E2
:101730001092810090918100986090938100909127
:101740008100916090938100282F30E0F901EF56DD
:10175000FF4FE491F0E0EE0FFF1FE155FF4F459181
:1017600054915093A3024093A202F901E358FF4F12
:10177000E491E093A10241CF1092B0001092B10029
:101780009091B00092609093B0009091B100916000
:101790009093B100282F30E0F901EF56FF4FE4910C
:1017A000F0E0EE0FFF1FE155FF4F4591549150932C
:1017B0009C0240939B02F901E358FF4FE491E093B0
:1017C0009A021BCF9FEFC916D104E104F10409F07E
:1017D0000CF46DC068E478EE81E090E0A50198011A
:1017E0000E94C20F69017A0181E0C81AD108E1089C
:1017F000F1089D81992309F4FAC08FEFC816D1042E
:10180000E104F10411F00CF0FBC0EFC064E274EFEE
:1018100080E090E0A50194010E94C20F69017A0165
:1018200081E0C81AD108E108F10885E09FEFC916E8
:10183000D104E104F10409F008F43ACF62E17AE757
:1018400080E090E0A50194010E94C20F69017A0135
:1018500081E0C81AD108E108F108E5C081E09D8166
:10186000911126CF95B5987F892B85BD2FEF3FEF3E
:10187000A901411451046104710409F043C09D8120
:10188000913009F45EC0923009F46DC0911199CE87
:10189000C7BC2093AB023093AC024093AD0250938F
:1018A000AE0280916E00826080936E008ACE82E0EC
:1018B000D6CFB12CA12C60E072E18AE790E0A501BF
:1018C00098010E94C20F69017A0181E0C81AD1080B
:1018D000E108F108C114D10491E0E906F10404F52E
:1018E00091E08D81813011F680918100887F892B74
:1018F000809381002FEF3FEFA9014114510461044F
:101900007104F9F0D801AA0FBB1FA30192010E9434
:10191000E10F28EE33E040E050E00E94A00FAFCF8F
:1019200068E478EE81E090E0A50198010E94C20F82
:1019300069017A0181E0C81AD108E108F10893E051
:10194000D0CFD0928900C09288002093A402309317
:10195000A5024093A6025093A70280916F00826077
:1019600080936F002ECEC092B30020939D023093DF
:101970009E0240939F025093A0028091700082606B
:10198000809370001ECE84E09FEFC916D104E1045D
:10199000F10409F008F466CFC980DA80EB80FC809E
:1019A0008AE0F594E794D794C7948A95D1F781E0BB
:1019B000C81AD108E108F10885E054CF68E478EE50
:1019C00081E090E0A50198010E94C20F69017A01AF
:1019D00081E0C81AD108E108F1089FEFC916D104C7
:1019E000E104F10411F00CF011CF84E061CE83E04A
:1019F0009FEFC916D104E104F10409F00CF432CFD1
:101A000062E17AE780E090E0A50194010E94C20FB4
:101A100069017A0181E0C81AD108E108F1089D81C5
:101A2000992309F4B0CF86E09FEFC916D104E104F1
:101A3000F10409F008F43CCEC980DA80EB80FC8028
:101A40009AE0F594E794D794C7949A95D1F781E0FA
:101A5000C81AD108E108F10887E02ACE82E028CE32
:101A6000813039F018F0823051F0089510926E00F4
:101A7000089580916F008D7F80936F00089580910D
:101A800070008D7F8093700081E08093B000809122
:101A9000B100887F84608093B1001092B3000895F4
:101AA000CF93C82F80910801C8130DC0E8E6F0E07D
:101AB00084919FEF909308010E94300D60E08C2F7D
:101AC000CF910C94200F8FEFF7CF1F920F920FB68C
:101AD0000F9211242F933F934F935F936F937F93B4
:101AE0008F939F93AF93BF93EF93FF9380919D024A
:101AF00090919E02A0919F02B091A002892B8A2B07
:101B00008B2BD1F190919A02E0919B02F0919C0273
:101B100080818927808380919D0290919E02A0916F
:101B20009F02B091A002181619061A061B069CF413
:101B300080919D0290919E02A0919F02B091A0027F
:101B40000197A109B10980939D0290939E02A093F1
:101B50009F02B093A002FF91EF91BF91AF919F912F
:101B60008F917F916F915F914F913F912F910F9046
:101B70000FBE0F901F901895809108010E94500D84
:101B8000EACF1F920F920FB60F9211242F933F931B
:101B90008F939F93AF93BF938091B0029091B102C6
:101BA000A091B202B091B3023091AF0223E0230FB3
:101BB0002D3758F50196A11DB11D2093AF028093DA
:101BC000B0029093B102A093B202B093B30280919D
:101BD000B4029091B502A091B602B091B7020196FD
:101BE000A11DB11D8093B4029093B502A093B602DB
:101BF000B093B702BF91AF919F918F913F912F9179
:101C00000F900FBE0F901F90189526E8230F029695
:101C1000A11DB11DD2CF2FB7F8946091B002709181
:101C2000B1028091B2029091B3022FBF08953FB7E5
:101C3000F8948091B4029091B502A091B602B0914F
:101C4000B70226B5A89B05C02F3F19F00196A11D2C
:101C5000B11D3FBFBA2FA92F982F8827BC01CD01F6
:101C6000620F711D811D911D42E0660F771F881F55
:101C7000991F4A95D1F708958F929F92AF92BF9284
:101C8000CF92DF92EF92FF926B017C010E94170EC0
:101C90004B015C01C114D104E104F104E9F00E949C
:101CA0009F0F0E94170E681979098A099B09683EDF
:101CB00073408105910570F321E0C21AD108E10853
:101CC000F10888EE880E83E0981EA11CB11CC11497
:101CD000D104E104F10429F7FF90EF90DF90CF9059
:101CE000BF90AF909F908F9008958230910538F00B
:101CF000880F991F880F991F05970197F1F708958D
:101D0000789484B5826084BD84B5816084BD85B5D6
:101D1000826085BD85B5816085BDEEE6F0E080819D
:101D200081608083E1E8F0E01082808182608083BE
:101D3000808181608083E0E8F0E080818160808341
:101D4000E1EBF0E0808184608083E0EBF0E0808173
:101D500081608083EAE7F0E0808184608083808115
:101D600082608083808181608083808180688083BD
:101D70001092C1000895833081F028F4813099F0E9
:101D80008230A9F008958730A9F08830C9F08430F6
:101D9000B1F4809180008F7D03C0809180008F77A7
:101DA00080938000089584B58F7784BD089584B5AD
:101DB0008F7DFBCF8091B0008F778093B000089526
:101DC0008091B0008F7DF9CFCF93DF9390E0FC013D
:101DD000E358FF4F24918F569F4FFC018491882335
:101DE000C9F090E0880F991FFC01E754FF4FA591BF
:101DF000B491FC01E155FF4FC591D49161110DC023
:101E00009FB7F8948C91209582238C938881282306
:101E100028839FBFDF91CF910895623051F49FB71F
:101E2000F8943C91822F809583238C93E8812E2B0C
:101E3000EFCF8FB7F894EC912E2B2C938FBFEACF76
:101E40001F93CF93DF93282F30E0F901E759FF4F1D
:101E50008491F901E358FF4FD491F901EF56FF4FF8
:101E6000C491CC23A9F0162F81110E94BB0EEC2F38
:101E7000F0E0EE0FFF1FE155FF4FA591B4918FB732
:101E8000F894EC91111108C0D095DE23DC938FBF3C
:101E9000DF91CF911F910895DE2BF8CFCF93DF9381
:101EA000282F30E0F901E759FF4F8491F901E358F9
:101EB000FF4FD491F901EF56FF4FC491CC23A1F00D
:101EC00081110E94BB0EEC2FF0E0EE0FFF1FEB55CF
:101ED000FF4FA591B491EC91ED2381E090E009F4DE
:101EE00080E0DF91CF91089580E090E0FACF0F93EA
:101EF0001F9390E0FC01E358FF4F7491FC01EF56F3
:101F0000FF4FE4916111672FF0E0EE0FFF1FEB55DB
:101F1000FF4F8591949189019A013F70462F672F59
:101F20000E948E00611571058105910529F06F5F92
:101F30007F4F8F4F9F4F9F701F910F91089508956E
:101F4000A1E21A2EAA1BBB1BFD010DC0AA1FBB1FBD
:101F5000EE1FFF1FA217B307E407F50720F0A21B2F
:101F6000B30BE40BF50B661F771F881F991F1A949C
:101F700069F760957095809590959B01AC01BD01C6
:101F8000CF010895052E97FB1EF400940E94D90FEF
:101F900057FD07D00E94A00F07FC03D04EF40C940D
:101FA000D90F50954095309521953F4F4F4F5F4F3A
:101FB000089590958095709561957F4F8F4F9F4FB5
:101FC00008950E94F20FA59F900DB49F900DA49FBD
:101FD000800D911D11240895EE0FFF1F0590F491BF
:101FE000E02D0994A29FB001B39FC001A39F700D83
:101FF000811D1124911DB29F700D811D1124911D11
:1020000008955058BB27AA270E9419100C948C11D0
:102010000E947E1138F00E94851120F039F49F3F14
:1020200019F426F40C947B110EF4E095E7FB0C9464
:102030007511E92F0E949D1158F3BA1762077307B3
:102040008407950720F079F4A6F50C94BF110EF4DF
:10205000E0950B2EBA2FA02D0B01B90190010C01B8
:10206000CA01A0011124FF27591B99F0593F50F4D0
:10207000503E68F11A16F040A22F232F342F442728
:10208000585FF3CF469537952795A795F040539520
:10209000C9F77EF41F16BA0B620B730B840BBAF0F0
:1020A0009150A1F0FF0FBB1F661F771F881FC2F75B
:1020B0000EC0BA0F621F731F841F48F4879577956F
:1020C0006795B795F7959E3F08F0B0CF9395880F29
:1020D00008F09927EE0F9795879508950E94511162
:1020E00008F481E008950E9487100C948C110E94DE
:1020F000851158F00E947E1140F029F45F3F29F0CD
:102100000C94751151110C94C0110C947B110E9408
:102110009D1168F39923B1F3552391F3951B550B4A
:10212000BB27AA2762177307840738F09F5F5F4FAA
:10213000220F331F441FAA1FA9F335D00E2E3AF0E9
:10214000E0E832D091505040E695001CCAF72BD001
:10215000FE2F29D0660F771F881FBB1F2617370752
:102160004807AB07B0E809F0BB0B802DBF01FF2784
:1021700093585F4F3AF09E3F510578F00C947511DB
:102180000C94C0115F3FE4F3983ED4F386957795A5
:102190006795B795F7959F5FC9F7880F911D96953D
:1021A000879597F90895E1E0660F771F881FBB1F99
:1021B000621773078407BA0720F0621B730B840B46
:1021C000BA0BEE1F88F7E09508950E94A51188F0DC
:1021D0009F5798F0B92F9927B751B0F0E1F0660FEB
:1021E000771F881F991F1AF0BA95C9F714C0B1302C
:1021F00091F00E94BF11B1E008950C94BF11672FB8
:10220000782F8827B85F39F0B93FCCF3869577955A
:102210006795B395D9F73EF4909580957095619543
:102220007F4F8F4F9F4F0895E89409C097FB3EF46E
:1022300090958095709561957F4F8F4F9F4F992313
:10224000A9F0F92F96E9BB279395F6958795779591
:102250006795B795F111F8CFFAF4BB0F11F460FF51
:102260001BC06F5F7F4F8F4F9F4F16C0882311F0A9
:1022700096E911C0772321F09EE8872F762F05C0BD
:10228000662371F096E8862F70E060E02AF09A9558
:10229000660F771F881FDAF7880F9695879597F94D
:1022A0000895990F0008550FAA0BE0E8FEEF1616E7
:1022B0001706E807F907C0F012161306E407F5073A
:1022C00098F0621B730B840B950B39F40A2661F0AE
:1022D000232B242B252B21F408950A2609F4A14051
:1022E000A6958FEF811D811D089597F99F6780E85E
:1022F00070E060E008959FEF80EC089500240A9458
:102300001616170618060906089500240A941216D0
:102310001306140605060895092E0394000C11F403
:10232000882352F0BB0F40F4BF2B11F460FF04C0B0
:102330006F5F7F4F8F4F9F4F089557FD9058440F09
:10234000551F59F05F3F71F04795880F97FB991F14
:1023500061F09F3F79F087950895121613061406D1
:10236000551FF2CF4695F1DF08C01616170618065E
:10237000991FF1CF86957105610508940895E89439
:10238000BB2766277727CB0197F908950E94511143
:1023900008F48FEF08950E94DE110C948C110E94B6
:1023A0007E1138F00E94851120F0952311F00C94D5
:1023B00075110C947B1111240C94C0110E949D1175
:1023C00070F3959FC1F3950F50E0551F629FF00188
:1023D000729FBB27F00DB11D639FAA27F00DB11DA1
:1023E000AA1F649F6627B00DA11D661F829F22272A
:1023F000B00DA11D621F739FB00DA11D621F839FB1
:10240000A00D611D221F749F3327A00D611D231F86
:10241000849F600D211D822F762F6A2F11249F57D4
:1024200050409AF0F1F088234AF0EE0FFF1FBB1FD7
:10243000661F771F881F91505040A9F79E3F510596
:1024400080F00C9475110C94C0115F3FE4F3983E3A
:10245000D4F3869577956795B795F795E7959F5F40
:10246000C1F7FE2B880F911D9695879597F90895D2
:0E2470000E945111880B990B0895F894FFCF2C
:10247E000000C07F0000C07FFF5A4F4E4531005A0A
:10248E004F4E453200484F4D450049444C4500489B
:10249E00313D002048323D00207461726765743D05
:1024AE00002063757272656E743D004D6F62696CCB
:1024BE00652068756D696469747920726F626F74D6
:1024CE00202D203420776865656C2073696D756CDE
:1024DE006174696F6E207265616479004D4F444579
:1024EE003D004D4F564500444548554D49444946DB
:1024FE00590052455455524E00424C4F434B4544A1
:10250E00007201790177018201890100000000C982
:10251E000717096A07A9073C07560748070D0A005F
:0C252E006E616E00696E66006F766600DC
:00000001FF
